{"abi":[{"type":"constructor","inputs":[{"name":"_wormholeRelayer","type":"address","internalType":"address"},{"name":"_tokenBridge","type":"address","internalType":"address"},{"name":"_wormhole","type":"address","internalType":"address"}],"stateMutability":"nonpayable"},{"type":"function","name":"controller","inputs":[],"outputs":[{"name":"","type":"address","internalType":"address"}],"stateMutability":"view"},{"type":"function","name":"receiveWormholeMessages","inputs":[{"name":"payload","type":"bytes","internalType":"bytes"},{"name":"additionalVaas","type":"bytes[]","internalType":"bytes[]"},{"name":"sourceAddress","type":"bytes32","internalType":"bytes32"},{"name":"sourceChain","type":"uint16","internalType":"uint16"},{"name":"deliveryHash","type":"bytes32","internalType":"bytes32"}],"outputs":[],"stateMutability":"payable"},{"type":"function","name":"routerDeposits","inputs":[{"name":"","type":"address","internalType":"address"},{"name":"","type":"address","internalType":"address"}],"outputs":[{"name":"","type":"uint256","internalType":"uint256"}],"stateMutability":"view"},{"type":"function","name":"setController","inputs":[{"name":"_controller","type":"address","internalType":"address"}],"outputs":[],"stateMutability":"nonpayable"},{"type":"function","name":"setRegisteredSender","inputs":[{"name":"sourceChain","type":"uint16","internalType":"uint16"},{"name":"sourceAddress","type":"bytes32","internalType":"bytes32"}],"outputs":[],"stateMutability":"nonpayable"},{"type":"function","name":"tokenBridge","inputs":[],"outputs":[{"name":"","type":"address","internalType":"contract ITokenBridge"}],"stateMutability":"view"},{"type":"function","name":"wormhole","inputs":[],"outputs":[{"name":"","type":"address","internalType":"contract IWormhole"}],"stateMutability":"view"},{"type":"function","name":"wormholeRelayer","inputs":[],"outputs":[{"name":"","type":"address","internalType":"contract IWormholeRelayer"}],"stateMutability":"view"},{"type":"event","name":"TokensWithdrawn","inputs":[{"name":"router","type":"address","indexed":true,"internalType":"address"},{"name":"token","type":"address","indexed":true,"internalType":"address"},{"name":"amount","type":"uint256","indexed":false,"internalType":"uint256"}],"anonymous":false},{"type":"error","name":"NotAnEvmAddress","inputs":[{"name":"","type":"bytes32","internalType":"bytes32"}]}],"bytecode":{"object":"0x60e0346100eb57601f61145238819003918201601f19168301916001600160401b038311848410176100f0578084926060946040528339810103126100eb5761004781610106565b90610060604061005960208401610106565b9201610106565b6001600160a01b03928316608052821660a052600080546001600160a01b031916331790551660c052604051611337908161011b82396080518181816101a40152610d81015260a0518181816102b4015281816103ea01528181610588015261091f015260c0518181816101e901528181610456015281816104b30152818161052c015261078a0152f35b600080fd5b634e487b7160e01b600052604160045260246000fd5b51906001600160a01b03821682036100eb5756fe6080604052600436101561001257600080fd5b6000803560e01c8063529dca32146102e357806384acd1bb1461029e57806392eefe9b14610218578063c6328a46146101d3578063da25b7251461018e578063dd12d68b146100f9578063f77c4791146100d05763fec825b81461007557600080fd5b346100cd5760403660031901126100cd5761008e611159565b6024356001600160a01b0381811693918490036100c857604092168152600360205220906000526020526020604060002054604051908152f35b600080fd5b80fd5b50346100cd57806003193601126100cd576002546040516001600160a01b039091168152602090f35b50346100cd5760403660031901126100cd5760043561ffff81168091036100c85781546001600160a01b0316330361013d5781526001602052602435604082205580f35b60405162461bcd60e51b8152602060048201526024808201527f4e6f7420616c6c6f77656420746f207365742072656769737465726564207365604482015263373232b960e11b6064820152608490fd5b50346100cd57806003193601126100cd576040517f00000000000000000000000000000000000000000000000000000000000000006001600160a01b03168152602090f35b50346100cd57806003193601126100cd576040517f00000000000000000000000000000000000000000000000000000000000000006001600160a01b03168152602090f35b50346100cd5760203660031901126100cd57610232611159565b600254906001600160a01b03908183166102605716906bffffffffffffffffffffffff60a01b161760025580f35b60405162461bcd60e51b815260206004820152601660248201527510dbdb9d1c9bdb1b195c88185b1c9958591e481cd95d60521b6044820152606490fd5b50346100cd57806003193601126100cd576040517f00000000000000000000000000000000000000000000000000000000000000006001600160a01b03168152602090f35b5060a03660031901126100cd576004356001600160401b038111610f405761030f9036906004016110fb565b602435916001600160401b0383116100cd57366023840112156100cd5782600401359261033b84611142565b9361034960405195866110bf565b80855260051b810160240160208501368211610f575760248301905b82821061105f575050505060643561ffff8116036100cd5782519261038984611142565b9361039760405195866110bf565b8085526103a6601f1991611142565b01825b81811061102a575050815b8151811015610d7a576103e6836103cb8385611192565b516040518093819263a9e1189360e01b83526004830161123c565b03817f00000000000000000000000000000000000000000000000000000000000000006001600160a01b03165afa908115610aaa578491610b27575b506080810151606082015160405163ad66a5f160e01b815261ffff9091166004820152906020826024816001600160a01b037f0000000000000000000000000000000000000000000000000000000000000000165afa918215610995578692610af3575b5003610ab5578360e06104af9201516040518093819263ea63738d60e01b83526004830161123c565b03817f00000000000000000000000000000000000000000000000000000000000000006001600160a01b03165afa908115610aaa5784916109a0575b5030608082015114806108f5575b156108a5576105278461050c8486611192565b516040518093819263c3f511c160e01b83526004830161123c565b0381837f00000000000000000000000000000000000000000000000000000000000000006001600160a01b03165af1801561080f57610864575b5060608101516040808301519051634d4502c960e11b8152909161ffff16906020816004817f00000000000000000000000000000000000000000000000000000000000000006001600160a01b03165afa801561085957879061081a575b61ffff16821415905061076557508060a01c61074d576001600160a01b0316905b60405163313ce56760e01b6020820152600481528060408101106001600160401b036040830111176107395785816040829301604052602081519101855afa503d15610732573d610630816110e0565b9061063e60405192836110bf565b81523d86602083013e5b60208180518101031261072e57602061066191016111a6565b60208201519060ff809116600881116106d8575b5050906001939291604082015192602061ffff606085015116930151926040519461069f8661108e565b85526020850152858060a01b03166040840152606083015260808201526106c68288611192565b526106d18187611192565b50016103b4565b6007190181811161071a576106ed9116611268565b9080828102048214811517156107065702600138610675565b634e487b7160e01b87526011600452602487fd5b634e487b7160e01b88526011600452602488fd5b8580fd5b6060610648565b634e487b7160e01b86526041600452602486fd5b6024906040519063033b960d60e41b82526004820152fd5b604051630ff8f14360e11b8152600481019190915260248101919091526020816044817f00000000000000000000000000000000000000000000000000000000000000006001600160a01b03165afa90811561080f5785916107c9575b50906105e0565b90506020813d602011610807575b816107e4602093836110bf565b8101031261080357516001600160a01b038116810361080357386107c2565b8480fd5b3d91506107d7565b6040513d87823e3d90fd5b506020813d602011610851575b81610834602093836110bf565b8101031261084d5761084861ffff916111c5565b6105bf565b8680fd5b3d9150610827565b6040513d89823e3d90fd5b3d8086833e61087381836110bf565b602082828101031261072e578151906001600160401b03821161084d5761089e9290810191016111f7565b5038610561565b60405162461bcd60e51b815260206004820152602260248201527f546f6b656e20776173206e6f742073656e7420746f2074686973206164647265604482015261737360f01b6064820152608490fd5b5060a0810151604051634d4502c960e11b815261ffff909116906020816004816001600160a01b037f0000000000000000000000000000000000000000000000000000000000000000165afa801561099557869061095a575b61ffff915016146104f9565b506020813d60201161098d575b81610974602093836110bf565b8101031261072e5761098861ffff916111c5565b61094e565b3d9150610967565b6040513d88823e3d90fd5b3d91508185823e6109b182826110bf565b6020818381010312610803578051916001600160401b03831161072e57610100838301828401031261072e5760405192836101008101106001600160401b0361010086011117610a96576101008401604052610a0e8184016111a6565b84528281016020818101519086015260408082015190860152610a33906060016111c5565b6060850152608081840101516080850152610a5260a0828501016111c5565b60a085015282810160c0818101519086015260e00151916001600160401b038311610a9257610a8793908101929101016111f7565b60e0820152386104eb565b8780fd5b634e487b7160e01b87526041600452602487fd5b6040513d86823e3d90fd5b60405162461bcd60e51b81526020600482015260166024820152754e6f74206120546f6b656e204272696467652056414160501b6044820152606490fd5b9091506020813d602011610b1f575b81610b0f602093836110bf565b8101031261072e57519038610486565b3d9150610b02565b3d91508185823e610b3882826110bf565b6020818381010312610803578051906001600160401b03821161072e576101609283838301828401031261084d576040519384818101106001600160401b038287011117610d66578401604052610b908383016111a6565b8452610ba06020848401016111b4565b6020850152610bb36040848401016111b4565b6040850152610bc66060848401016111c5565b60608501528183016080818101519086015260a001516001600160401b0381168103610a925760a085015260c0610c0081858501016111a6565b9085015260e083830101516001600160401b038111610a9257610c2a9082840190858501016111f7565b60e0850152610100610c3f81858501016111b4565b9085015261012083830101516001600160401b038111610a9257818301601f8286860101011215610a9257808484010151610c7981611142565b92610c8760405194856110bf565b818452602084019281860160208460071b838a8a0101010111610d62576020818888010101935b60208460071b838a8a010101018510610cde57505050505061012084015201610140908101519082015238610422565b6080858489010312610d5e576040518060808101106001600160401b03608083011117610d4a57608091818360209301604052875181528288015183820152610d29604089016111a6565b6040820152610d3a606089016111a6565b6060820152815201940193610cae565b634e487b7160e01b8d52604160045260248dfd5b8b80fd5b8a80fd5b634e487b7160e01b88526041600452602488fd5b50909290507f00000000000000000000000000000000000000000000000000000000000000006001600160a01b03163303610fda576001815103610f95576002546001600160a01b0316918215610f5b57608081805181010312610f5757610de4602082016112ed565b90846080604083015192610dfa606082016112ed565b5001516060610e1f6001600160a01b036040610e158961116f565b510151169661116f565b510151956040519063a9059cbb60e01b82526004820152866024820152602081604481868a5af18015610f4c57610f10575b506002546001600160a01b031692833b15610f0c57606490836040519586948593632976e2bb60e11b8552600485015289602485015260448401525af1801561080f57610edd575b5060018060a01b031683526003602052604083209060005260205260406000208054918201809211610ec9575580f35b634e487b7160e01b83526011600452602483fd5b6001600160401b038195929511610ef8576040529238610e99565b634e487b7160e01b82526041600452602482fd5b8280fd5b6020813d602011610f44575b81610f29602093836110bf565b81010312610f0c575180151503610f405738610e51565b5080fd5b3d9150610f1c565b6040513d85823e3d90fd5b8380fd5b60405162461bcd60e51b815260206004820152601260248201527110dbdb9d1c9bdb1b195c881b9bdd081cd95d60721b6044820152606490fd5b60405162461bcd60e51b815260206004820152601960248201527f4578706563746564203120746f6b656e207472616e73666572000000000000006044820152606490fd5b60405162461bcd60e51b815260206004820152602260248201527f4d73672e73656e646572206973206e6f7420576f726d686f6c652052656c617960448201526132b960f11b6064820152608490fd5b6020906040516110398161108e565b8581528583820152856040820152856060820152856080820152828289010152016103a9565b81356001600160401b03811161072e576020916110838392602436918901016110fb565b815201910190610365565b60a081019081106001600160401b038211176110a957604052565b634e487b7160e01b600052604160045260246000fd5b90601f801991011681019081106001600160401b038211176110a957604052565b6001600160401b0381116110a957601f01601f191660200190565b81601f820112156100c857803590611112826110e0565b9261112060405194856110bf565b828452602083830101116100c857816000926020809301838601378301015290565b6001600160401b0381116110a95760051b60200190565b600435906001600160a01b03821682036100c857565b80511561117c5760200190565b634e487b7160e01b600052603260045260246000fd5b805182101561117c5760209160051b010190565b519060ff821682036100c857565b519063ffffffff821682036100c857565b519061ffff821682036100c857565b60005b8381106111e75750506000910152565b81810151838201526020016111d7565b81601f820112156100c857805161120d816110e0565b9261121b60405194856110bf565b818452602082840101116100c85761123991602080850191016111d4565b90565b6040916020825261125c81518092816020860152602086860191016111d4565b601f01601f1916010190565b80156112e757600190602081108216604e82108316176112df578190600a925b8082116112b6575050816000190481116112a0570290565b634e487b7160e01b600052601160045260246000fd5b9092806000190481116112a0578184166112d6575b800292811c90611288565b809202916112cb565b9050600a0a90565b50600190565b51906001600160a01b03821682036100c85756fea264697066735822122000f4d4c6d1325fd266578cb4a11568005a668291c3add69974794fbb0a10a88164736f6c63430008190033","linkReferences":{}},"methodIdentifiers":{"controller()":"f77c4791","receiveWormholeMessages(bytes,bytes[],bytes32,uint16,bytes32)":"529dca32","routerDeposits(address,address)":"fec825b8","setController(address)":"92eefe9b","setRegisteredSender(uint16,bytes32)":"dd12d68b","tokenBridge()":"c6328a46","wormhole()":"84acd1bb","wormholeRelayer()":"da25b725"},"id":52}