{"abi":[{"type":"constructor","inputs":[],"stateMutability":"nonpayable"},{"type":"function","name":"DISPENSE_AMOUNT","inputs":[],"outputs":[{"name":"","type":"uint256","internalType":"uint256"}],"stateMutability":"view"},{"type":"function","name":"allowance","inputs":[{"name":"owner","type":"address","internalType":"address"},{"name":"spender","type":"address","internalType":"address"}],"outputs":[{"name":"","type":"uint256","internalType":"uint256"}],"stateMutability":"view"},{"type":"function","name":"approve","inputs":[{"name":"spender","type":"address","internalType":"address"},{"name":"amount","type":"uint256","internalType":"uint256"}],"outputs":[{"name":"","type":"bool","internalType":"bool"}],"stateMutability":"nonpayable"},{"type":"function","name":"balanceOf","inputs":[{"name":"account","type":"address","internalType":"address"}],"outputs":[{"name":"","type":"uint256","internalType":"uint256"}],"stateMutability":"view"},{"type":"function","name":"decimals","inputs":[],"outputs":[{"name":"","type":"uint8","internalType":"uint8"}],"stateMutability":"view"},{"type":"function","name":"decreaseAllowance","inputs":[{"name":"spender","type":"address","internalType":"address"},{"name":"subtractedValue","type":"uint256","internalType":"uint256"}],"outputs":[{"name":"","type":"bool","internalType":"bool"}],"stateMutability":"nonpayable"},{"type":"function","name":"dispense","inputs":[{"name":"recipient","type":"address","internalType":"address"}],"outputs":[],"stateMutability":"nonpayable"},{"type":"function","name":"increaseAllowance","inputs":[{"name":"spender","type":"address","internalType":"address"},{"name":"addedValue","type":"uint256","internalType":"uint256"}],"outputs":[{"name":"","type":"bool","internalType":"bool"}],"stateMutability":"nonpayable"},{"type":"function","name":"name","inputs":[],"outputs":[{"name":"","type":"string","internalType":"string"}],"stateMutability":"view"},{"type":"function","name":"owner","inputs":[],"outputs":[{"name":"","type":"address","internalType":"address"}],"stateMutability":"view"},{"type":"function","name":"renounceOwnership","inputs":[],"outputs":[],"stateMutability":"nonpayable"},{"type":"function","name":"symbol","inputs":[],"outputs":[{"name":"","type":"string","internalType":"string"}],"stateMutability":"view"},{"type":"function","name":"totalSupply","inputs":[],"outputs":[{"name":"","type":"uint256","internalType":"uint256"}],"stateMutability":"view"},{"type":"function","name":"transfer","inputs":[{"name":"to","type":"address","internalType":"address"},{"name":"amount","type":"uint256","internalType":"uint256"}],"outputs":[{"name":"","type":"bool","internalType":"bool"}],"stateMutability":"nonpayable"},{"type":"function","name":"transferFrom","inputs":[{"name":"from","type":"address","internalType":"address"},{"name":"to","type":"address","internalType":"address"},{"name":"amount","type":"uint256","internalType":"uint256"}],"outputs":[{"name":"","type":"bool","internalType":"bool"}],"stateMutability":"nonpayable"},{"type":"function","name":"transferOwnership","inputs":[{"name":"newOwner","type":"address","internalType":"address"}],"outputs":[],"stateMutability":"nonpayable"},{"type":"event","name":"Approval","inputs":[{"name":"owner","type":"address","indexed":true,"internalType":"address"},{"name":"spender","type":"address","indexed":true,"internalType":"address"},{"name":"value","type":"uint256","indexed":false,"internalType":"uint256"}],"anonymous":false},{"type":"event","name":"OwnershipTransferred","inputs":[{"name":"previousOwner","type":"address","indexed":true,"internalType":"address"},{"name":"newOwner","type":"address","indexed":true,"internalType":"address"}],"anonymous":false},{"type":"event","name":"Transfer","inputs":[{"name":"from","type":"address","indexed":true,"internalType":"address"},{"name":"to","type":"address","indexed":true,"internalType":"address"},{"name":"value","type":"uint256","indexed":false,"internalType":"uint256"}],"anonymous":false}],"bytecode":{"object":"0x60803461033f576040906001600160401b03908083018281118282101761024b578352601381526020917f53696d706c652052657761726420546f6b656e000000000000000000000000008383015283518481018181108382111761024b5785526003908181526229a92760e91b8582015283519083821161024b578254916001958684811c94168015610335575b8885101461031f578190601f948581116102ce575b50889085831160011461026c57600092610261575b505060001982861b1c191690861b1783555b805193841161024b5760049586548681811c91168015610241575b8282101461022c578381116101e6575b508092851160011461017d5750938394918492600095610172575b50501b92600019911b1c19161790555b60058054336001600160a01b0319821681179092559151916001600160a01b03167f8be0079c531659141344cd1fd0a4f28419497f9722a3daafe3b4186f6b6457e0600080a3610bb290816103458239f35b015193503880610110565b92919084601f1981168860005285600020956000905b898383106101cc57505050106101b2575b50505050811b019055610120565b01519060f884600019921b161c19169055388080806101a4565b858701518955909701969485019488935090810190610193565b87600052816000208480880160051c820192848910610223575b0160051c019087905b8281106102175750506100f5565b60008155018790610209565b92508192610200565b602288634e487b7160e01b6000525260246000fd5b90607f16906100e5565b634e487b7160e01b600052604160045260246000fd5b0151905038806100b8565b90889350601f19831691876000528a6000209260005b8c8282106102b857505084116102a0575b505050811b0183556100ca565b015160001983881b60f8161c19169055388080610293565b8385015186558c97909501949384019301610282565b90915085600052886000208580850160051c8201928b8610610316575b918a91869594930160051c01915b8281106103075750506100a3565b600081558594508a91016102f9565b925081926102eb565b634e487b7160e01b600052602260045260246000fd5b93607f169361008e565b600080fdfe6080604081815260048036101561001557600080fd5b600092833560e01c90816306fdde031461074357508063095ea7b31461071957806318160ddd146106fa57806323b872dd14610630578063313ce5671461061457806339509351146105ad5780635f746233146104ca5780636235955e146104a557806370a082311461046e578063715018a6146104115780638da5cb5b146103e857806395d89b41146102c6578063a457c2d71461021f578063a9059cbb146101ee578063dd62ed3e146101a15763f2fde38b146100d357600080fd5b3461019d57602036600319011261019d576100ec610883565b906100f5610b24565b6001600160a01b0391821692831561014b575050600554826bffffffffffffffffffffffff60a01b821617600555167f8be0079c531659141344cd1fd0a4f28419497f9722a3daafe3b4186f6b6457e08380a380f35b906020608492519162461bcd60e51b8352820152602660248201527f4f776e61626c653a206e6577206f776e657220697320746865207a65726f206160448201526564647265737360d01b6064820152fd5b8280fd5b5050346101ea57806003193601126101ea57806020926101bf610883565b6101c761089e565b6001600160a01b0391821683526001865283832091168252845220549051908152f35b5080fd5b5050346101ea57806003193601126101ea5760209061021861020e610883565b60243590336109b6565b5160018152f35b5082346102c357826003193601126102c357610239610883565b918360243592338152600160205281812060018060a01b03861682526020522054908282106102725760208561021885850387336108b4565b608490602086519162461bcd60e51b8352820152602560248201527f45524332303a2064656372656173656420616c6c6f77616e63652062656c6f77604482015264207a65726f60d81b6064820152fd5b80fd5b509190346101ea57816003193601126101ea5780519082845460018160011c90600183169283156103de575b60209384841081146103cb578388529081156103af575060011461035a575b505050829003601f01601f191682019267ffffffffffffffff841183851017610347575082918261034392528261083a565b0390f35b634e487b7160e01b815260418552602490fd5b8787529192508591837f8a35acfbc15ff81a39ae7d344fd709f28e8600b4aa8c65c6b64bfe7fe36bd19b5b83851061039b5750505050830101388080610311565b805488860183015293019284908201610385565b60ff1916878501525050151560051b8401019050388080610311565b634e487b7160e01b895260228a52602489fd5b91607f16916102f2565b5050346101ea57816003193601126101ea5760055490516001600160a01b039091168152602090f35b83346102c357806003193601126102c35761042a610b24565b600580546001600160a01b0319811690915581906001600160a01b03167f8be0079c531659141344cd1fd0a4f28419497f9722a3daafe3b4186f6b6457e08280a380f35b5050346101ea5760203660031901126101ea5760209181906001600160a01b03610496610883565b16815280845220549051908152f35b5050346101ea57816003193601126101ea576020905169021e19e0c9bab24000008152f35b503461019d57602036600319011261019d576104e4610883565b6104ec610b24565b6001600160a01b031691821561056a5760025469021e19e0c9bab240000092838201809211610557575084927fddf252ad1be2c89b69c2b068fc378daa952ba7f163c4a11628f55a4df523b3ef9260209260025585855284835280852082815401905551908152a380f35b634e487b7160e01b865260119052602485fd5b906020606492519162461bcd60e51b8352820152601f60248201527f45524332303a206d696e7420746f20746865207a65726f2061646472657373006044820152fd5b5091346102c357816003193601126102c3576105c7610883565b338252600160209081528383206001600160a01b0383168452905282822054602435810192908310610601576020846102188585336108b4565b634e487b7160e01b815260118552602490fd5b5050346101ea57816003193601126101ea576020905160128152f35b508290346101ea5760603660031901126101ea5761064c610883565b61065461089e565b91846044359460018060a01b03841681526001602052818120338252602052205490600019820361068e575b6020866102188787876109b6565b8482106106b757509183916106ac60209695610218950333836108b4565b919394819350610680565b606490602087519162461bcd60e51b8352820152601d60248201527f45524332303a20696e73756666696369656e7420616c6c6f77616e63650000006044820152fd5b5050346101ea57816003193601126101ea576020906002549051908152f35b5050346101ea57806003193601126101ea57602090610218610739610883565b60243590336108b4565b849150833461019d578260031936011261019d578260035460018160011c9060018316928315610830575b60209384841081146103cb5783885290811561081457506001146107be57505050829003601f01601f191682019267ffffffffffffffff841183851017610347575082918261034392528261083a565b600387529192508591837fc2575a0e9e593c00f959f8c92f12db2869c3395a3b0502d05e2516446f71f85b5b8385106108005750505050830101858080610311565b8054888601830152930192849082016107ea565b60ff1916878501525050151560051b8401019050858080610311565b91607f169161076e565b6020808252825181830181905290939260005b82811061086f57505060409293506000838284010152601f8019910116010190565b81810186015184820160400152850161084d565b600435906001600160a01b038216820361089957565b600080fd5b602435906001600160a01b038216820361089957565b6001600160a01b0390811691821561096557169182156109155760207f8c5be1e5ebec7d5bd14f71427d1e84f3dd0314c0f7b2291e5b200ac8c7c3b925918360005260018252604060002085600052825280604060002055604051908152a3565b60405162461bcd60e51b815260206004820152602260248201527f45524332303a20617070726f766520746f20746865207a65726f206164647265604482015261737360f01b6064820152608490fd5b60405162461bcd60e51b8152602060048201526024808201527f45524332303a20617070726f76652066726f6d20746865207a65726f206164646044820152637265737360e01b6064820152608490fd5b6001600160a01b03908116918215610ad15716918215610a8057600082815280602052604081205491808310610a2c57604082827fddf252ad1be2c89b69c2b068fc378daa952ba7f163c4a11628f55a4df523b3ef958760209652828652038282205586815220818154019055604051908152a3565b60405162461bcd60e51b815260206004820152602660248201527f45524332303a207472616e7366657220616d6f756e7420657863656564732062604482015265616c616e636560d01b6064820152608490fd5b60405162461bcd60e51b815260206004820152602360248201527f45524332303a207472616e7366657220746f20746865207a65726f206164647260448201526265737360e81b6064820152608490fd5b60405162461bcd60e51b815260206004820152602560248201527f45524332303a207472616e736665722066726f6d20746865207a65726f206164604482015264647265737360d81b6064820152608490fd5b6005546001600160a01b03163303610b3857565b606460405162461bcd60e51b815260206004820152602060248201527f4f776e61626c653a2063616c6c6572206973206e6f7420746865206f776e65726044820152fdfea2646970667358221220e4ee805423827be27108ab52edda7ff65b8360277f78dc41d8ffbb9cc961daf364736f6c63430008190033","linkReferences":{}},"methodIdentifiers":{"DISPENSE_AMOUNT()":"6235955e","allowance(address,address)":"dd62ed3e","approve(address,uint256)":"095ea7b3","balanceOf(address)":"70a08231","decimals()":"313ce567","decreaseAllowance(address,uint256)":"a457c2d7","dispense(address)":"5f746233","increaseAllowance(address,uint256)":"39509351","name()":"06fdde03","owner()":"8da5cb5b","renounceOwnership()":"715018a6","symbol()":"95d89b41","totalSupply()":"18160ddd","transfer(address,uint256)":"a9059cbb","transferFrom(address,address,uint256)":"23b872dd","transferOwnership(address)":"f2fde38b"},"id":58}