{"abi":[{"type":"constructor","inputs":[],"stateMutability":"nonpayable"},{"type":"function","name":"DISPENSE_AMOUNT","inputs":[],"outputs":[{"name":"","type":"uint256","internalType":"uint256"}],"stateMutability":"view"},{"type":"function","name":"allowance","inputs":[{"name":"owner","type":"address","internalType":"address"},{"name":"spender","type":"address","internalType":"address"}],"outputs":[{"name":"","type":"uint256","internalType":"uint256"}],"stateMutability":"view"},{"type":"function","name":"approve","inputs":[{"name":"spender","type":"address","internalType":"address"},{"name":"amount","type":"uint256","internalType":"uint256"}],"outputs":[{"name":"","type":"bool","internalType":"bool"}],"stateMutability":"nonpayable"},{"type":"function","name":"balanceOf","inputs":[{"name":"account","type":"address","internalType":"address"}],"outputs":[{"name":"","type":"uint256","internalType":"uint256"}],"stateMutability":"view"},{"type":"function","name":"decimals","inputs":[],"outputs":[{"name":"","type":"uint8","internalType":"uint8"}],"stateMutability":"view"},{"type":"function","name":"decreaseAllowance","inputs":[{"name":"spender","type":"address","internalType":"address"},{"name":"subtractedValue","type":"uint256","internalType":"uint256"}],"outputs":[{"name":"","type":"bool","internalType":"bool"}],"stateMutability":"nonpayable"},{"type":"function","name":"dispense","inputs":[{"name":"recipient","type":"address","internalType":"address"}],"outputs":[],"stateMutability":"nonpayable"},{"type":"function","name":"increaseAllowance","inputs":[{"name":"spender","type":"address","internalType":"address"},{"name":"addedValue","type":"uint256","internalType":"uint256"}],"outputs":[{"name":"","type":"bool","internalType":"bool"}],"stateMutability":"nonpayable"},{"type":"function","name":"name","inputs":[],"outputs":[{"name":"","type":"string","internalType":"string"}],"stateMutability":"view"},{"type":"function","name":"owner","inputs":[],"outputs":[{"name":"","type":"address","internalType":"address"}],"stateMutability":"view"},{"type":"function","name":"renounceOwnership","inputs":[],"outputs":[],"stateMutability":"nonpayable"},{"type":"function","name":"symbol","inputs":[],"outputs":[{"name":"","type":"string","internalType":"string"}],"stateMutability":"view"},{"type":"function","name":"totalSupply","inputs":[],"outputs":[{"name":"","type":"uint256","internalType":"uint256"}],"stateMutability":"view"},{"type":"function","name":"transfer","inputs":[{"name":"to","type":"address","internalType":"address"},{"name":"amount","type":"uint256","internalType":"uint256"}],"outputs":[{"name":"","type":"bool","internalType":"bool"}],"stateMutability":"nonpayable"},{"type":"function","name":"transferFrom","inputs":[{"name":"from","type":"address","internalType":"address"},{"name":"to","type":"address","internalType":"address"},{"name":"amount","type":"uint256","internalType":"uint256"}],"outputs":[{"name":"","type":"bool","internalType":"bool"}],"stateMutability":"nonpayable"},{"type":"function","name":"transferOwnership","inputs":[{"name":"newOwner","type":"address","internalType":"address"}],"outputs":[],"stateMutability":"nonpayable"},{"type":"event","name":"Approval","inputs":[{"name":"owner","type":"address","indexed":true,"internalType":"address"},{"name":"spender","type":"address","indexed":true,"internalType":"address"},{"name":"value","type":"uint256","indexed":false,"internalType":"uint256"}],"anonymous":false},{"type":"event","name":"OwnershipTransferred","inputs":[{"name":"previousOwner","type":"address","indexed":true,"internalType":"address"},{"name":"newOwner","type":"address","indexed":true,"internalType":"address"}],"anonymous":false},{"type":"event","name":"Transfer","inputs":[{"name":"from","type":"address","indexed":true,"internalType":"address"},{"name":"to","type":"address","indexed":true,"internalType":"address"},{"name":"value","type":"uint256","indexed":false,"internalType":"uint256"}],"anonymous":false}],"bytecode":{"object":"0x608060405234801561001057600080fd5b506040518060400160405280601381526020017f53696d706c652052657761726420546f6b656e000000000000000000000000008152506040518060400160405280600381526020016229a92760e91b81525081600390816100729190610194565b50600461007f8282610194565b50505061009861009361009d60201b60201c565b6100a1565b610253565b3390565b600580546001600160a01b038381166001600160a01b0319831681179093556040519116919082907f8be0079c531659141344cd1fd0a4f28419497f9722a3daafe3b4186f6b6457e090600090a35050565b634e487b7160e01b600052604160045260246000fd5b600181811c9082168061011d57607f821691505b60208210810361013d57634e487b7160e01b600052602260045260246000fd5b50919050565b601f82111561018f576000816000526020600020601f850160051c8101602086101561016c5750805b601f850160051c820191505b8181101561018b57828155600101610178565b5050505b505050565b81516001600160401b038111156101ad576101ad6100f3565b6101c1816101bb8454610109565b84610143565b602080601f8311600181146101f657600084156101de5750858301515b600019600386901b1c1916600185901b17855561018b565b600085815260208120601f198616915b8281101561022557888601518255948401946001909101908401610206565b50858210156102435787850151600019600388901b60f8161c191681555b5050505050600190811b01905550565b610b2e806102626000396000f3fe608060405234801561001057600080fd5b50600436106101005760003560e01c806370a0823111610097578063a457c2d711610066578063a457c2d71461020b578063a9059cbb1461021e578063dd62ed3e14610231578063f2fde38b1461024457600080fd5b806370a08231146101b7578063715018a6146101e05780638da5cb5b146101e857806395d89b411461020357600080fd5b8063313ce567116100d3578063313ce5671461016f578063395093511461017e5780635f746233146101915780636235955e146101a657600080fd5b806306fdde0314610105578063095ea7b31461012357806318160ddd1461014657806323b872dd1461015c575b600080fd5b61010d610257565b60405161011a9190610977565b60405180910390f35b6101366101313660046109e2565b6102e9565b604051901515815260200161011a565b61014e610303565b60405190815260200161011a565b61013661016a366004610a0c565b610313565b6040516012815260200161011a565b61013661018c3660046109e2565b610337565b6101a461019f366004610a48565b610359565b005b61014e69021e19e0c9bab240000081565b61014e6101c5366004610a48565b6001600160a01b031660009081526020819052604090205490565b6101a4610378565b6005546040516001600160a01b03909116815260200161011a565b61010d61038c565b6101366102193660046109e2565b61039b565b61013661022c3660046109e2565b61041b565b61014e61023f366004610a6a565b610429565b6101a4610252366004610a48565b610454565b60606003805461026690610a9d565b80601f016020809104026020016040519081016040528092919081815260200182805461029290610a9d565b80156102df5780601f106102b4576101008083540402835291602001916102df565b820191906000526020600020905b8154815290600101906020018083116102c257829003601f168201915b5050505050905090565b6000336102f78185856104ca565b60019150505b92915050565b600061030e60025490565b905090565b6000336103218582856105ee565b61032c858585610668565b506001949350505050565b6000336102f781858561034a8383610429565b6103549190610ad7565b6104ca565b61036161080c565b6103758169021e19e0c9bab2400000610866565b50565b61038061080c565b61038a6000610925565b565b60606004805461026690610a9d565b600033816103a98286610429565b90508381101561040e5760405162461bcd60e51b815260206004820152602560248201527f45524332303a2064656372656173656420616c6c6f77616e63652062656c6f77604482015264207a65726f60d81b60648201526084015b60405180910390fd5b61032c82868684036104ca565b6000336102f7818585610668565b6001600160a01b03918216600090815260016020908152604080832093909416825291909152205490565b61045c61080c565b6001600160a01b0381166104c15760405162461bcd60e51b815260206004820152602660248201527f4f776e61626c653a206e6577206f776e657220697320746865207a65726f206160448201526564647265737360d01b6064820152608401610405565b61037581610925565b6001600160a01b03831661052c5760405162461bcd60e51b8152602060048201526024808201527f45524332303a20617070726f76652066726f6d20746865207a65726f206164646044820152637265737360e01b6064820152608401610405565b6001600160a01b03821661058d5760405162461bcd60e51b815260206004820152602260248201527f45524332303a20617070726f766520746f20746865207a65726f206164647265604482015261737360f01b6064820152608401610405565b6001600160a01b0383811660008181526001602090815260408083209487168084529482529182902085905590518481527f8c5be1e5ebec7d5bd14f71427d1e84f3dd0314c0f7b2291e5b200ac8c7c3b925910160405180910390a3505050565b60006105fa8484610429565b9050600019811461066257818110156106555760405162461bcd60e51b815260206004820152601d60248201527f45524332303a20696e73756666696369656e7420616c6c6f77616e63650000006044820152606401610405565b61066284848484036104ca565b50505050565b6001600160a01b0383166106cc5760405162461bcd60e51b815260206004820152602560248201527f45524332303a207472616e736665722066726f6d20746865207a65726f206164604482015264647265737360d81b6064820152608401610405565b6001600160a01b03821661072e5760405162461bcd60e51b815260206004820152602360248201527f45524332303a207472616e7366657220746f20746865207a65726f206164647260448201526265737360e81b6064820152608401610405565b6001600160a01b038316600090815260208190526040902054818110156107a65760405162461bcd60e51b815260206004820152602660248201527f45524332303a207472616e7366657220616d6f756e7420657863656564732062604482015265616c616e636560d01b6064820152608401610405565b6001600160a01b03848116600081815260208181526040808320878703905593871680835291849020805487019055925185815290927fddf252ad1be2c89b69c2b068fc378daa952ba7f163c4a11628f55a4df523b3ef910160405180910390a3610662565b6005546001600160a01b0316331461038a5760405162461bcd60e51b815260206004820181905260248201527f4f776e61626c653a2063616c6c6572206973206e6f7420746865206f776e65726044820152606401610405565b6001600160a01b0382166108bc5760405162461bcd60e51b815260206004820152601f60248201527f45524332303a206d696e7420746f20746865207a65726f2061646472657373006044820152606401610405565b80600260008282546108ce9190610ad7565b90915550506001600160a01b038216600081815260208181526040808320805486019055518481527fddf252ad1be2c89b69c2b068fc378daa952ba7f163c4a11628f55a4df523b3ef910160405180910390a35050565b600580546001600160a01b038381166001600160a01b0319831681179093556040519116919082907f8be0079c531659141344cd1fd0a4f28419497f9722a3daafe3b4186f6b6457e090600090a35050565b60006020808352835180602085015260005b818110156109a557858101830151858201604001528201610989565b506000604082860101526040601f19601f8301168501019250505092915050565b80356001600160a01b03811681146109dd57600080fd5b919050565b600080604083850312156109f557600080fd5b6109fe836109c6565b946020939093013593505050565b600080600060608486031215610a2157600080fd5b610a2a846109c6565b9250610a38602085016109c6565b9150604084013590509250925092565b600060208284031215610a5a57600080fd5b610a63826109c6565b9392505050565b60008060408385031215610a7d57600080fd5b610a86836109c6565b9150610a94602084016109c6565b90509250929050565b600181811c90821680610ab157607f821691505b602082108103610ad157634e487b7160e01b600052602260045260246000fd5b50919050565b808201808211156102fd57634e487b7160e01b600052601160045260246000fdfea2646970667358221220adcd616e96b9c32a47d3146644c42324016a4b7ddf5f49c40444005105df9c7a64736f6c63430008190033","linkReferences":{}},"methodIdentifiers":{"DISPENSE_AMOUNT()":"6235955e","allowance(address,address)":"dd62ed3e","approve(address,uint256)":"095ea7b3","balanceOf(address)":"70a08231","decimals()":"313ce567","decreaseAllowance(address,uint256)":"a457c2d7","dispense(address)":"5f746233","increaseAllowance(address,uint256)":"39509351","name()":"06fdde03","owner()":"8da5cb5b","renounceOwnership()":"715018a6","symbol()":"95d89b41","totalSupply()":"18160ddd","transfer(address,uint256)":"a9059cbb","transferFrom(address,address,uint256)":"23b872dd","transferOwnership(address)":"f2fde38b"},"id":26}