{"abi":[{"type":"constructor","inputs":[{"name":"_wormhole","type":"address","internalType":"address"},{"name":"_wormholeSimulator","type":"address","internalType":"address"},{"name":"_circleSimulator","type":"address","internalType":"address"}],"stateMutability":"nonpayable"},{"type":"receive","stateMutability":"payable"},{"type":"function","name":"getPastDeliveryVAA","inputs":[{"name":"chainId","type":"uint16","internalType":"uint16"},{"name":"deliveryVAASequence","type":"uint64","internalType":"uint64"}],"outputs":[{"name":"","type":"bytes","internalType":"bytes"}],"stateMutability":"view"},{"type":"function","name":"getPastEncodedSignedVaas","inputs":[{"name":"chainId","type":"uint16","internalType":"uint16"},{"name":"deliveryVAASequence","type":"uint64","internalType":"uint64"}],"outputs":[{"name":"","type":"bytes[]","internalType":"bytes[]"}],"stateMutability":"view"},{"type":"function","name":"registerChain","inputs":[{"name":"chainId","type":"uint16","internalType":"uint16"},{"name":"wormholeRelayerContractAddress","type":"address","internalType":"address"},{"name":"fork","type":"uint256","internalType":"uint256"}],"outputs":[],"stateMutability":"nonpayable"},{"type":"function","name":"relay","inputs":[{"name":"logs","type":"tuple[]","internalType":"struct VmSafe.Log[]","components":[{"name":"topics","type":"bytes32[]","internalType":"bytes32[]"},{"name":"data","type":"bytes","internalType":"bytes"},{"name":"emitter","type":"address","internalType":"address"}]}],"outputs":[],"stateMutability":"nonpayable"},{"type":"function","name":"relay","inputs":[{"name":"logs","type":"tuple[]","internalType":"struct VmSafe.Log[]","components":[{"name":"topics","type":"bytes32[]","internalType":"bytes32[]"},{"name":"data","type":"bytes","internalType":"bytes"},{"name":"emitter","type":"address","internalType":"address"}]},{"name":"debugLogging","type":"bool","internalType":"bool"}],"outputs":[],"stateMutability":"nonpayable"},{"type":"function","name":"relay","inputs":[{"name":"deliveryOverrides","type":"bytes","internalType":"bytes"}],"outputs":[],"stateMutability":"nonpayable"},{"type":"function","name":"relay","inputs":[{"name":"logs","type":"tuple[]","internalType":"struct VmSafe.Log[]","components":[{"name":"topics","type":"bytes32[]","internalType":"bytes32[]"},{"name":"data","type":"bytes","internalType":"bytes"},{"name":"emitter","type":"address","internalType":"address"}]},{"name":"deliveryOverrides","type":"bytes","internalType":"bytes"},{"name":"debugLogging","type":"bool","internalType":"bool"}],"outputs":[],"stateMutability":"nonpayable"},{"type":"function","name":"relay","inputs":[],"outputs":[],"stateMutability":"nonpayable"},{"type":"function","name":"vm","inputs":[],"outputs":[{"name":"","type":"address","internalType":"contract Vm"}],"stateMutability":"view"},{"type":"error","name":"InvalidPayloadId","inputs":[{"name":"parsed","type":"uint8","internalType":"uint8"},{"name":"expected","type":"uint8","internalType":"uint8"}]},{"type":"error","name":"InvalidPayloadLength","inputs":[{"name":"received","type":"uint256","internalType":"uint256"},{"name":"expected","type":"uint256","internalType":"uint256"}]},{"type":"error","name":"NotAnEvmAddress","inputs":[{"name":"","type":"bytes32","internalType":"bytes32"}]},{"type":"error","name":"OutOfBounds","inputs":[{"name":"offset","type":"uint256","internalType":"uint256"},{"name":"length","type":"uint256","internalType":"uint256"}]},{"type":"error","name":"UnexpectedExecutionInfoVersion","inputs":[{"name":"version","type":"uint8","internalType":"uint8"},{"name":"expectedVersion","type":"uint8","internalType":"uint8"}]}],"bytecode":{"object":"0x608060405234801561001057600080fd5b5060405161322d38038061322d83398101604081905261002f9161011d565b6000805462010000600160b01b031916620100006001600160a01b0386811682029290921792839055600180546001600160a01b0319908116878516179091556002805490911685841617905560408051634d4502c960e11b815290519190930490911691639a8a05929160048083019260209291908290030181865afa1580156100be573d6000803e3d6000fd5b505050506040513d601f19601f820116820180604052508101906100e29190610160565b6000805461ffff191661ffff929092169190911790555061018b915050565b80516001600160a01b038116811461011857600080fd5b919050565b60008060006060848603121561013257600080fd5b61013b84610101565b925061014960208501610101565b915061015760408501610101565b90509250925092565b60006020828403121561017257600080fd5b815161ffff8116811461018457600080fd5b9392505050565b6130938061019a6000396000f3fe60806040526004361061008a5760003560e01c806380cb624d1161005957806380cb624d146101915780638f0d6f17146101be578063900d59d4146101de578063b59589d1146101fe578063e95feb841461021357600080fd5b80631f87d3df1461009657806323f2fa36146100b85780633a7684631461012c578063789b24171461017157600080fd5b3661009157005b600080fd5b3480156100a257600080fd5b506100b66100b136600461241f565b610240565b005b3480156100c457600080fd5b506100b66100d3366004612463565b61ffff909216600081815260036020908152604080832080546001600160a01b039096166001600160a01b0319909616959095179094556004815283822085905593815260059093529120805461ffff19169091179055565b34801561013857600080fd5b50610154737109709ecfa91a80626ff3989d68f67f5b1dd12d81565b6040516001600160a01b0390911681526020015b60405180910390f35b34801561017d57600080fd5b506100b661018c3660046124b2565b61025e565b34801561019d57600080fd5b506101b16101ac366004612518565b61027c565b6040516101689190612596565b3480156101ca57600080fd5b506100b66101d93660046125b0565b61034b565b3480156101ea57600080fd5b506100b66101f93660046125e4565b6103e3565b34801561020a57600080fd5b506100b6610e25565b34801561021f57600080fd5b5061023361022e366004612518565b610ebb565b60405161016891906126b5565b61025b816040518060200160405280600081525060006103e3565b50565b6102788260405180602001604052806000815250836103e3565b5050565b60606007600084846040516020016102959291906126c8565b60405160208183030381529060405280519060200120815260200190815260200160002080546102c4906126f2565b80601f01602080910402602001604051908101604052809291908181526020018280546102f0906126f2565b801561033d5780601f106103125761010080835404028352916020019161033d565b820191906000526020600020905b81548152906001019060200180831161032057829003601f168201915b505050505090505b92915050565b61025b7f885cb69240a935d632d79c317109709ecfa91a80626ff3989d68f67f5b1dd12d60001c60601b60601c6001600160a01b031663191553a46040518163ffffffff1660e01b81526004016000604051808303816000875af11580156103b7573d6000803e3d6000fd5b505050506040513d6000823e601f3d908101601f191682016040526103df9190810190612776565b8260005b6000600560007f885cb69240a935d632d79c317109709ecfa91a80626ff3989d68f67f5b1dd12d60001c60601b60601c6001600160a01b0316632f103f226040518163ffffffff1660e01b8152600401602060405180830381865afa158015610450573d6000803e3d6000fd5b505050506040513d601f19601f8201168201806040525081019061047491906128e2565b8152602080820192909252604090810160009081205461ffff16808252600390935220549091506001600160a01b031661050b5760405162461bcd60e51b815260206004820152602d60248201527f436861696e206e6f7420726567697374657265642077697468204d6f636b4f6660448201526c3331b430b4b72932b630bcb2b960991b60648201526084015b60405180910390fd5b6000805461ffff16815260046020819052604091829020549151639ebf682760e01b8152737109709ecfa91a80626ff3989d68f67f5b1dd12d92639ebf682792610559920190815260200190565b600060405180830381600087803b15801561057357600080fd5b505af1158015610587573d6000803e3d6000fd5b50506001546040516355a58d7d60e01b8152600093506001600160a01b0390911691506355a58d7d906105be908890600401612972565b600060405180830381865afa1580156105db573d6000803e3d6000fd5b505050506040513d6000823e601f3d908101601f191682016040526106039190810190612776565b9050821561062e5761062e60405180606001604052806022815260200161303c602291398251610fd0565b600081516001600160401b0381111561064957610649612158565b60405190808252806020026020018201604052801561067c57816020015b60608152602001906001900390816106675790505b50905060005b81518110156107445760015483516001600160a01b039091169063b34cd860908590849081106106b4576106b46129d6565b6020026020010151866040518363ffffffff1660e01b81526004016106da9291906129ec565b600060405180830381865afa1580156106f7573d6000803e3d6000fd5b505050506040513d6000823e601f3d908101601f1916820160405261071f9190810190612a12565b828281518110610731576107316129d6565b6020908102919091010152600101610682565b506002546040805163c199121960e01b815290516000926001600160a01b03169163c19912199160048083019260209291908290030181865afa15801561078f573d6000803e3d6000fd5b505050506040513d601f19601f820116820180604052508101906107b39190612a46565b6040805160008082526020820190925291925090816107fc565b604080516060808201835280825260208201526000918101919091528152602001906001900390816107cd5790505b509050811561087d576002546040516343a1b0d560e11b81526001600160a01b039091169063874361aa90610835908b90600401612972565b600060405180830381865afa158015610852573d6000803e3d6000fd5b505050506040513d6000823e601f3d908101601f1916820160405261087a9190810190612776565b90505b85156108c3576108c36040518060400160405280602081526020017f466f756e6420257320636972636c65206d6573736167657320696e206c6f67738152508251610fd0565b600081516001600160401b038111156108de576108de612158565b60405190808252806020026020018201604052801561092357816020015b60408051808201909152606080825260208201528152602001906001900390816108fc5790505b50905060005b82518110156109e95760025483516001600160a01b039091169063167c52229085908490811061095b5761095b6129d6565b60200260200101516040518263ffffffff1660e01b815260040161097f9190612a63565b600060405180830381865afa15801561099c573d6000803e3d6000fd5b505050506040513d6000823e601f3d908101601f191682016040526109c49190810190612a76565b8282815181106109d6576109d66129d6565b6020908102919091010152600101610929565b50600084516001600160401b03811115610a0557610a05612158565b604051908082528060200260200182016040528015610a8b57816020015b60408051610160810182526000808252602080830182905292820181905260608083018290526080830182905260a0830182905260c0830182905260e0830181905261010083018290526101208301526101408201528252600019909201910181610a235790505b50905060005b85518161ffff161015610b7557600060029054906101000a90046001600160a01b03166001600160a01b031663a9e11893878361ffff1681518110610ad857610ad86129d6565b60200260200101516040518263ffffffff1660e01b8152600401610afc9190612596565b600060405180830381865afa158015610b19573d6000803e3d6000fd5b505050506040513d6000823e601f3d908101601f19168201604052610b419190810190612bf8565b828261ffff1681518110610b5757610b576129d6565b60200260200101819052508080610b6d90612d32565b915050610a91565b5060005b85518161ffff161015610d98578815610bfd57610bfd60405180606001604052806027815260200161301560279139838361ffff1681518110610bbe57610bbe6129d6565b60200260200101516060015161ffff16610bf8858561ffff1681518110610be757610be76129d6565b602002602001015160800151611015565b611041565b61ffff88166000908152600360205260409020546001600160a01b0316828261ffff1681518110610c3057610c306129d6565b602002602001015160800151148015610c7157508761ffff16828261ffff1681518110610c5f57610c5f6129d6565b60200260200101516060015161ffff16145b15610d86578815610cbf57610cbf6040518060400160405280601881526020017f52656c6179696e672056414120746f20636861696e20257300000000000000008152508961ffff16610fd0565b6000805461ffff16815260046020819052604091829020549151639ebf682760e01b8152737109709ecfa91a80626ff3989d68f67f5b1dd12d92639ebf682792610d0d920190815260200190565b600060405180830381600087803b158015610d2757600080fd5b505af1158015610d3b573d6000803e3d6000fd5b50505050610d86868261ffff1681518110610d5857610d586129d6565b60200260200101518785858561ffff1681518110610d7857610d786129d6565b60200260200101518e61108d565b80610d9081612d32565b915050610b79565b5061ffff8716600090815260046020819052604091829020549151639ebf682760e01b8152737109709ecfa91a80626ff3989d68f67f5b1dd12d92639ebf682792610de7920190815260200190565b600060405180830381600087803b158015610e0157600080fd5b505af1158015610e15573d6000803e3d6000fd5b5050505050505050505050505050565b610eb97f885cb69240a935d632d79c317109709ecfa91a80626ff3989d68f67f5b1dd12d60001c60601b60601c6001600160a01b031663191553a46040518163ffffffff1660e01b81526004016000604051808303816000875af1158015610e91573d6000803e3d6000fd5b505050506040513d6000823e601f3d908101601f191682016040526100b19190810190612776565b565b6060600660008484604051602001610ed49291906126c8565b604051602081830303815290604052805190602001208152602001908152602001600020805480602002602001604051908101604052809291908181526020016000905b82821015610fc4578382906000526020600020018054610f37906126f2565b80601f0160208091040260200160405190810160405280929190818152602001828054610f63906126f2565b8015610fb05780601f10610f8557610100808354040283529160200191610fb0565b820191906000526020600020905b815481529060010190602001808311610f9357829003601f168201915b505050505081526020019060010190610f18565b50505050905092915050565b6102788282604051602401610fe6929190612d53565b60408051601f198184030181529190526020810180516001600160e01b03166309710a9d60e41b179052611805565b600060a082901c1561103d5760405163033b960d60e41b815260048101839052602401610502565b5090565b61108883838360405160240161105993929190612d75565b60408051601f198184030181529190526020810180516001600160e01b031663e3849f7960e01b179052611805565b505050565b60e082015160009061109f908261180e565b5090508060ff166001036115b75760006110bc8460e00151611821565b90506000816101600151516001600160401b038111156110de576110de612158565b60405190808252806020026020018201604052801561111157816020015b60608152602001906001900390816110fc5790505b50905060005b826101600151518160ff16101561136f578261016001518160ff1681518110611142576111426129d6565b60200260200101516000015160ff1660010361122257600061118a8461016001518360ff1681518110611177576111776129d6565b602002602001015160200151600061199e565b50905060005b89518160ff16101561121b576111c2828b8360ff16815181106111b5576111b56129d6565b60200260200101516119ff565b1561120957898160ff16815181106111dc576111dc6129d6565b6020026020010151848460ff16815181106111f9576111f96129d6565b602002602001018190525061121b565b8061121381612da8565b915050611190565b505061135d565b8261016001518160ff168151811061123c5761123c6129d6565b60200260200101516000015160ff1660020361135d5760006112848461016001518360ff1681518110611271576112716129d6565b6020026020010151602001516000611ad0565b50905060005b88518160ff16101561135a576112bc828a8360ff16815181106112af576112af6129d6565b6020026020010151611b23565b1561134857888160ff16815181106112d6576112d66129d6565b602002602001015160000151898260ff16815181106112f7576112f76129d6565b602002602001015160200151604051602001611314929190612dc7565b604051602081830303815290604052848460ff1681518110611338576113386129d6565b602002602001018190525061135a565b8061135281612da8565b91505061128a565b50505b8061136781612da8565b915050611117565b50600061137f8360a00151611b83565b9050600083608001518460600151836020015184600001516113a19190612dec565b6113ab9190612e03565b6113b59190612e03565b845161ffff8116600090815260046020819052604091829020549151639ebf682760e01b81529081019190915291925090737109709ecfa91a80626ff3989d68f67f5b1dd12d90639ebf682790602401600060405180830381600087803b15801561141f57600080fd5b505af1158015611433573d6000803e3d6000fd5b505060405163c88a5e6d60e01b815230600482015260248101859052737109709ecfa91a80626ff3989d68f67f5b1dd12d925063c88a5e6d9150604401600060405180830381600087803b15801561148a57600080fd5b505af115801561149e573d6000803e3d6000fd5b5050604080516320d797a960e11b81529051737109709ecfa91a80626ff3989d68f67f5b1dd12d93506341af2f529250600480830192600092919082900301818387803b1580156114ee57600080fd5b505af1158015611502573d6000803e3d6000fd5b50505050600360008261ffff1661ffff16815260200190815260200160002060009054906101000a90046001600160a01b03166001600160a01b031663a60eb4c883868e308c6040518663ffffffff1660e01b81526004016115679493929190612e16565b6000604051808303818588803b15801561158057600080fd5b505af1158015611594573d6000803e3d6000fd5b50505050506115ad88606001518960a00151868e611bea565b50505050506117fd565b8060ff166002036117fd5760006115d18460e00151611c51565b90506000604051806060016040528083604001518152602001836060015181526020018661014001518152509050600061160e8360600151611b83565b9050600083604001518260200151836000015161162b9190612dec565b6116359190612e03565b8451805160409091015191925060009161164f919061027c565b855180516040909101519192506000916116699190610ebb565b6000805460405163a9e1189360e01b815292935090916116f5916201000090046001600160a01b03169063a9e11893906116a7908790600401612596565b600060405180830381865afa1580156116c4573d6000803e3d6000fd5b505050506040513d6000823e601f3d908101601f191682016040526116ec9190810190612bf8565b60e00151611821565b5161ffff8116600090815260046020819052604091829020549151639ebf682760e01b815290810191909152909150737109709ecfa91a80626ff3989d68f67f5b1dd12d90639ebf682790602401600060405180830381600087803b15801561175d57600080fd5b505af1158015611771573d6000803e3d6000fd5b5050505061ffff81166000908152600360205260409020546001600160a01b031663a60eb4c8858486306117a48c611d34565b6040518663ffffffff1660e01b81526004016117c39493929190612e16565b6000604051808303818588803b1580156117dc57600080fd5b505af11580156117f0573d6000803e3d6000fd5b5050505050505050505050505b505050505050565b61025b81611d78565b60018183018101519082015b9250929050565b604080516101808101825260008082526020820181905260609282018390528282018190526080820181905260a0820183905260c0820181905260e082018190526101008201819052610120820181905261014082015261016081019190915260006118908360006001611d99565b90506000806118a88584600291810182015192910190565b61ffff909116855292506118bc8584611de5565b602086019190915292506118d08584611e0b565b60408681019290925286810160208101519083015191909201945090925090506118fa8584611e0b565b60a0860191909152600286820181015161ffff1660c08701520192506119208584611de5565b60e086019190915292506119348584611de5565b61010086019190915292506119498584611de5565b610120860191909152925061195e8584611de5565b61014086019190915292506119738584611e47565b610160860191909152606085018390526080850182905292506119968584611f09565b505050919050565b6040805160608101825260008082526020820181905291810191909152600282840181015161ffff16825282016119d58482611de5565b602084019190915260089481018501516001600160401b0316604084015291949390910192915050565b6000805460405163a9e1189360e01b815282916201000090046001600160a01b03169063a9e1189390611a36908690600401612596565b600060405180830381865afa158015611a53573d6000803e3d6000fd5b505050506040513d6000823e601f3d908101601f19168201604052611a7b9190810190612bf8565b9050806060015161ffff16846000015161ffff16148015611aa3575080608001518460200151145b8015611ac857508060a001516001600160401b031684604001516001600160401b0316145b949350505050565b6040805180820190915260008082526020820152600482840181015163ffffffff908116835290830190611b089085908390611f3716565b6001600160401b039091166020840152919491935090915050565b80516000908190611b3590600c611f45565b508351909150600090611b49906004611f6d565b50905084602001516001600160401b0316826001600160401b0316148015611b7a5750845163ffffffff8281169116145b95945050505050565b6040805180820190915260008082526020820152600082806020019051810190611bad9190612e69565b60208501528352905060ff811615611be45760405163c1f4bdd960e01b815260ff8216600482015260006024820152604401610502565b50919050565b60008484604051602001611bff9291906126c8565b60408051601f198184030181529181528151602092830120600081815260068452919091208551919350611c38929091908601906120a3565b5060008181526007602052604090206117fd8382612ee6565b6040805161012081018252600060c0820181815260e0830182905261010083018290528252602082018190529181018290526060808201526080810182905260a0810182905290611ca483826002611d99565b90506000611cb484836001611d99565b9150611cc0848361199e565b908452848101600281015161ffff166020860152602290810151910192509050611cea8483611e0b565b60608501919091529150611cfe8483611de5565b60808501919091529150611d128483611de5565b60a0850191909152604084018290529150611d2d8483611f09565b5050919050565b606060018260000151611d4a8460200151611f83565b8460400151604051602001611d629493929190612fa5565b6040516020818303038152906040529050919050565b80516a636f6e736f6c652e6c6f67602083016000808483855afa5050505050565b600080611da6858561180e565b9250905060ff80821690841614611ddd57604051633ce5fedf60e11b815260ff808316600483015284166024820152604401610502565b509392505050565b600080600080611dfe8686602091810182015192910190565b9097909650945050505050565b6060600080611e238585600491810182015192910190565b92509050611e3b858363ffffffff80851690611f9916565b90969095509350505050565b6060600080611e56858561180e565b9250905060ff81166001600160401b03811115611e7557611e75612158565b604051908082528060200260200182016040528015611ebb57816020015b604080518082019091526000815260606020820152815260200190600190039081611e935790505b50925060005b8160ff16811015611f0057611ed6868461200e565b858381518110611ee857611ee86129d6565b60209081029190910101919091529250600101611ec1565b50509250929050565b8082511461027857815160405163061bc83560e51b8152600481019190915260248101829052604401610502565b600891810182015192910190565b600080611f5b8484600891810182015192910190565b8551919350915061181a908290612078565b600080611f5b8484600491810182015192910190565b6060815182604051602001611d62929190612fe2565b6060600082600003611fbc57505060408051600081526020810190915282612006565b5050604051828201601f831680611fd1575060205b80830184810186838901015b81831015611ff5578051835260209283019201611fdd565b5050848452601f01601f1916604052505b935093915050565b604080518082019091526000815260606020820152600061202f848461180e565b60ff9091168084529091506000190161205d5761204e8482602a611f99565b6020840191909152905061181a565b6120678482611e0b565b602084019190915290509250929050565b8082111561027857604051633d71388b60e21b81526004810183905260248101829052604401610502565b8280548282559060005260206000209081019282156120e9579160200282015b828111156120e957825182906120d99082612ee6565b50916020019190600101906120c3565b5061103d9291505b8082111561103d576000612105828261210e565b506001016120f1565b50805461211a906126f2565b6000825580601f1061212a575050565b601f01602090049060005260206000209081019061025b91905b8082111561103d5760008155600101612144565b634e487b7160e01b600052604160045260246000fd5b604051606081016001600160401b038111828210171561219057612190612158565b60405290565b604051608081016001600160401b038111828210171561219057612190612158565b60405161016081016001600160401b038111828210171561219057612190612158565b604051601f8201601f191681016001600160401b038111828210171561220357612203612158565b604052919050565b60006001600160401b0382111561222457612224612158565b5060051b60200190565b60006001600160401b0382111561224757612247612158565b50601f01601f191660200190565b600082601f83011261226657600080fd5b81356122796122748261222e565b6121db565b81815284602083860101111561228e57600080fd5b816020850160208301376000918101602001919091529392505050565b6001600160a01b038116811461025b57600080fd5b80356122cb816122ab565b919050565b600082601f8301126122e157600080fd5b813560206122f16122748361220b565b82815260059290921b8401810191818101908684111561231057600080fd5b8286015b848110156124145780356001600160401b038082111561233357600080fd5b908801906060828b03601f1901121561234c5760008081fd5b61235461216e565b86830135828111156123665760008081fd5b8301603f81018c136123785760008081fd5b87810135604061238a6122748361220b565b82815260059290921b83018101918a8101908f8411156123aa5760008081fd5b938201935b838510156123c85784358252938b0193908b01906123af565b855250858101359250848311156123e157600091508182fd5b6123ef8e8b85890101612255565b8a8501526123ff606087016122c0565b90840152505085525050918301918301612314565b509695505050505050565b60006020828403121561243157600080fd5b81356001600160401b0381111561244757600080fd5b611ac8848285016122d0565b61ffff8116811461025b57600080fd5b60008060006060848603121561247857600080fd5b833561248381612453565b92506020840135612493816122ab565b929592945050506040919091013590565b801515811461025b57600080fd5b600080604083850312156124c557600080fd5b82356001600160401b038111156124db57600080fd5b6124e7858286016122d0565b92505060208301356124f8816124a4565b809150509250929050565b6001600160401b038116811461025b57600080fd5b6000806040838503121561252b57600080fd5b823561253681612453565b915060208301356124f881612503565b60005b83811015612561578181015183820152602001612549565b50506000910152565b60008151808452612582816020860160208601612546565b601f01601f19169290920160200192915050565b6020815260006125a9602083018461256a565b9392505050565b6000602082840312156125c257600080fd5b81356001600160401b038111156125d857600080fd5b611ac884828501612255565b6000806000606084860312156125f957600080fd5b83356001600160401b038082111561261057600080fd5b61261c878388016122d0565b9450602086013591508082111561263257600080fd5b5061263f86828701612255565b9250506040840135612650816124a4565b809150509250925092565b60008282518085526020808601955060208260051b8401016020860160005b848110156126a857601f1986840301895261269683835161256a565b9884019892509083019060010161267a565b5090979650505050505050565b6020815260006125a9602083018461265b565b60f09290921b6001600160f01b031916825260c01b6001600160c01b0319166002820152600a0190565b600181811c9082168061270657607f821691505b602082108103611be457634e487b7160e01b600052602260045260246000fd5b600082601f83011261273757600080fd5b81516127456122748261222e565b81815284602083860101111561275a57600080fd5b611ac8826020830160208701612546565b80516122cb816122ab565b6000602080838503121561278957600080fd5b82516001600160401b03808211156127a057600080fd5b818501915085601f8301126127b457600080fd5b81516127c26122748261220b565b81815260059190911b830184019084810190888311156127e157600080fd5b8585015b838110156128d5578051858111156127fc57600080fd5b86016060818c03601f1901121561281257600080fd5b61281a61216e565b888201518781111561282b57600080fd5b8201603f81018d1361283c57600080fd5b8981015161284c6122748261220b565b81815260059190911b8201604001908b8101908f83111561286c57600080fd5b6040840193505b8284101561288c5783518252928c0192908c0190612873565b84525050506040820151878111156128a357600080fd5b6128b18d8b83860101612726565b8a830152506128c26060830161276b565b60408201528452509186019186016127e5565b5098975050505050505050565b6000602082840312156128f457600080fd5b5051919050565b805160608084528151908401819052600091602091908201906080860190845b818110156129375783518352928401929184019160010161291b565b5050602085015192508581036020870152612952818461256a565b6040958601516001600160a01b0316969095019590955250919392505050565b600060208083016020845280855180835260408601915060408160051b87010192506020870160005b828110156129c957603f198886030184526129b78583516128fb565b9450928501929085019060010161299b565b5092979650505050505050565b634e487b7160e01b600052603260045260246000fd5b6040815260006129ff60408301856128fb565b905061ffff831660208301529392505050565b600060208284031215612a2457600080fd5b81516001600160401b03811115612a3a57600080fd5b611ac884828501612726565b600060208284031215612a5857600080fd5b81516125a9816124a4565b6020815260006125a960208301846128fb565b600060208284031215612a8857600080fd5b81516001600160401b0380821115612a9f57600080fd5b9083019060408286031215612ab357600080fd5b604051604081018181108382111715612ace57612ace612158565b604052825182811115612ae057600080fd5b612aec87828601612726565b825250602083015182811115612b0157600080fd5b612b0d87828601612726565b60208301525095945050505050565b805160ff811681146122cb57600080fd5b805163ffffffff811681146122cb57600080fd5b80516122cb81612453565b80516122cb81612503565b600082601f830112612b6857600080fd5b81516020612b786122748361220b565b82815260079290921b84018101918181019086841115612b9757600080fd5b8286015b848110156124145760808189031215612bb45760008081fd5b612bbc612196565b8151815284820151858201526040612bd5818401612b1c565b908201526060612be6838201612b1c565b90820152835291830191608001612b9b565b600060208284031215612c0a57600080fd5b81516001600160401b0380821115612c2157600080fd5b908301906101608286031215612c3657600080fd5b612c3e6121b8565b612c4783612b1c565b8152612c5560208401612b2d565b6020820152612c6660408401612b2d565b6040820152612c7760608401612b41565b606082015260808301516080820152612c9260a08401612b4c565b60a0820152612ca360c08401612b1c565b60c082015260e083015182811115612cba57600080fd5b612cc687828601612726565b60e083015250610100612cda818501612b2d565b908201526101208381015183811115612cf257600080fd5b612cfe88828701612b57565b91830191909152506101409283015192810192909252509392505050565b634e487b7160e01b600052601160045260246000fd5b600061ffff808316818103612d4957612d49612d1c565b6001019392505050565b604081526000612d66604083018561256a565b90508260208301529392505050565b606081526000612d88606083018661256a565b6020830194909452506001600160a01b0391909116604090910152919050565b600060ff821660ff8103612dbe57612dbe612d1c565b60010192915050565b604081526000612dda604083018561256a565b8281036020840152611b7a818561256a565b808202811582820484141761034557610345612d1c565b8082018082111561034557610345612d1c565b608081526000612e29608083018761265b565b8281036020840152612e3b818761256a565b6001600160a01b038616604085015283810360608501529050612e5e818561256a565b979650505050505050565b600080600060608486031215612e7e57600080fd5b612e8784612b1c565b925060208401519150604084015190509250925092565b601f821115611088576000816000526020600020601f850160051c81016020861015612ec75750805b601f850160051c820191505b818110156117fd57828155600101612ed3565b81516001600160401b03811115612eff57612eff612158565b612f1381612f0d84546126f2565b84612e9e565b602080601f831160018114612f485760008415612f305750858301515b600019600386901b1c1916600185901b1785556117fd565b600085815260208120601f198616915b82811015612f7757888601518255948401946001909101908401612f58565b5085821015612f955787850151600019600388901b60f8161c191681555b5050505050600190811b01905550565b60ff60f81b8560f81b16815283600182015260008351612fcc816021850160208801612546565b6021920191820192909252604101949350505050565b63ffffffff60e01b8360e01b16815260008251613006816004850160208701612546565b91909101600401939250505056fe466f756e64205641412066726f6d20636861696e20257320656d69747465642066726f6d202573466f756e6420257320776f726d686f6c65206d6573736167657320696e206c6f6773a2646970667358221220db1a1e52d713004f69f425bc8b321fd2d23485ddcc729b130ca7bcb53389f99464736f6c63430008190033","linkReferences":{}},"methodIdentifiers":{"getPastDeliveryVAA(uint16,uint64)":"80cb624d","getPastEncodedSignedVaas(uint16,uint64)":"e95feb84","registerChain(uint16,address,uint256)":"23f2fa36","relay((bytes32[],bytes,address)[])":"1f87d3df","relay((bytes32[],bytes,address)[],bool)":"789b2417","relay((bytes32[],bytes,address)[],bytes,bool)":"900d59d4","relay()":"b59589d1","relay(bytes)":"8f0d6f17","vm()":"3a768463"},"id":49}