{"abi":[{"type":"constructor","inputs":[{"name":"_wormhole","type":"address","internalType":"address"},{"name":"_wormholeSimulator","type":"address","internalType":"address"},{"name":"_circleSimulator","type":"address","internalType":"address"}],"stateMutability":"nonpayable"},{"type":"receive","stateMutability":"payable"},{"type":"function","name":"getPastDeliveryVAA","inputs":[{"name":"chainId","type":"uint16","internalType":"uint16"},{"name":"deliveryVAASequence","type":"uint64","internalType":"uint64"}],"outputs":[{"name":"","type":"bytes","internalType":"bytes"}],"stateMutability":"view"},{"type":"function","name":"getPastEncodedSignedVaas","inputs":[{"name":"chainId","type":"uint16","internalType":"uint16"},{"name":"deliveryVAASequence","type":"uint64","internalType":"uint64"}],"outputs":[{"name":"","type":"bytes[]","internalType":"bytes[]"}],"stateMutability":"view"},{"type":"function","name":"registerChain","inputs":[{"name":"chainId","type":"uint16","internalType":"uint16"},{"name":"wormholeRelayerContractAddress","type":"address","internalType":"address"},{"name":"fork","type":"uint256","internalType":"uint256"}],"outputs":[],"stateMutability":"nonpayable"},{"type":"function","name":"relay","inputs":[{"name":"logs","type":"tuple[]","internalType":"struct VmSafe.Log[]","components":[{"name":"topics","type":"bytes32[]","internalType":"bytes32[]"},{"name":"data","type":"bytes","internalType":"bytes"},{"name":"emitter","type":"address","internalType":"address"}]}],"outputs":[],"stateMutability":"nonpayable"},{"type":"function","name":"relay","inputs":[{"name":"logs","type":"tuple[]","internalType":"struct VmSafe.Log[]","components":[{"name":"topics","type":"bytes32[]","internalType":"bytes32[]"},{"name":"data","type":"bytes","internalType":"bytes"},{"name":"emitter","type":"address","internalType":"address"}]},{"name":"debugLogging","type":"bool","internalType":"bool"}],"outputs":[],"stateMutability":"nonpayable"},{"type":"function","name":"relay","inputs":[{"name":"deliveryOverrides","type":"bytes","internalType":"bytes"}],"outputs":[],"stateMutability":"nonpayable"},{"type":"function","name":"relay","inputs":[{"name":"logs","type":"tuple[]","internalType":"struct VmSafe.Log[]","components":[{"name":"topics","type":"bytes32[]","internalType":"bytes32[]"},{"name":"data","type":"bytes","internalType":"bytes"},{"name":"emitter","type":"address","internalType":"address"}]},{"name":"deliveryOverrides","type":"bytes","internalType":"bytes"},{"name":"debugLogging","type":"bool","internalType":"bool"}],"outputs":[],"stateMutability":"nonpayable"},{"type":"function","name":"relay","inputs":[],"outputs":[],"stateMutability":"nonpayable"},{"type":"function","name":"vm","inputs":[],"outputs":[{"name":"","type":"address","internalType":"contract Vm"}],"stateMutability":"view"},{"type":"error","name":"InvalidPayloadId","inputs":[{"name":"parsed","type":"uint8","internalType":"uint8"},{"name":"expected","type":"uint8","internalType":"uint8"}]},{"type":"error","name":"InvalidPayloadLength","inputs":[{"name":"received","type":"uint256","internalType":"uint256"},{"name":"expected","type":"uint256","internalType":"uint256"}]},{"type":"error","name":"NotAnEvmAddress","inputs":[{"name":"","type":"bytes32","internalType":"bytes32"}]},{"type":"error","name":"OutOfBounds","inputs":[{"name":"offset","type":"uint256","internalType":"uint256"},{"name":"length","type":"uint256","internalType":"uint256"}]},{"type":"error","name":"UnexpectedExecutionInfoVersion","inputs":[{"name":"version","type":"uint8","internalType":"uint8"},{"name":"expectedVersion","type":"uint8","internalType":"uint8"}]}],"bytecode":{"object":"0x608080604052346101415760608161608c803803809161001f8285610146565b833981010312610141576100328161017f565b61004a60406100436020850161017f565b930161017f565b6000805462010000600160b01b03198116601094851b62010000600160b01b0316908117808455600180546001600160a01b03199081166001600160a01b03998a16179091556002805490911695881695909517909455604051634d4502c960e11b815292959194909360209284926004928492911c165afa80156101365784906100f3575b61ffff9150169160018060b01b03191617179055604051615ef890816101948239f35b506020813d60201161012e575b8161010d60209383610146565b8101031261012a575161ffff8116810361012a5761ffff906100d0565b8380fd5b3d9150610100565b6040513d86823e3d90fd5b600080fd5b601f909101601f19168101906001600160401b0382119082101761016957604052565b634e487b7160e01b600052604160045260246000fd5b51906001600160a01b03821682036101415756fe60e0604052600436101561001b575b361561001957600080fd5b005b60003560e01c80631f87d3df14612a2a57806323f2fa36146129a35780633a7684631461297a578063789b24171461292557806380cb624d146128f75780638f0d6f17146117a4578063900d59d414611744578063b59589d1146100ba5763e95feb840361000e57346100b5576100b161009d61009736613da4565b906157f7565b604051918291602083526020830190613e1d565b0390f35b600080fd5b346100b55760003660031901126100b55760405163064554e960e21b815260008160048183600080516020615ea38339815191525af190811561169057600091611729575b506040519061010d82613bb6565b60008083526040516317881f9160e11b8152602081600481600080516020615ea38339815191525afa908115611690576000916116f7575b50600052600560205261ffff6040600020541680600052600360205260018060a01b03604060002054161561169c5761ffff600054166000526004602052604060002054600080516020615ea38339815191523b156100b55760405190639ebf682760e01b8252600482015260008160248183600080516020615ea38339815191525af180156116905761167c575b506001546040516355a58d7d60e01b81526001600160a01b039091169083818061020188600483016141b4565b0381855afa9081156115b65784908192611660575b50611610575b6102268151614218565b95845b87518110156102f25780866102416102649386614262565b516040518094819263059a66c360e51b835260406004840152604483019061414c565b8960248301520381885afa80156102e757879061029c575b6001925061028a828b614262565b52610295818a614262565b5001610229565b50903d8088833e6102ad8183613bd1565b8101906020818303126102e3578051906001600160401b0382116102df57916102da916001949301613fba565b61027c565b8880fd5b8780fd5b6040513d89823e3d90fd5b60025460405163c199121960e01b815286918a9189916001600160a01b031690868c602083600481875afa9283156116055790859182946115c1575b5060405161033b81613bb6565b82815293611554575b5061150f575b81519561035687613bf2565b966103646040519889613bd1565b808852610373601f1991613bf2565b01855b8181106114eb575050845b83518110156104955780866103996103bc9387614262565b5160405180948192630b3e291160e11b835260206004840152602483019061414c565b0381895afa80156102e75787906103ee575b600192506103dc828b614262565b526103e7818a614262565b5001610381565b50903d908188823e6104008282613bd1565b60208183810103126102e3578051916001600160401b0383116102df57604083830182840103126102df576040519261043884613b80565b808301516001600160401b0381116104915761045b908385019083860101613fba565b845260208184010151916001600160401b03831161049157600195949361048793918101920101613fba565b60208201526103ce565b8a80fd5b858883858a8051926104a684613bf2565b936104b46040519586613bd1565b8085526104c3601f1991613bf2565b01865b818110611489575050855492865b835161ffff821610156105905780886104f461ffff610517941687614262565b516040518094819263a9e1189360e01b8352602060048401526024830190613df8565b038160108a901c6001600160a01b03165afa80156105855761055e928a91610563575b5061054961ffff831689614262565b5261055861ffff821688614262565b5061428c565b6104d4565b61057f91503d808c833e6105778183613bd1565b8101906142d4565b8a61053a565b6040513d8b823e3d90fd5b508691928587845b835161ffff821610156114125785611316575b60806105bb61ffff831685614262565b510151878752600360205260408720546001600160a01b031614806112f9575b6105ee575b6105e99061428c565b610598565b959490819492946112b5575b61ffff825416825260046020526040822054600080516020615ea38339815191523b156112b15760405190639ebf682760e01b82526004820152828160248183600080516020615ea38339815191525af180156112a65790839161128e575b505061066961ffff881685614262565b519061067961ffff891687614262565b519060e082015160ff60018201511660018114600014610f665750506106a860e0839a949996989a01516159d4565b906106b861016083015151614218565b9785995b610160840151805160ff8d161015610a035760ff6106df600192828f1690614262565b5151160361085457610709602061070160ff9a9e9a8e16610160880151614262565b510151615c28565b50875460101c6001600160a01b03169c909890885b8b5160ff82161015610842576107638f8b9061073e8f60ff861690614262565b5190604051808095819463a9e1189360e01b8352602060048401526024830190613df8565b03915afa908115610837578b9161081d575b5061ffff8c511661ffff60608301511614908161080b575b816107eb575b506107a6576107a190615937565b61071e565b6107e193989e506107bf919d92949a5060ff168b614262565b516107cd60ff83168d614262565b526107db60ff82168c614262565b50615937565b9996909a946106bc565b9050604060a08d6001600160401b03928391015116920151161438610793565b60208d0151608082015114915061078d565b61083191503d808d833e6105778183613bd1565b38610775565b6040513d8d823e3d90fd5b509b909298506107e191969c50615937565b949a909699600260ff61086e818416610160880151614262565b51511614610880575b6107e190615937565b999a96919793949060ff8b166101608501519061089c91614262565b51602001519b604051809d6108b082613b80565b600082526020820160009052600481015163ffffffff168252600c01516001600160401b03169060200152875b8a5160ff8216908110156109ef578e6108f6828e614262565b5180519061090960148301519251615e4e565b519061091a60088301519251615e78565b6001600160401b038060208501511691161491826109da575b5050610948575061094390615937565b6108dd565b8b959a9e506109969150806109a8939e93602061097c6107e197989c9b9f6109b69561097391614262565b5151938a614262565b510151604051948593604060208601526060850190613df8565b838103601f1901604085015290613df8565b03601f198101835282613bd1565b6109c360ff83168d614262565b526109d160ff82168c614262565b505b9050610877565b5163ffffffff91821691161490508f80610933565b50509a6107e1919296959993989c506109d3565b509391959950979199959961ffff610a4a610a3f610a34610a2760a0860151615967565b60208151910151906158d0565b6060850151906158e3565b6080840151906158e3565b915116808b52600460205260408b2054600080516020615ea38339815191523b15610f625760405190639ebf682760e01b825260048201528b8160248183600080516020615ea38339815191525af18015610f2f57908c91610f4e575b5050600080516020615ea38339815191523b156104915760405163c88a5e6d60e01b8152306004820152602481018390528b8160448183600080516020615ea38339815191525af18015610f2f57908c91610f3a575b5050600080516020615ea38339815191523b15610491576040516320d797a960e11b81528b8160048183600080516020615ea38339815191525af18015610f2f57908c91610f1b575b5052600360205260408a20546001600160a01b0316803b15610491576040516314c1d69960e31b8152918b918391829081610b878f308c8c600486016158f0565b03925af18015610f1057908a91610efc575b50506109a8610bc96001600160401b0360a061ffff60608601511694015116604051928391602083019586613e7a565b51902090818952600660205260408920815191600160401b8311610ee8578154838355808410610e70575b50602001908a5260208a20908a905b838210610d4557505050508752600760205260408720908051906001600160401b038211610d3157610c358354613ea7565b601f8111610cf6575b50602090601f8311600114610c8a579180610c75926105e99695948c92610c7f575b50508160011b916000199060031b1c19161790565b90555b90506105e0565b015190508c80610c60565b90838a5260208a20918a5b601f1985168110610cde57509183916001936105e9979695601f19811610610cc5575b505050811b019055610c78565b015160001960f88460031b161c191690558b8080610cb8565b91926020600181928685015181550194019201610c95565b610d2190848b5260208b20601f850160051c81019160208610610d27575b601f0160051c0190615c97565b8a610c3e565b9091508190610d14565b634e487b7160e01b89526041600452602489fd5b80518051906001600160401b038211610e5c578d90610d648654613ea7565b601f8111610e2c575b50602091601f8411600114610dbf578360019592946020948796610da59492610db45750508160011b916000199060031b1c19161790565b86555b01930191019091610c03565b015190503880610c60565b919086835260208320925b601f1985168110610e14575083602093600196938796938794601f19811610610dfb575b505050811b018655610da8565b015160001960f88460031b161c19169055388080610dee565b91926020600181928685015181550194019201610dca565b610e569087845260208420601f860160051c81019160208710610d2757601f0160051c0190615c97565b38610d6d565b634e487b7160e01b8e52604160045260248efd5b828c5260208c20908482015b8d8284018210610e8e57505050610bf4565b90600191610e9c8254613ea7565b80610eaa575b505001610e7c565b601f8082118514610ec457505050600081555b8e38610ea2565b610ede9084845260208420920160051c8201858301615c97565b6000835555610ebd565b634e487b7160e01b8b52604160045260248bfd5b610f0590613b6d565b6102df57888b610b99565b6040513d8c823e3d90fd5b610f2490613b6d565b610491578a8d610b46565b6040513d8e823e3d90fd5b610f4390613b6d565b610491578a8d610afd565b610f5790613b6d565b610491578a8d610aa7565b8b80fd5b6002919295999a945097959714610f83575b50506105e990610c78565b61102260405191610f9383613b9b565b610f9b615948565b83528960208401528960408401526060808401526040608084018b815260a085018c8152610fda610fd4610fce86615cae565b86615ce3565b85615c5e565b919087528361100183870161ffff60028201511660208b0152602280910151940187615cfe565b949060608a0152848701906020820151905201519052828601520190615d1d565b60608101516101406040830151930151906040519361104085613b20565b84526020840152604083015261106a61105f610a276060840151615967565b6040830151906158e3565b6110a4604061108f845161ffff815116906001600160401b0393849101511690613f86565b935190604061ffff83511692015116906157f7565b895460405163a9e1189360e01b815260206004820152919291908b90829060101c6001600160a01b031681806110dd602482018a613df8565b03915afa9081156108375760e061ffff92611103928e8092611273575b505001516159d4565b5116808b52600460205260408b2054600080516020615ea38339815191523b15610f625760405190639ebf682760e01b825260048201528b8160248183600080516020615ea38339815191525af18015610f2f57908c9161125f575b5052600360205260018060a01b0360408b205416926112056061865160208801519060408251996111c8602483518096602082019e8f9063ffffffff60e01b9060e01b1690526111b88151809260208686019101613dd5565b8101036004810187520185613bd1565b0151604051998a92600160f81b602085015260218401526111f160419451809286860190613dd5565b820190838201520390810188520186613bd1565b833b15610491576040516314c1d69960e31b8152948b9486949093859390928492611235923091600486016158f0565b03925af180156102e75790879115610f785761125090613b6d565b61125b578588610f78565b8580fd5b61126890613b6d565b610491578a8d61115f565b61128792503d8091833e6105778183613bd1565b8f8e6110fa565b61129790613b6d565b6112a2578188610659565b5080fd5b6040513d85823e3d90fd5b8280fd5b6112f4866040516112c581613b80565b601881527f52656c6179696e672056414120746f20636861696e20257300000000000000006020820152615878565b6105fa565b508661ffff606061130c82851687614262565b51015116146105db565b61ffff606061132782841686614262565b51015116608061133b61ffff841686614262565b510151908160a01c6113f95760009182916113e36040519261135c84613b20565b602784527f466f756e64205641412066726f6d20636861696e20257320656d69747465642060208501526666726f6d20257360c81b60408501526040519283916113bf602084019663e3849f7960e01b8852606060248601526084850190613df8565b60448401929092526001600160a01b0316606483015203601f198101835282613bd1565b51906a636f6e736f6c652e6c6f675afa506105ab565b60405163033b960d60e41b815260048101839052602490fd5b8587815260046020526040812054600080516020615ea38339815191523b156112a25760405190639ebf682760e01b82526004820152818160248183600080516020615ea38339815191525af1801561147e5761146b57005b6114758291613b6d565b61147b57005b80fd5b6040513d84823e3d90fd5b60209060409795975161149b81613b51565b898152898382015289604082015260608a818301528a60808301528a60a08301528a60c08301528060e08301528a61010083015261012082015289610140820152828289010152019593956104c6565b6020906040516114fa81613b80565b60608082528382015282828c01015201610376565b61154f825160405161152081613b80565b602081527f466f756e6420257320636972636c65206d6573736167657320696e206c6f67736020820152615878565b61034a565b6040516343a1b0d560e11b81529293508290819061157590600483016141b4565b0381865afa9081156115b657908492918391611594575b509187610344565b6115b091503d8085833e6115a88183613bd1565b810190613ffc565b8761158c565b6040513d86823e3d90fd5b915092506020813d6020116115fd575b816115de60209383613bd1565b810103126115f9575180151581036115f9578490928861032e565b8480fd5b3d91506115d1565b6040513d87823e3d90fd5b61165b815160405161162181613b20565b602281527f466f756e6420257320776f726d686f6c65206d6573736167657320696e206c6f602082015261677360f01b6040820152615878565b61021c565b6116759192503d8084833e6115a88183613bd1565b9087610216565b611687919250613b6d565b600090846101d4565b6040513d6000823e3d90fd5b60405162461bcd60e51b815260206004820152602d60248201527f436861696e206e6f7420726567697374657265642077697468204d6f636b4f6660448201526c3331b430b4b72932b630bcb2b960991b6064820152608490fd5b90506020813d602011611721575b8161171260209383613bd1565b810103126100b5575184610145565b3d9150611705565b61173e91503d806000833e6115a88183613bd1565b816100ff565b346100b55760603660031901126100b5576001600160401b036004358181116100b557611775903690600401613c6b565b906024359081116100b55761178e903690600401613c24565b6044359081151582036100b5576100199261448a565b346100b55760203660031901126100b5576004356001600160401b0381116100b5576117d4903690600401613c24565b60405163064554e960e21b815260008160048183600080516020615ea38339815191525af1908115611690576000916128dc575b506040516317881f9160e11b8152600090602081600481600080516020615ea38339815191525afa908115611690576000916128aa575b50600052600560205261ffff6040600020541680600052600360205260018060a01b03604060002054161561169c5761ffff600054166000526004602052604060002054600080516020615ea38339815191523b156100b55760405190639ebf682760e01b8252600482015260008160248183600080516020615ea38339815191525af1801561169057612896575b506001546040516355a58d7d60e01b81526001600160a01b03909116908381806118fb88600483016141b4565b0381855afa9081156115b6578490819261287a575b50612864575b6119208151614218565b95845b87518110156119b657808661024161193b9386614262565b8960248301520381885afa80156102e7578790611973575b60019250611961828b614262565b5261196c818a614262565b5001611923565b50903d8088833e6119848183613bd1565b8101906020818303126102e3578051906001600160401b0382116102df57916119b1916001949301613fba565b611953565b60025460405163c199121960e01b815286918a9189916001600160a01b031690868c602083600481875afa928315611605579085918294612824575b506040516119ff81613bb6565b828152936127ca575b506127b4575b815195611a1a87613bf2565b96611a286040519889613bd1565b808852611a37601f1991613bf2565b01855b818110612790575050845b8351811015611b32578086610399611a5d9387614262565b0381895afa80156102e7578790611a8f575b60019250611a7d828b614262565b52611a88818a614262565b5001611a45565b50903d908188823e611aa18282613bd1565b60208183810103126102e3578051916001600160401b0383116102df57604083830182840103126102df5760405192611ad984613b80565b808301516001600160401b03811161049157611afc908385019083860101613fba565b845260208184010151916001600160401b038311610491576001959493611b2893918101920101613fba565b6020820152611a6f565b858883858a805192611b4384613bf2565b93611b516040519586613bd1565b808552611b60601f1991613bf2565b01865b81811061272e575050855492865b835161ffff82161015611bc75780886104f461ffff611b91941687614262565b038160108a901c6001600160a01b03165afa801561058557611bc2928a91610563575061054961ffff831689614262565b611b71565b508691928587845b835161ffff8216101561141257856126d2575b6080611bf261ffff831685614262565b510151878752600360205260408720546001600160a01b031614806126b5575b611c25575b611c209061428c565b611bcf565b959490819492946126a0575b61ffff825416825260046020526040822054600080516020615ea38339815191523b156112b15760405190639ebf682760e01b82526004820152828160248183600080516020615ea38339815191525af180156112a65790839161268c575b5050611ca061ffff881685614262565b5190611cb061ffff891687614262565b519060e082015160ff60018201511660018114600014612467575050611cdf60e0839a949996989a01516159d4565b90611cef61016083015151614218565b9785995b610160840151805160ff8d161015611f9f5760ff611d16600192828f1690614262565b51511603611e3357611d38602061070160ff9a9e9a8e16610160880151614262565b50875460101c6001600160a01b03169c909890885b8b5160ff82161015611e2157611d6d8f8b9061073e8f60ff861690614262565b03915afa908115610837578b91611e07575b5061ffff8c511661ffff606083015116149081611df5575b8c82611dd5575b5050611db257611dad90615937565b611d4d565b611dcb93989e506107bf919d92949a5060ff168b614262565b9996909a94611cf3565b6001600160401b0380929350604060a0920151169201511614388c611d9e565b60208d01516080820151149150611d97565b611e1b91503d808d833e6105778183613bd1565b38611d7f565b509b90929850611dcb91969c50615937565b949a909699600260ff611e4d818416610160880151614262565b51511614611e5f575b611dcb90615937565b999a96919793949060ff8b1661016085015190611e7b91614262565b51602001519b604051809d611e8f82613b80565b600082526020820160009052600481015163ffffffff168252600c01516001600160401b03169060200152875b8a5160ff821690811015611f8b578e611ed5828e614262565b51805190611ee860148301519251615e4e565b5190611ef960088301519251615e78565b6001600160401b03806020850151169116149182611f76575b5050611f275750611f2290615937565b611ebc565b8b959a9e506109969150806109a8939e93602061097c611dcb97989c9b9f611f529561097391614262565b611f5f60ff83168d614262565b52611f6d60ff82168c614262565b505b9050611e56565b5163ffffffff91821691161490508f80611f12565b50509a611dcb919296959993989c50611f6f565b509391959950979199959961ffff611fc3610a3f610a34610a2760a0860151615967565b915116808b52600460205260408b2054600080516020615ea38339815191523b15610f625760405190639ebf682760e01b825260048201528b8160248183600080516020615ea38339815191525af18015610f2f57908c91612453575b5050600080516020615ea38339815191523b156104915760405163c88a5e6d60e01b8152306004820152602481018390528b8160448183600080516020615ea38339815191525af18015610f2f57908c9161243f575b5050600080516020615ea38339815191523b15610491576040516320d797a960e11b81528b8160048183600080516020615ea38339815191525af18015610f2f57908c9161242b575b5052600360205260408a20546001600160a01b0316803b15610491576040516314c1d69960e31b8152918b9183918290816121008f308c8c600486016158f0565b03925af18015610f1057908a91612417575b50506109a86121426001600160401b0360a061ffff60608601511694015116604051928391602083019586613e7a565b51902090818952600660205260408920815191600160401b8311610ee857815483835580841061239f575b50602001908a5260208a20908a905b83821061229357505050508752600760205260408720908051906001600160401b038211610d31576121ae8354613ea7565b601f8111612263575b50602090601f83116001146121f75791806121ed92611c209695948c92610c7f5750508160011b916000199060031b1c19161790565b90555b9050611c17565b90838a5260208a20918a5b601f198516811061224b5750918391600193611c20979695601f19811610612232575b505050811b0190556121f0565b015160001960f88460031b161c191690558b8080612225565b91926020600181928685015181550194019201612202565b61228d90848b5260208b20601f850160051c81019160208610610d2757601f0160051c0190615c97565b8a6121b7565b80518051906001600160401b038211610e5c578d906122b28654613ea7565b601f811161236f575b50602091601f84116001146123025783600195929460209487966122f39492610db45750508160011b916000199060031b1c19161790565b86555b0193019101909161217c565b919086835260208320925b601f1985168110612357575083602093600196938796938794601f1981161061233e575b505050811b0186556122f6565b015160001960f88460031b161c19169055388080612331565b9192602060018192868501518155019401920161230d565b6123999087845260208420601f860160051c81019160208710610d2757601f0160051c0190615c97565b386122bb565b828c5260208c20908482015b8d82840182106123bd5750505061216d565b906001916123cb8254613ea7565b806123d9575b5050016123ab565b601f80821185146123f357505050600081555b8e386123d1565b61240d9084845260208420920160051c8201858301615c97565b60008355556123ec565b61242090613b6d565b6102df57888b612112565b61243490613b6d565b610491578a8d6120bf565b61244890613b6d565b610491578a8d612076565b61245c90613b6d565b610491578a8d612020565b6002919295999a945097959714612484575b5050611c20906121f0565b61249460405191610f9383613b9b565b6060810151610140604083015193015190604051936124b285613b20565b8452602084015260408301526124d161105f610a276060840151615967565b61250f6124f383516001600160401b03604061ffff8351169201511690613f86565b92516001600160401b03604061ffff83511692015116906157f7565b895460405163a9e1189360e01b815260206004820152919291908b90829060101c6001600160a01b03168180612548602482018a613df8565b03915afa9081156108375760e061ffff9261256d928e809261127357505001516159d4565b5116808b52600460205260408b2054600080516020615ea38339815191523b15610f625760405190639ebf682760e01b825260048201528b8160248183600080516020615ea38339815191525af18015610f2f57908c91612678575b5052600360205260018060a01b0360408b205416926126226061865160208801519060408251996111c8602483518096602082019e8f9063ffffffff60e01b9060e01b1690526111b88151809260208686019101613dd5565b833b15610491576040516314c1d69960e31b8152948b9486949093859390928492612652923091600486016158f0565b03925af180156102e757908791156124795761266d90613b6d565b61125b578588612479565b61268190613b6d565b610491578a8d6125c9565b61269590613b6d565b6112a2578188611c90565b6126b0866040516112c581613b80565b611c31565b508661ffff60606126c882851687614262565b5101511614611c12565b61ffff60606126e382841686614262565b5101511660806126f761ffff841686614262565b510151908160a01c6113f95760009182916127186040519261135c84613b20565b51906a636f6e736f6c652e6c6f675afa50611be2565b60209060409795975161274081613b51565b898152898382015289604082015260608a818301528a60808301528a60a08301528a60c08301528060e08301528a6101008301526101208201528961014082015282828901015201959395611b63565b60209060405161279f81613b80565b60608082528382015282828c01015201611a3a565b6127c5825160405161152081613b80565b611a0e565b6040516343a1b0d560e11b8152929350829081906127eb90600483016141b4565b0381865afa9081156115b65790849291839161280a575b509187611a08565b61281e91503d8085833e6115a88183613bd1565b87612802565b915092506020813d60201161285c575b8161284160209383613bd1565b810103126115f9575180151581036115f957849092886119f2565b3d9150612834565b612875815160405161162181613b20565b611916565b61288f9192503d8084833e6115a88183613bd1565b9087611910565b6128a1919250613b6d565b600090846118ce565b90506020813d6020116128d4575b816128c560209383613bd1565b810103126100b557518461183f565b3d91506128b8565b6128f191503d806000833e6115a88183613bd1565b82611808565b346100b5576100b161291161290b36613da4565b90613f86565b604051918291602083526020830190613df8565b346100b55760403660031901126100b5576004356001600160401b0381116100b557612955903690600401613c6b565b60243580151581036100b5576040516100199261297182613bb6565b6000825261448a565b346100b55760003660031901126100b5576020604051600080516020615ea38339815191528152f35b346100b55760603660031901126100b55760043561ffff81168091036100b5576024356001600160a01b038116908190036100b557604435908260005260036020526040600020906bffffffffffffffffffffffff60a01b825416179055600460205280604060002055600052600560205260406000209061ffff19825416179055600080f35b346100b55760203660031901126100b5576004356001600160401b0381116100b557612a5a903690600401613c6b565b60405190612a6782613bb6565b60008083526040516317881f9160e11b8152602081600481600080516020615ea38339815191525afa90811561169057600091613aee575b50600052600560205261ffff6040600020541680600052600360205260018060a01b03604060002054161561169c5761ffff600054166000526004602052604060002054600080516020615ea38339815191523b156100b55760405190639ebf682760e01b8252600482015260008160248183600080516020615ea38339815191525af1801561169057613ada575b506001546040516355a58d7d60e01b81526001600160a01b0390911690838180612b5b88600483016141b4565b0381855afa9081156115b65784908192613abe575b50613aa8575b612b808151614218565b95845b8751811015612c16578086610241612b9b9386614262565b8960248301520381885afa80156102e7578790612bd3575b60019250612bc1828b614262565b52612bcc818a614262565b5001612b83565b50903d8088833e612be48183613bd1565b8101906020818303126102e3578051906001600160401b0382116102df5791612c11916001949301613fba565b612bb3565b60025460405163c199121960e01b815286918a9189916001600160a01b031690868c602083600481875afa928315611605579085918294613a68575b50604051612c5f81613bb6565b82815293613a0e575b506139f8575b815195612c7a87613bf2565b96612c886040519889613bd1565b808852612c97601f1991613bf2565b01855b8181106139d4575050845b8351811015612d92578086610399612cbd9387614262565b0381895afa80156102e7578790612cef575b60019250612cdd828b614262565b52612ce8818a614262565b5001612ca5565b50903d908188823e612d018282613bd1565b60208183810103126102e3578051916001600160401b0383116102df57604083830182840103126102df5760405192612d3984613b80565b808301516001600160401b03811161049157612d5c908385019083860101613fba565b845260208184010151916001600160401b038311610491576001959493612d8893918101920101613fba565b6020820152612ccf565b858883858a805192612da384613bf2565b93612db16040519586613bd1565b808552612dc0601f1991613bf2565b01865b818110613972575050855492865b835161ffff82161015612e275780886104f461ffff612df1941687614262565b038160108a901c6001600160a01b03165afa801561058557612e22928a91610563575061054961ffff831689614262565b612dd1565b508691928587845b835161ffff821610156114125785613916575b6080612e5261ffff831685614262565b510151878752600360205260408720546001600160a01b031614806138f9575b612e85575b612e809061428c565b612e2f565b959490819492946138e4575b61ffff825416825260046020526040822054600080516020615ea38339815191523b156112b15760405190639ebf682760e01b82526004820152828160248183600080516020615ea38339815191525af180156112a6579083916138d0575b5050612f0061ffff881685614262565b5190612f1061ffff891687614262565b519060e082015160ff600182015116600181146000146136c7575050612f3f60e0839a949996989a01516159d4565b90612f4f61016083015151614218565b9785995b610160840151805160ff8d1610156131ff5760ff612f76600192828f1690614262565b5151160361309357612f98602061070160ff9a9e9a8e16610160880151614262565b50875460101c6001600160a01b03169c909890885b8b5160ff8216101561308157612fcd8f8b9061073e8f60ff861690614262565b03915afa908115610837578b91613067575b5061ffff8c511661ffff606083015116149081613055575b8c82613035575b50506130125761300d90615937565b612fad565b61302b93989e506107bf919d92949a5060ff168b614262565b9996909a94612f53565b6001600160401b0380929350604060a0920151169201511614388c612ffe565b60208d01516080820151149150612ff7565b61307b91503d808d833e6105778183613bd1565b38612fdf565b509b9092985061302b91969c50615937565b949a909699600260ff6130ad818416610160880151614262565b515116146130bf575b61302b90615937565b999a96919793949060ff8b16610160850151906130db91614262565b51602001519b604051809d6130ef82613b80565b600082526020820160009052600481015163ffffffff168252600c01516001600160401b03169060200152875b8a5160ff8216908110156131eb578e613135828e614262565b5180519061314860148301519251615e4e565b519061315960088301519251615e78565b6001600160401b038060208501511691161491826131d6575b5050613187575061318290615937565b61311c565b8b959a9e506109969150806109a8939e93602061097c61302b97989c9b9f6131b29561097391614262565b6131bf60ff83168d614262565b526131cd60ff82168c614262565b505b90506130b6565b5163ffffffff91821691161490508f80613172565b50509a61302b919296959993989c506131cf565b509391959950979199959961ffff613223610a3f610a34610a2760a0860151615967565b915116808b52600460205260408b2054600080516020615ea38339815191523b15610f625760405190639ebf682760e01b825260048201528b8160248183600080516020615ea38339815191525af18015610f2f57908c916136b3575b5050600080516020615ea38339815191523b156104915760405163c88a5e6d60e01b8152306004820152602481018390528b8160448183600080516020615ea38339815191525af18015610f2f57908c9161369f575b5050600080516020615ea38339815191523b15610491576040516320d797a960e11b81528b8160048183600080516020615ea38339815191525af18015610f2f57908c9161368b575b5052600360205260408a20546001600160a01b0316803b15610491576040516314c1d69960e31b8152918b9183918290816133608f308c8c600486016158f0565b03925af18015610f1057908a91613677575b50506109a86133a26001600160401b0360a061ffff60608601511694015116604051928391602083019586613e7a565b51902090818952600660205260408920815191600160401b8311610ee85781548383558084106135ff575b50602001908a5260208a20908a905b8382106134f357505050508752600760205260408720908051906001600160401b038211610d315761340e8354613ea7565b601f81116134c3575b50602090601f831160011461345757918061344d92612e809695948c92610c7f5750508160011b916000199060031b1c19161790565b90555b9050612e77565b90838a5260208a20918a5b601f19851681106134ab5750918391600193612e80979695601f19811610613492575b505050811b019055613450565b015160001960f88460031b161c191690558b8080613485565b91926020600181928685015181550194019201613462565b6134ed90848b5260208b20601f850160051c81019160208610610d2757601f0160051c0190615c97565b8a613417565b80518051906001600160401b038211610e5c578d906135128654613ea7565b601f81116135cf575b50602091601f84116001146135625783600195929460209487966135539492610db45750508160011b916000199060031b1c19161790565b86555b019301910190916133dc565b919086835260208320925b601f19851681106135b7575083602093600196938796938794601f1981161061359e575b505050811b018655613556565b015160001960f88460031b161c19169055388080613591565b9192602060018192868501518155019401920161356d565b6135f99087845260208420601f860160051c81019160208710610d2757601f0160051c0190615c97565b3861351b565b828c5260208c20908482015b8d828401821061361d575050506133cd565b9060019161362b8254613ea7565b80613639575b50500161360b565b601f808211851461365357505050600081555b8e38613631565b61366d9084845260208420920160051c8201858301615c97565b600083555561364c565b61368090613b6d565b6102df57888b613372565b61369490613b6d565b610491578a8d61331f565b6136a890613b6d565b610491578a8d6132d6565b6136bc90613b6d565b610491578a8d613280565b6002919295999a9450979597146136e4575b5050612e8090613450565b6136f460405191610f9383613b9b565b60608101516101406040830151930151906040519361371285613b20565b84526020840152604083015261373161105f610a276060840151615967565b6137536124f383516001600160401b03604061ffff8351169201511690613f86565b895460405163a9e1189360e01b815260206004820152919291908b90829060101c6001600160a01b0316818061378c602482018a613df8565b03915afa9081156108375760e061ffff926137b1928e809261127357505001516159d4565b5116808b52600460205260408b2054600080516020615ea38339815191523b15610f625760405190639ebf682760e01b825260048201528b8160248183600080516020615ea38339815191525af18015610f2f57908c916138bc575b5052600360205260018060a01b0360408b205416926138666061865160208801519060408251996111c8602483518096602082019e8f9063ffffffff60e01b9060e01b1690526111b88151809260208686019101613dd5565b833b15610491576040516314c1d69960e31b8152948b9486949093859390928492613896923091600486016158f0565b03925af180156102e757908791156136d9576138b190613b6d565b61125b5785886136d9565b6138c590613b6d565b610491578a8d61380d565b6138d990613b6d565b6112a2578188612ef0565b6138f4866040516112c581613b80565b612e91565b508661ffff606061390c82851687614262565b5101511614612e72565b61ffff606061392782841686614262565b51015116608061393b61ffff841686614262565b510151908160a01c6113f957600091829161395c6040519261135c84613b20565b51906a636f6e736f6c652e6c6f675afa50612e42565b60209060409795975161398481613b51565b898152898382015289604082015260608a818301528a60808301528a60a08301528a60c08301528060e08301528a6101008301526101208201528961014082015282828901015201959395612dc3565b6020906040516139e381613b80565b60608082528382015282828c01015201612c9a565b613a09825160405161152081613b80565b612c6e565b6040516343a1b0d560e11b815292935082908190613a2f90600483016141b4565b0381865afa9081156115b657908492918391613a4e575b509187612c68565b613a6291503d8085833e6115a88183613bd1565b87613a46565b915092506020813d602011613aa0575b81613a8560209383613bd1565b810103126115f9575180151581036115f95784909288612c52565b3d9150613a78565b613ab9815160405161162181613b20565b612b76565b613ad39192503d8084833e6115a88183613bd1565b9087612b70565b613ae5919250613b6d565b60009084612b2e565b90506020813d602011613b18575b81613b0960209383613bd1565b810103126100b5575184612a9f565b3d9150613afc565b606081019081106001600160401b03821117613b3b57604052565b634e487b7160e01b600052604160045260246000fd5b61016081019081106001600160401b03821117613b3b57604052565b6001600160401b038111613b3b57604052565b604081019081106001600160401b03821117613b3b57604052565b60c081019081106001600160401b03821117613b3b57604052565b602081019081106001600160401b03821117613b3b57604052565b90601f801991011681019081106001600160401b03821117613b3b57604052565b6001600160401b038111613b3b5760051b60200190565b6001600160401b038111613b3b57601f01601f191660200190565b81601f820112156100b557803590613c3b82613c09565b92613c496040519485613bd1565b828452602083830101116100b557816000926020809301838601378301015290565b81601f820112156100b5576020908035613c8481613bf2565b93604091613c9483519687613bd1565b808652848601918560059260051b860101948186116100b557868101935b868510613cc457505050505050505090565b6001600160401b039085358281116100b557830160609081601f1982880301126100b557885193613cf485613b20565b8b8201358181116100b557820187603f820112156100b557808d809201358c613d1c82613bf2565b93613d2982519586613bd1565b8285528401918c1b830101918a83116100b5578f908e01915b838310613d9357505050508552898201359081116100b557868c613d6892840101613c24565b848c01520135906001600160a01b03821682036100b557828a93928985940152815201940193613cb2565b819083358152019101908f90613d42565b60409060031901126100b55760043561ffff811681036100b557906024356001600160401b03811681036100b55790565b60005b838110613de85750506000910152565b8181015183820152602001613dd8565b90602091613e1181518092818552858086019101613dd5565b601f01601f1916010190565b90808251908181526020809101926020808460051b8301019501936000915b848310613e4c5750505050505090565b9091929394958480613e6a600193601f198682030187528a51613df8565b9801930193019194939290613e3c565b60f09190911b6001600160f01b031916815260c09190911b6001600160c01b0319166002820152600a0190565b90600182811c92168015613ed7575b6020831014613ec157565b634e487b7160e01b600052602260045260246000fd5b91607f1691613eb6565b90604051918260008254613ef481613ea7565b90818452602094600191600181169081600014613f645750600114613f25575b505050613f2392500383613bd1565b565b600090815285812095935091905b818310613f4c575050613f239350820101388080613f14565b85548884018501529485019487945091830191613f33565b92505050613f2394925060ff191682840152151560051b820101388080613f14565b90613f9f6109a891604051928391602083019586613e7a565b5190206000526007602052613fb76040600020613ee1565b90565b81601f820112156100b5578051613fd081613c09565b92613fde6040519485613bd1565b818452602082840101116100b557613fb79160208085019101613dd5565b9060209081838203126100b55782516001600160401b03938482116100b557019080601f830112156100b55781519361403485613bf2565b9460409261404484519788613bd1565b818752858701928660059360051b870101958287116100b557878101945b8786106140755750505050505050505090565b85518381116100b557820190606080601f1984880301126100b55788519261409c84613b20565b8b8101518681116100b557810187603f820112156100b557808d809201518c6140c482613bf2565b936140d182519586613bd1565b8285528401918c1b830101918a83116100b5578f908e01915b83831061413b57505050508452898101518681116100b557878d61411092840101613fba565b848d01520151906001600160a01b03821682036100b557828b93928a85940152815201950194614062565b819083518152019101908f906140ea565b90606081018251606083528051809252608083019160208092019160005b8281106141a0575050505061418d60409160208501518482036020860152613df8565b928101516001600160a01b031691015290565b83518552938101939281019260010161416a565b6020808201906020835283518092526040830192602060408460051b8301019501936000915b8483106141ea5750505050505090565b9091929394958480614208600193603f198682030187528a5161414c565b98019301930191949392906141da565b9061422282613bf2565b61422f6040519182613bd1565b8281528092614240601f1991613bf2565b019060005b82811061425157505050565b806060602080938501015201614245565b80518210156142765760209160051b010190565b634e487b7160e01b600052603260045260246000fd5b61ffff80911690811461429f5760010190565b634e487b7160e01b600052601160045260246000fd5b519060ff821682036100b557565b519063ffffffff821682036100b557565b60209182828203126100b55781516001600160401b03928382116100b5570191610160838303126100b557604080519461430d86613b51565b614316856142b5565b86526143238186016142c3565b818701526143328286016142c3565b82870152606090606086015161ffff811681036100b55760608801526080926080870151608089015260a087015185811681036100b55760a089015261437a60c088016142b5565b60c089015260e08701518581116100b55786614397918901613fba565b60e08901526101006143aa8189016142c3565b9089015261012094858801518181116100b55788019387601f860112156100b5578451926143d784613bf2565b986143e482519a8b613bd1565b848a5285808b019560071b880101968188116100b5578601945b87861061441f57505050505050505050830152610140809101519082015290565b88868303126100b5578251908982019082821087831117614475578a9289928652885181528289015183820152614457868a016142b5565b86820152614466878a016142b5565b878201528152019501946143fe565b60246000634e487b7160e01b81526041600452fd5b9192906080526040516317881f9160e11b8152600060a052602081600481600080516020615ea38339815191525afa9081156146785760a051916157c5575b5060a05152600560205261ffff604060a0512054168060a05152600360205260018060a01b03604060a0512054161561169c5761ffff60a051541660a051526004602052604060a0512054600080516020615ea38339815191523b1561467257604051639ebf682760e01b8152600481019190915260a0518160248183600080516020615ea38339815191525af18015614678576157b6575b5060018060a01b0360015416604051946355a58d7d60e01b865260a051868061458e88600483016141b4565b0381855afa9586156146785760a05196615798575b5080615782575b6145b48651614218565b9360a0515b8551811015614685576145cc8189614262565b51906145f06040519263059a66c360e51b845260406004850152604484019061414c565b866024840152828060a051920381885afa80156146785760a05190614630575b6001925061461e8289614262565b526146298188614262565b50016145b9565b503d8060a051843e6146428184613bd1565b820191602081840312614672578051926001600160401b0384116146725760019361466d9201613fba565b614610565b60a05180fd5b6040513d60a051823e3d90fd5b5060025460405163c199121960e01b81526001600160a01b0390911697509095909392506020846004818a5afa9384156146785760a05194615745575b506040516146cf81613bb6565b60a0518152936156e9575b50806156d3575b8251936146ed85613bf2565b946146fb6040519687613bd1565b80865261470a601f1991613bf2565b0160a0515b8181106156af57505060a0515b845181101561482d5761472f8186614262565b519060405191630b3e291160e11b835260206004840152828061475960a05193602483019061414c565b03818c5afa80156146785760a0519061478d575b6001925061477b8289614262565b526147868188614262565b500161471c565b503d918260a051823e6147a08382613bd1565b6020818481010312614672578051926001600160401b038411614672576040848301828401031261467257604051916147d883613b80565b848101516001600160401b038111614672576147fb908383019087840101613fba565b8352602085820101516001600160401b03811161467257600195614823938301920101613fba565b602082015261476d565b509250939092945081519461484186613bf2565b9561484f6040519788613bd1565b80875261485e601f1991613bf2565b0160a0515b81811061563b57505060a051805494905b845161ffff8216101561491d5761488f61ffff821686614262565b51906040519163a9e1189360e01b83526020600484015282806148b960a051936024830190613df8565b038160108b901c6001600160a01b03165afa8015614678576148fc9260a05191614901575b506148ed61ffff83168b614262565b5261055861ffff82168a614262565b614874565b61491791503d8060a051833e6105778183613bd1565b386148de565b509194909295935060a0515b865161ffff821610156155c25781615566575b608061494c61ffff831687614262565b51015160a0805185905260036020525160409020546001600160a01b03161480615549575b614984575b61497f9061428c565b614929565b819693929596615534575b61ffff60a051541660a051526004602052604060a0512054600080516020615ea38339815191523b1561467257604051639ebf682760e01b8152600481019190915260a0518160248183600080516020615ea38339815191525af180156146785761551e575b50614a0461ffff821685614262565b5196614a1461ffff831687614262565b519260e084015160ff6001820151166001811460001461526a57505093614a4260e08593989a9501516159d4565b91614a5261016084015151614218565b9760a051995b610160850151805160ff8d161015614d535760ff614a7b600192828f1690614262565b51511603614bc657614a9d602061070160ff949e948e16610160890151614262565b5060a051805460101c6001600160a01b03169d919991905b8b5160ff82161015614bb4578e614acf60ff83168e614262565b51604051809263a9e1189360e01b8252602060048301528180614af960a051956024830190613df8565b03915afa9081156146785760a05191614b98575b5061ffff8c511661ffff606083015116149081614b86575b81614b66575b50614b3e57614b3990615937565b614ab5565b6107bf9195999e50614b58939d92969a5060ff168b614262565b999a9591909a969296614a58565b9050604060a08d6001600160401b03928391015116920151161438614b2b565b60208d01516080820151149150614b25565b614bae91503d8060a051833e6105778183613bd1565b38614b0d565b5093979c5093975099614b5890615937565b99600260ff614be481999e949599849b979b16610160890151614262565b51511614614bf6575b614b5890615937565b99916001600160401b03600c6020614c219a9e9b9a60ff8f9b999a9b989698166101608b0151614262565b51015160405160c052614c3560c051613b80565b600060c051526000602060c051015263ffffffff60048201511660c05152015116602060c051015260a0515b8c5160ff821690811015614d3b57614c79818f614262565b51805190614c8c60148301519251615e4e565b5190614c9d60088301519251615e78565b6001600160401b0380602060c0510151169116149081614d25575b50614ccc5750614cc790615937565b614c61565b614b5892949c9150614d018e809b9c9f602061097c85614cf99c9e9d9c610996976109a8959d9b9d614262565b515194614262565b614d0e60ff83168d614262565b52614d1c60ff82168c614262565b505b9050614bed565b905063ffffffff8060c051511691161438614cb8565b50509199614b58909b97989b96959496939193614d1e565b50969593909950999791969961ffff614d78610a3f610a34610a2760a0860151615967565b9151168060a051526004602052604060a0512054600080516020615ea38339815191523b1561467257604051639ebf682760e01b8152600481019190915260a0518160248183600080516020615ea38339815191525af1801561467857615254575b50600080516020615ea38339815191523b156146725760405163c88a5e6d60e01b81523060048201526024810183905260a0518160448183600080516020615ea38339815191525af180156146785761523e575b50600080516020615ea38339815191523b15614672576040516320d797a960e11b815260a0518160048183600080516020615ea38339815191525af1801561467857615228575b5060a05152600360205260018060a01b03604060a05120541690813b156146725760405180926314c1d69960e31b82528160a0519381614ebd608051308c8c600486016158f0565b03925af1801561467857615212575b506109a8614efb6001600160401b0360a061ffff60608601511694015116604051928391602083019586613e7a565b519020908160a051526006602052604060a0512090805190600160401b8211615066578254828455808310615194575b506020019160a05152602060a0512060a051925b82841061507e575050505060a051526007602052604060a05120908051906001600160401b03821161506657614f758354613ea7565b601f8111615032575b506020906001601f841114614fc0579180614fb69261497f96959460a05192610db45750508160011b916000199060031b1c19161790565b90555b9050614976565b908360a05152602060a051209160a0515b601f198516811061501a575091839160019361497f979695601f19811610615001575b505050811b019055614fb9565b015160001960f88460031b161c19169055388080614ff4565b91926020600181928685015181550194019201614fd1565b615060908460a05152602060a05120601f850160051c81019160208610610d2757601f0160051c0190615c97565b38614f7e565b634e487b7160e01b60a051526041600452602460a051fd5b80518051906001600160401b0382116150665761509b8454613ea7565b601f8111615160575b506020906001601f8411146150ed57926150de8360019594602094879660a05192610db45750508160011b916000199060031b1c19161790565b85555b01920193019290614f3f565b908460a05152602060a051209160a0515b601f1985168110615148575083602093600196938796938794601f1981161061512f575b505050811b0185556150e1565b015160001960f88460031b161c19169055388080615122565b919260206001819286850151815501940192016150fe565b61518e908560a05152602060a05120601f850160051c81019160208610610d2757601f0160051c0190615c97565b386150a4565b8360a05152602060a05120908382015b81830181106151b4575050614f2b565b806151c160019254613ea7565b806151ce575b50016151a4565b601f80821184146151e6575050600081555b386151c7565b615204908360a05152602060a05120920160051c8201848301615c97565b6000825560a05190556151e0565b61521b90613b6d565b60a0516146725738614ecc565b61523190613b6d565b60a0516146725738614e75565b61524790613b6d565b60a0516146725738614e2e565b61525d90613b6d565b60a0516146725738614dda565b6002919295939996979a5014615286575b505061497f90614fb9565b6152d96040519161529683613b9b565b61529e615948565b835260a051602084015260a051604084015260608084015260406080840160a051815260a0850160a0518152610fda610fd4610fce86615cae565b6060810151610140604083015193015190604051936152f785613b20565b84526020840152604083015261531661105f610a276060840151615967565b9161533c604061108f845161ffff815116906001600160401b0393849101511690613f86565b60a080515460405163a9e1189360e01b815260206004820152915190829060101c6001600160a01b03168180615375602482018a613df8565b03915afa80156146785760e061539a9161ffff9360a05191615502575b5001516159d4565b51168060a051526004602052604060a0512054600080516020615ea38339815191523b1561467257604051639ebf682760e01b8152600481019190915260a0518160248183600080516020615ea38339815191525af18015614678576154ec575b5060a05152600360205260018060a01b03604060a05120541690615494606184516020860151906040825197615457602483518096602082019c63ffffffff60e01b9060e01b168d526111b88151809260208686019101613dd5565b0151604051978892600160f81b6020850152602184015261548060419451809286860190613dd5565b820190838201520390810186520184613bd1565b813b15614672576154c1946040518096819582946314c1d69960e31b845260a051983091600486016158f0565b03925af18015614678576154d6575b8061527b565b6154df90613b6d565b60a05161467257386154d0565b6154f590613b6d565b60a05161467257386153fb565b61551891503d8060a051833e6105778183613bd1565b38615392565b61552790613b6d565b60a05161467257386149f5565b615544866040516112c581613b80565b61498f565b508261ffff606061555c82851689614262565b5101511614614971565b61ffff606061557782841688614262565b51015116608061558b61ffff841688614262565b510151908160a01c6113f95760009182916155ac6040519261135c84613b20565b51906a636f6e736f6c652e6c6f675afa5061493c565b5050929350505060a051526004602052604060a0512054600080516020615ea38339815191523b1561467257604051639ebf682760e01b8152600481019190915260a0518160248183600080516020615ea38339815191525af18015614678576156295750565b61563290613b6d565b60a05161467257565b60209060409796975161564d81613b51565b60a051815260a0518382015260a0516040820152606060a0518183015260a051608083015260a05160a083015260a05160c08301528060e083015260a05161010083015261012082015260a05161014082015282828b01015201959495614863565b6020906040516156be81613b80565b60608082528382015282828a0101520161470f565b6156e4835160405161152081613b80565b6146e1565b909250604051906343a1b0d560e11b8252818061570c60a05193600483016141b4565b0381895afa801561467857839160a05191615729575b50926146da565b61573f91503d8060a051833e6115a88183613bd1565b38615722565b9093506020813d60201161577a575b8161576160209383613bd1565b81010312614672575180151581036146725792386146c2565b3d9150615754565b615793865160405161162181613b20565b6145aa565b8196506157b0903d8060a051833e6115a88183613bd1565b956145a3565b6157bf90613b6d565b38614562565b90506020813d6020116157ef575b816157e060209383613bd1565b810103126146725751386144c9565b3d91506157d3565b60405161580f816109a8602095602083019586613e7a565b5190206000526006602052604060002080549061582b82613bf2565b926158396040519485613bd1565b828452602084019160005260206000206000925b84841061585c57505050505090565b600183819261586a85613ee1565b81520192019301929061584d565b6000919082916158bd60405180926158a960208301956309710a9d60e41b8752604060248501526064840190613df8565b90604483015203601f198101835282613bd1565b51906a636f6e736f6c652e6c6f675afa50565b8181029291811591840414171561429f57565b9190820180921161429f57565b90613fb7949261590b61591992608085526080850190613e1d565b908382036020850152613df8565b6001600160a01b039093166040820152808303606090910152613df8565b60ff1660ff811461429f5760010190565b6040519061595582613b20565b60006040838281528260208201520152565b9060405161597481613b80565b60008152602081016000815281936060818051810103126100b55760ff9261599e602083016142b5565b926060604084015193015190525216806159b55750565b6044906040519063c1f4bdd960e01b8252600482015260006024820152fd5b9060405161018081018181106001600160401b03821117613b3b576040526000815260006020820152606060408201526000606082015260006080820152606060a0820152600060c0820152600060e08201526000610100820152600061012082015260006101408201526060610160820152809260ff60018201511660018103615c09575061ffff600382015116825260238101516020830152615a8363ffffffff60278301511682615d62565b9060408401526020818301015192615aa46040808486010151930184615cfe565b949060a083015260838086860161ffff60028201511660c0860152602281015160e08601526042810151610100860152606281015161012086015260828101516101408601520151950194615afb60ff8216613bf2565b90615b096040519283613bd1565b60ff8116808352601f1990615b1d90613bf2565b0160005b818110615bf257505060005b60ff82168110615b52575050610160830152606082015260800152613f239190615d1d565b615b5a615d48565b976001808201918901015190600160ff829316808c5214600014615bd6575060405190600a80830190828b01015b603484018210615bc6575091602a60ff9492600194828452601f8019910116604052019060208c01525b99615bbd8287614262565b52019050615b2d565b8051825260209182019101615b88565b6001915091615be760ff938a615cfe565b9060208c0152615bb2565b602090615bfd615d48565b82828701015201615b21565b60449060405190633ce5fedf60e11b8252600482015260016024820152fd5b90602a615c33615948565b600284015161ffff168152602284015160208201529201516001600160401b03166040830152602a90565b916001600160401b03602a8084615c73615948565b960161ffff6002820151168752602281015160208801520151930192166040840152565b818110615ca2575050565b60008155600101615c97565b600101519060ff6001921660028103615cc45750565b60449060405190633ce5fedf60e11b8252600482015260026024820152fd5b81016001908101519101919060ff166000198101615c095750565b90615d1991600463ffffffff81848401015116920190615dda565b9091565b5190808203615d2a575050565b604492506040519163061bc83560e51b835260048301526024820152fd5b60405190615d5582613b80565b6060602083600081520152565b90918215615dbc57826027019160405193601f8116918215615db3575b6027838701938385019201015b818410615da35750508452601f01601f1916604052565b8051845260209384019301615d8c565b60209250615d7f565b915050604051615dcb81613bb6565b60008152600036813790602790565b92908215615e31578281019260405194601f8216928315615e28575b838701938385019201015b818410615e185750508452601f01601f1916604052565b8051845260209384019301615e01565b60209350615df6565b92509050604051615e4181613bb6565b6000815260003681379190565b80601411615e595750565b60449060405190633d71388b60e21b8252601460048301526024820152fd5b80600811615e835750565b60449060405190633d71388b60e21b8252600860048301526024820152fdfe0000000000000000000000007109709ecfa91a80626ff3989d68f67f5b1dd12da26469706673582212200cba9f739888660085e838f81336edd52e9fd5fa9d89b500542cf064dc14d2cc64736f6c63430008190033","linkReferences":{}},"methodIdentifiers":{"getPastDeliveryVAA(uint16,uint64)":"80cb624d","getPastEncodedSignedVaas(uint16,uint64)":"e95feb84","registerChain(uint16,address,uint256)":"23f2fa36","relay((bytes32[],bytes,address)[])":"1f87d3df","relay((bytes32[],bytes,address)[],bool)":"789b2417","relay((bytes32[],bytes,address)[],bytes,bool)":"900d59d4","relay()":"b59589d1","relay(bytes)":"8f0d6f17","vm()":"3a768463"},"id":52}