{"abi":[{"type":"constructor","inputs":[{"name":"wormhole_","type":"address","internalType":"address"},{"name":"devnetGuardian","type":"uint256","internalType":"uint256"}],"stateMutability":"nonpayable"},{"type":"function","name":"encodeAndSignMessage","inputs":[{"name":"vm_","type":"tuple","internalType":"struct IWormhole.VM","components":[{"name":"version","type":"uint8","internalType":"uint8"},{"name":"timestamp","type":"uint32","internalType":"uint32"},{"name":"nonce","type":"uint32","internalType":"uint32"},{"name":"emitterChainId","type":"uint16","internalType":"uint16"},{"name":"emitterAddress","type":"bytes32","internalType":"bytes32"},{"name":"sequence","type":"uint64","internalType":"uint64"},{"name":"consistencyLevel","type":"uint8","internalType":"uint8"},{"name":"payload","type":"bytes","internalType":"bytes"},{"name":"guardianSetIndex","type":"uint32","internalType":"uint32"},{"name":"signatures","type":"tuple[]","internalType":"struct IWormhole.Signature[]","components":[{"name":"r","type":"bytes32","internalType":"bytes32"},{"name":"s","type":"bytes32","internalType":"bytes32"},{"name":"v","type":"uint8","internalType":"uint8"},{"name":"guardianIndex","type":"uint8","internalType":"uint8"}]},{"name":"hash","type":"bytes32","internalType":"bytes32"}]}],"outputs":[{"name":"signedMessage","type":"bytes","internalType":"bytes"}],"stateMutability":"view"},{"type":"function","name":"encodeObservation","inputs":[{"name":"vm_","type":"tuple","internalType":"struct IWormhole.VM","components":[{"name":"version","type":"uint8","internalType":"uint8"},{"name":"timestamp","type":"uint32","internalType":"uint32"},{"name":"nonce","type":"uint32","internalType":"uint32"},{"name":"emitterChainId","type":"uint16","internalType":"uint16"},{"name":"emitterAddress","type":"bytes32","internalType":"bytes32"},{"name":"sequence","type":"uint64","internalType":"uint64"},{"name":"consistencyLevel","type":"uint8","internalType":"uint8"},{"name":"payload","type":"bytes","internalType":"bytes"},{"name":"guardianSetIndex","type":"uint32","internalType":"uint32"},{"name":"signatures","type":"tuple[]","internalType":"struct IWormhole.Signature[]","components":[{"name":"r","type":"bytes32","internalType":"bytes32"},{"name":"s","type":"bytes32","internalType":"bytes32"},{"name":"v","type":"uint8","internalType":"uint8"},{"name":"guardianIndex","type":"uint8","internalType":"uint8"}]},{"name":"hash","type":"bytes32","internalType":"bytes32"}]}],"outputs":[{"name":"encodedObservation","type":"bytes","internalType":"bytes"}],"stateMutability":"pure"},{"type":"function","name":"fetchSignedMessageFromLogs","inputs":[{"name":"log","type":"tuple","internalType":"struct VmSafe.Log","components":[{"name":"topics","type":"bytes32[]","internalType":"bytes32[]"},{"name":"data","type":"bytes","internalType":"bytes"},{"name":"emitter","type":"address","internalType":"address"}]},{"name":"emitterChainId","type":"uint16","internalType":"uint16"}],"outputs":[{"name":"signedMessage","type":"bytes","internalType":"bytes"}],"stateMutability":"view"},{"type":"function","name":"fetchWormholeMessageFromLog","inputs":[{"name":"logs","type":"tuple[]","internalType":"struct VmSafe.Log[]","components":[{"name":"topics","type":"bytes32[]","internalType":"bytes32[]"},{"name":"data","type":"bytes","internalType":"bytes"},{"name":"emitter","type":"address","internalType":"address"}]}],"outputs":[{"name":"","type":"tuple[]","internalType":"struct VmSafe.Log[]","components":[{"name":"topics","type":"bytes32[]","internalType":"bytes32[]"},{"name":"data","type":"bytes","internalType":"bytes"},{"name":"emitter","type":"address","internalType":"address"}]}],"stateMutability":"pure"},{"type":"function","name":"setMessageFee","inputs":[{"name":"newFee","type":"uint256","internalType":"uint256"}],"outputs":[],"stateMutability":"nonpayable"},{"type":"function","name":"vm","inputs":[],"outputs":[{"name":"","type":"address","internalType":"contract Vm"}],"stateMutability":"view"},{"type":"function","name":"wormhole","inputs":[],"outputs":[{"name":"","type":"address","internalType":"contract IWormhole"}],"stateMutability":"view"}],"bytecode":{"object":"0x608060405234801561001057600080fd5b50604051611f68380380611f6883398101604081905261002f91610629565b600080546001600160a01b0319166001600160a01b03841617905560018190556040516001625e79b760e01b03198152600481018290526100c990600080516020611f488339815191529063ffa1864990602401602060405180830381865afa1580156100a0573d6000803e3d6000fd5b505050506040513d601f19601f820116820180604052508101906100c49190610655565b6100d0565b5050610854565b604051630667f9d760e41b815230600482015260026024820152600090600080516020611f488339815191529063667f9d7090604401602060405180830381865afa158015610123573d6000803e3d6000fd5b505050506040513d601f19601f820116820180604052508101906101479190610677565b9050801561018d5760405162461bcd60e51b815260206004820152600e60248201526d1a5b98dbdc9c9958dd081cdb1bdd60921b60448201526064015b60405180910390fd5b60008060009054906101000a90046001600160a01b03166001600160a01b0316631cfe79516040518163ffffffff1660e01b8152600401602060405180830381865afa1580156101e1573d6000803e3d6000fd5b505050506040513d601f19601f8201168201806040525081019061020591906106a4565b6040805163ffffffff8316602082015260029181019190915290915060009060600160408051808303601f1901815290829052805160209091012060008054630667f9d760e41b84526001600160a01b031660048401526024830182905290925090600080516020611f488339815191529063667f9d7090604401602060405180830381865afa15801561029d573d6000803e3d6000fd5b505050506040513d601f19601f820116820180604052508101906102c19190610677565b905060015b8181101561038e576000546040805160208082018790528251808303820181529183019092528051910120600080516020611f48833981519152916370ca10bb916001600160a01b039091169061031e9085906106bf565b60405160e084901b6001600160e01b03191681526001600160a01b039092166004830152602482015260006044820152606401600060405180830381600087803b15801561036b57600080fd5b505af115801561037f573d6000803e3d6000fd5b505050506001810190506102c6565b50600080546040805160208082018790528251808303820181529183019092528051910120600080516020611f48833981519152926370ca10bb926001600160a01b0316916103dc916106bf565b60405160e084901b6001600160e01b03191681526001600160a01b03928316600482015260248101919091529088166044820152606401600060405180830381600087803b15801561042d57600080fd5b505af1158015610441573d6000803e3d6000fd5b50506000546040516370ca10bb60e01b81526001600160a01b0390911660048201526024810185905260016044820152600080516020611f4883398151915292506370ca10bb9150606401600060405180830381600087803b1580156104a657600080fd5b505af11580156104ba573d6000803e3d6000fd5b505060008054604051637ca8cbad60e11b815263ffffffff881660048201529193506001600160a01b0316915063f951975a90602401600060405180830381865afa15801561050d573d6000803e3d6000fd5b505050506040513d6000823e601f3d908101601f191682016040526105359190810190610754565b51805190915060011461058a5760405162461bcd60e51b815260206004820152601560248201527f677561726469616e732e6c656e67746820213d203100000000000000000000006044820152606401610184565b856001600160a01b0316816000815181106105a7576105a761083e565b60200260200101516001600160a01b0316146106055760405162461bcd60e51b815260206004820152601f60248201527f696e636f727265637420677561726469616e20736574206f76657272696465006044820152606401610184565b505050505050565b80516001600160a01b038116811461062457600080fd5b919050565b6000806040838503121561063c57600080fd5b6106458361060d565b9150602083015190509250929050565b60006020828403121561066757600080fd5b6106708261060d565b9392505050565b60006020828403121561068957600080fd5b5051919050565b805163ffffffff8116811461062457600080fd5b6000602082840312156106b657600080fd5b61067082610690565b808201808211156106e057634e487b7160e01b600052601160045260246000fd5b92915050565b634e487b7160e01b600052604160045260246000fd5b604080519081016001600160401b038111828210171561071e5761071e6106e6565b60405290565b604051601f8201601f191681016001600160401b038111828210171561074c5761074c6106e6565b604052919050565b6000602080838503121561076757600080fd5b82516001600160401b038082111561077e57600080fd5b908401906040828703121561079257600080fd5b61079a6106fc565b8251828111156107a957600080fd5b8301601f810188136107ba57600080fd5b8051838111156107cc576107cc6106e6565b8060051b93506107dd868501610724565b818152938201860193868101908a8611156107f757600080fd5b928701925b8584101561081c5761080d8461060d565b825292870192908701906107fc565b84525061082d915050838501610690565b848201528094505050505092915050565b634e487b7160e01b600052603260045260246000fd5b6116e5806108636000396000f3fe608060405234801561001057600080fd5b506004361061007d5760003560e01c806355a58d7d1161005b57806355a58d7d146100f357806364bb9bfb1461011357806384acd1bb14610126578063b34cd8601461013957600080fd5b80630e6452951461008257806323aa2a9d146100ab5780633a768463146100c0575b600080fd5b610095610090366004611064565b61014c565b6040516100a291906111d8565b60405180910390f35b6100be6100b93660046111f2565b610408565b005b6100db737109709ecfa91a80626ff3989d68f67f5b1dd12d81565b6040516001600160a01b0390911681526020016100a2565b6101066101013660046112f7565b6106e2565b6040516100a291906113a7565b610095610121366004611064565b610892565b6000546100db906001600160a01b031681565b61009561014736600461146c565b6108e3565b6060600061015983610892565b905061016481610925565b610140840152604080516001808252818301909252600091816020015b604080516080810182526000808252602080830182905292820181905260608201528252600019909201910181610181579050506001546101408601516040516338d07aa960e21b815260048101929092526024820152909150737109709ecfa91a80626ff3989d68f67f5b1dd12d9063e341eaa490604401606060405180830381865afa158015610217573d6000803e3d6000fd5b505050506040513d601f19601f8201168201806040525081019061023b91906114bd565b8360008151811061024e5761024e6114f4565b60200260200101516040018460008151811061026c5761026c6114f4565b60200260200101516000018560008151811061028a5761028a6114f4565b602002602001015160200183815250838152508360ff1660ff168152505050506000816000815181106102bf576102bf6114f4565b60200260200101516060019060ff16908160ff1681525050836000015160008054906101000a90046001600160a01b03166001600160a01b0316631cfe79516040518163ffffffff1660e01b8152600401602060405180830381865afa15801561032d573d6000803e3d6000fd5b505050506040513d601f19601f82011682018060405250810190610351919061150a565b825183600082610363576103636114f4565b60200260200101516060015184600081518110610382576103826114f4565b602002602001015160000151856000815181106103a1576103a16114f4565b602002602001015160200151601b876000815181106103c2576103c26114f4565b6020026020010151604001516103d8919061153d565b886040516020016103f0989796959493929190611556565b60405160208183030381529060405292505050919050565b600063436f726560001b9050600081600360008054906101000a90046001600160a01b03166001600160a01b0316639a8a05926040518163ffffffff1660e01b8152600401602060405180830381865afa15801561046a573d6000803e3d6000fd5b505050506040513d601f19601f8201168201806040525081019061048e91906115cc565b856040516020016104d2949392919093845260f89290921b6001600160f81b031916602084015260f01b6001600160f01b0319166021830152602382015260430190565b60408051601f19818403018152610160830182526001835263ffffffff421660208481019190915260008484018190528054845163fbe3c2cd60e01b8152945193965090949360608501936001600160a01b039092169263fbe3c2cd926004808401938290030181865afa15801561054e573d6000803e3d6000fd5b505050506040513d601f19601f8201168201806040525081019061057291906115cc565b61ffff16815260200160008054906101000a90046001600160a01b03166001600160a01b031663b172b2226040518163ffffffff1660e01b8152600401602060405180830381865afa1580156105cc573d6000803e3d6000fd5b505050506040513d601f19601f820116820180604052508101906105f091906115e9565b81526000602080830182905260c860408085019190915260608401879052608084018390528051838152918201905260a0909201919061065f565b60408051608081018252600080825260208083018290529282018190526060820152825260001990920191018161062b5790505b508152600060209091018190529091506106788261014c565b60005460405163f42bc64160e01b81529192506001600160a01b03169063f42bc641906106a99084906004016111d8565b600060405180830381600087803b1580156106c357600080fd5b505af11580156106d7573d6000803e3d6000fd5b505050505050505050565b60606000805b8351811015610765577f6eb224fb001ed210e379b335e35efe88672a8ce935d981a6896b27ffdf52a3b2848281518110610724576107246114f4565b602002602001015160000151600081518110610742576107426114f4565b60200260200101510361075d5761075a600183611602565b91505b6001016106e8565b506000816001600160401b0381111561078057610780610df9565b6040519080825280602002602001820160405280156107cd57816020015b6040805160608082018352808252602082015260009181019190915281526020019060019003908161079e5790505b5090506000805b8551811015610888577f6eb224fb001ed210e379b335e35efe88672a8ce935d981a6896b27ffdf52a3b2868281518110610810576108106114f4565b60200260200101516000015160008151811061082e5761082e6114f4565b6020026020010151036108805785818151811061084d5761084d6114f4565b6020026020010151838381518110610867576108676114f4565b602090810291909101015261087d600183611602565b91505b6001016107d4565b5090949350505050565b606081602001518260400151836060015184608001518560a001518660c001518760e001516040516020016108cd9796959493929190611615565b6040516020818303038152906040529050919050565b60606108ed610d9e565b6108f68461095e565b6001815263ffffffff4216602082015261ffff84166060820152905061091b8161014c565b9150505b92915050565b6000818051906020012060405160200161094191815260200190565b604051602081830303815290604052805190602001209050919050565b610966610d9e565b6000826000015160018151811061097f5761097f6114f4565b60200260200101518260800181815250506109b760088260206109a29190611602565b6109ac919061169c565b602085015190610b1d565b6001600160401b031660a08301526109d0602082611602565b90506109f760046109e2836020611602565b6109ec919061169c565b602085015190610b7a565b63ffffffff166040830152610a0d602082611602565b9050610a1a602082611602565b9050610a416001610a2c836020611602565b610a36919061169c565b602085015190610bd7565b60ff1660c0830152610a54602082611602565b90506000610a6f828560200151610c3390919063ffffffff16565b9050610a7c602083611602565b6020850151909250610a8f908383610c91565b60e0840152610a9e8183611602565b915081846020015151610ab1919061169c565b610abb9083611602565b91508360200151518214610b165760405162461bcd60e51b815260206004820181905260248201527f6661696c656420746f20706172736520776f726d686f6c65206d65737361676560448201526064015b60405180910390fd5b5050919050565b6000610b2a826008611602565b83511015610b715760405162461bcd60e51b8152602060048201526014602482015273746f55696e7436345f6f75744f66426f756e647360601b6044820152606401610b0d565b50016008015190565b6000610b87826004611602565b83511015610bce5760405162461bcd60e51b8152602060048201526014602482015273746f55696e7433325f6f75744f66426f756e647360601b6044820152606401610b0d565b50016004015190565b6000610be4826001611602565b83511015610c2a5760405162461bcd60e51b8152602060048201526013602482015272746f55696e74385f6f75744f66426f756e647360681b6044820152606401610b0d565b50016001015190565b6000610c40826020611602565b83511015610c885760405162461bcd60e51b8152602060048201526015602482015274746f55696e743235365f6f75744f66426f756e647360581b6044820152606401610b0d565b50016020015190565b606081610c9f81601f611602565b1015610cde5760405162461bcd60e51b815260206004820152600e60248201526d736c6963655f6f766572666c6f7760901b6044820152606401610b0d565b610ce88284611602565b84511015610d2c5760405162461bcd60e51b8152602060048201526011602482015270736c6963655f6f75744f66426f756e647360781b6044820152606401610b0d565b606082158015610d4b5760405191506000825260208201604052610d95565b6040519150601f8416801560200281840101858101878315602002848b0101015b81831015610d84578051835260209283019201610d6c565b5050858452601f01601f1916604052505b50949350505050565b604080516101608101825260008082526020820181905291810182905260608082018390526080820183905260a0820183905260c0820183905260e08201819052610100820183905261012082015261014081019190915290565b634e487b7160e01b600052604160045260246000fd5b604051608081016001600160401b0381118282101715610e3157610e31610df9565b60405290565b60405161016081016001600160401b0381118282101715610e3157610e31610df9565b604051606081016001600160401b0381118282101715610e3157610e31610df9565b604051601f8201601f191681016001600160401b0381118282101715610ea457610ea4610df9565b604052919050565b60ff81168114610ebb57600080fd5b50565b8035610ec981610eac565b919050565b63ffffffff81168114610ebb57600080fd5b8035610ec981610ece565b61ffff81168114610ebb57600080fd5b8035610ec981610eeb565b80356001600160401b0381168114610ec957600080fd5b600082601f830112610f2e57600080fd5b81356001600160401b03811115610f4757610f47610df9565b610f5a601f8201601f1916602001610e7c565b818152846020838601011115610f6f57600080fd5b816020850160208301376000918101602001919091529392505050565b60006001600160401b03821115610fa557610fa5610df9565b5060051b60200190565b600082601f830112610fc057600080fd5b81356020610fd5610fd083610f8c565b610e7c565b82815260079290921b84018101918181019086841115610ff457600080fd5b8286015b8481101561105957608081890312156110115760008081fd5b611019610e0f565b81358152848201358582015260408083013561103481610eac565b9082015260608281013561104781610eac565b90820152835291830191608001610ff8565b509695505050505050565b60006020828403121561107657600080fd5b81356001600160401b038082111561108d57600080fd5b9083019061016082860312156110a257600080fd5b6110aa610e37565b6110b383610ebe565b81526110c160208401610ee0565b60208201526110d260408401610ee0565b60408201526110e360608401610efb565b6060820152608083013560808201526110fe60a08401610f06565b60a082015261110f60c08401610ebe565b60c082015260e08301358281111561112657600080fd5b61113287828601610f1d565b60e083015250610100611146818501610ee0565b90820152610120838101358381111561115e57600080fd5b61116a88828701610faf565b91830191909152506101409283013592810192909252509392505050565b60005b838110156111a357818101518382015260200161118b565b50506000910152565b600081518084526111c4816020860160208601611188565b601f01601f19169290920160200192915050565b6020815260006111eb60208301846111ac565b9392505050565b60006020828403121561120457600080fd5b5035919050565b80356001600160a01b0381168114610ec957600080fd5b60006060828403121561123457600080fd5b61123c610e5a565b905081356001600160401b038082111561125557600080fd5b818401915084601f83011261126957600080fd5b81356020611279610fd083610f8c565b82815260059290921b8401810191818101908884111561129857600080fd5b948201945b838610156112b65785358252948201949082019061129d565b865250858101359350828411156112cc57600080fd5b6112d887858801610f1d565b81860152505050506112ec6040830161120b565b604082015292915050565b6000602080838503121561130a57600080fd5b82356001600160401b038082111561132157600080fd5b818501915085601f83011261133557600080fd5b8135611343610fd082610f8c565b81815260059190911b8301840190848101908883111561136257600080fd5b8585015b8381101561139a5780358581111561137e5760008081fd5b61138c8b89838a0101611222565b845250918601918601611366565b5098975050505050505050565b600060208083018184528085518083526040925060408601915060408160051b8701018488016000805b8481101561145d57898403603f19018652825180516060808752815190870181905260808701918b019085905b8082101561141e5782518452928c0192918c0191600191909101906113fe565b505050898201518682038b88015261143682826111ac565b928a01516001600160a01b0316968a019690965250958801959350918701916001016113d1565b50919998505050505050505050565b6000806040838503121561147f57600080fd5b82356001600160401b0381111561149557600080fd5b6114a185828601611222565b92505060208301356114b281610eeb565b809150509250929050565b6000806000606084860312156114d257600080fd5b83516114dd81610eac565b602085015160409095015190969495509392505050565b634e487b7160e01b600052603260045260246000fd5b60006020828403121561151c57600080fd5b81516111eb81610ece565b634e487b7160e01b600052601160045260246000fd5b60ff828116828216039081111561091f5761091f611527565b600060ff60f81b808b60f81b16835263ffffffff60e01b8a60e01b166001840152808960f81b166005840152808860f81b166006840152866007840152856027840152808560f81b1660478401525082516115b8816048850160208701611188565b919091016048019998505050505050505050565b6000602082840312156115de57600080fd5b81516111eb81610eeb565b6000602082840312156115fb57600080fd5b5051919050565b8082018082111561091f5761091f611527565b6001600160e01b031960e089811b8216835288901b1660048201526001600160f01b031960f087901b166008820152600a81018590526001600160c01b031960c085901b16602a8201526001600160f81b031960f884901b1660328201528151600090611689816033850160208701611188565b9190910160330198975050505050505050565b8181038181111561091f5761091f61152756fea26469706673582212203f942048a19b1f89f8985309fef5eceaf580f2943f12ec0046b4946f2f75863264736f6c634300081900330000000000000000000000007109709ecfa91a80626ff3989d68f67f5b1dd12d","linkReferences":{}},"methodIdentifiers":{"encodeAndSignMessage((uint8,uint32,uint32,uint16,bytes32,uint64,uint8,bytes,uint32,(bytes32,bytes32,uint8,uint8)[],bytes32))":"0e645295","encodeObservation((uint8,uint32,uint32,uint16,bytes32,uint64,uint8,bytes,uint32,(bytes32,bytes32,uint8,uint8)[],bytes32))":"64bb9bfb","fetchSignedMessageFromLogs((bytes32[],bytes,address),uint16)":"b34cd860","fetchWormholeMessageFromLog((bytes32[],bytes,address)[])":"55a58d7d","setMessageFee(uint256)":"23aa2a9d","vm()":"3a768463","wormhole()":"84acd1bb"},"id":50}