{"abi":[{"type":"constructor","inputs":[{"name":"wormhole_","type":"address","internalType":"address"},{"name":"devnetGuardian","type":"uint256","internalType":"uint256"}],"stateMutability":"nonpayable"},{"type":"function","name":"encodeAndSignMessage","inputs":[{"name":"vm_","type":"tuple","internalType":"struct IWormhole.VM","components":[{"name":"version","type":"uint8","internalType":"uint8"},{"name":"timestamp","type":"uint32","internalType":"uint32"},{"name":"nonce","type":"uint32","internalType":"uint32"},{"name":"emitterChainId","type":"uint16","internalType":"uint16"},{"name":"emitterAddress","type":"bytes32","internalType":"bytes32"},{"name":"sequence","type":"uint64","internalType":"uint64"},{"name":"consistencyLevel","type":"uint8","internalType":"uint8"},{"name":"payload","type":"bytes","internalType":"bytes"},{"name":"guardianSetIndex","type":"uint32","internalType":"uint32"},{"name":"signatures","type":"tuple[]","internalType":"struct IWormhole.Signature[]","components":[{"name":"r","type":"bytes32","internalType":"bytes32"},{"name":"s","type":"bytes32","internalType":"bytes32"},{"name":"v","type":"uint8","internalType":"uint8"},{"name":"guardianIndex","type":"uint8","internalType":"uint8"}]},{"name":"hash","type":"bytes32","internalType":"bytes32"}]}],"outputs":[{"name":"signedMessage","type":"bytes","internalType":"bytes"}],"stateMutability":"view"},{"type":"function","name":"encodeObservation","inputs":[{"name":"vm_","type":"tuple","internalType":"struct IWormhole.VM","components":[{"name":"version","type":"uint8","internalType":"uint8"},{"name":"timestamp","type":"uint32","internalType":"uint32"},{"name":"nonce","type":"uint32","internalType":"uint32"},{"name":"emitterChainId","type":"uint16","internalType":"uint16"},{"name":"emitterAddress","type":"bytes32","internalType":"bytes32"},{"name":"sequence","type":"uint64","internalType":"uint64"},{"name":"consistencyLevel","type":"uint8","internalType":"uint8"},{"name":"payload","type":"bytes","internalType":"bytes"},{"name":"guardianSetIndex","type":"uint32","internalType":"uint32"},{"name":"signatures","type":"tuple[]","internalType":"struct IWormhole.Signature[]","components":[{"name":"r","type":"bytes32","internalType":"bytes32"},{"name":"s","type":"bytes32","internalType":"bytes32"},{"name":"v","type":"uint8","internalType":"uint8"},{"name":"guardianIndex","type":"uint8","internalType":"uint8"}]},{"name":"hash","type":"bytes32","internalType":"bytes32"}]}],"outputs":[{"name":"encodedObservation","type":"bytes","internalType":"bytes"}],"stateMutability":"pure"},{"type":"function","name":"fetchSignedMessageFromLogs","inputs":[{"name":"log","type":"tuple","internalType":"struct VmSafe.Log","components":[{"name":"topics","type":"bytes32[]","internalType":"bytes32[]"},{"name":"data","type":"bytes","internalType":"bytes"},{"name":"emitter","type":"address","internalType":"address"}]},{"name":"emitterChainId","type":"uint16","internalType":"uint16"}],"outputs":[{"name":"signedMessage","type":"bytes","internalType":"bytes"}],"stateMutability":"view"},{"type":"function","name":"fetchWormholeMessageFromLog","inputs":[{"name":"logs","type":"tuple[]","internalType":"struct VmSafe.Log[]","components":[{"name":"topics","type":"bytes32[]","internalType":"bytes32[]"},{"name":"data","type":"bytes","internalType":"bytes"},{"name":"emitter","type":"address","internalType":"address"}]}],"outputs":[{"name":"","type":"tuple[]","internalType":"struct VmSafe.Log[]","components":[{"name":"topics","type":"bytes32[]","internalType":"bytes32[]"},{"name":"data","type":"bytes","internalType":"bytes"},{"name":"emitter","type":"address","internalType":"address"}]}],"stateMutability":"pure"},{"type":"function","name":"setMessageFee","inputs":[{"name":"newFee","type":"uint256","internalType":"uint256"}],"outputs":[],"stateMutability":"nonpayable"},{"type":"function","name":"vm","inputs":[],"outputs":[{"name":"","type":"address","internalType":"contract Vm"}],"stateMutability":"view"},{"type":"function","name":"wormhole","inputs":[],"outputs":[{"name":"","type":"address","internalType":"contract IWormhole"}],"stateMutability":"view"}],"bytecode":{"object":"0x608080604052346106dd576000604082611b4f80380380916100218285610710565b8339810103126106da57602061003683610733565b92015181546001600160a01b0319166001600160a01b03909316928317825560018190556040516001625e79b760e01b03198152600481019190915291602083602481600080516020611b2f8339815191525afa9283156104a057829361069e575b50604051630667f9d760e41b8082523060048301526002602483015290602081604481600080516020611b2f8339815191525afa90811561062b57849161066c575b5061063657604051631cfe795160e01b815291602083600481845afa92831561062b5784936105ef575b506040805163ffffffff8516602082019081526002828401529181529160608301916001600160401b038311848410176105db5782604052835190209382526064830152826084830152602081604481600080516020611b2f8339815191525afa9182156104e15785926105ac575b505060015b8181106104ec57505060018060a01b03835416906040516020810190828252602081526101a4816106f5565b5190206001600160a01b0390951694600080516020611b2f8339815191523b1561047e57604051906370ca10bb60e01b9384835260048301526024820152856044820152848160648183600080516020611b2f8339815191525af180156104e1576104ce575b5083546001600160a01b0316600080516020611b2f8339815191523b1561047e576040519283526004830152602482015260016044820152828160648183600080516020611b2f8339815191525af180156104c3579083916104ab575b508054604051637ca8cbad60e11b815263ffffffff939093166004840152829060249082906001600160a01b03165afa9081156104a0578291610378575b50519060018251036103335781511561031f5750602001516001600160a01b0316036102da576040516113d690816107598239f35b60405162461bcd60e51b815260206004820152601f60248201527f696e636f727265637420677561726469616e20736574206f76657272696465006044820152606490fd5b634e487b7160e01b81526032600452602490fd5b60405162461bcd60e51b815260206004820152601560248201527f677561726469616e732e6c656e67746820213d203100000000000000000000006044820152606490fd5b90503d8083833e6103898183610710565b810190602081830312610498578051906001600160401b03821161049c57016040818303126104985760408051929083016001600160401b038111848210176104825760405281516001600160401b03811161047e5782019080601f8301121561047e578151916001600160401b03831161046a578260051b90604051936104146020840186610710565b845260208085019282010192831161046657602001905b82821061044e57505050825261044390602001610747565b6020820152386102a5565b6020809161045b84610733565b81520191019061042b565b8680fd5b634e487b7160e01b86526041600452602486fd5b8480fd5b634e487b7160e01b600052604160045260246000fd5b8280fd5b8380fd5b6040513d84823e3d90fd5b6104b4906106e2565b6104bf578138610267565b5080fd5b6040513d85823e3d90fd5b6104da909491946106e2565b923861020a565b6040513d87823e3d90fd5b60018060a01b0385541660405160208101908582526020815261050e816106f5565b519020828101811161059857600080516020611b2f8339815191523b15610466578290604051926370ca10bb60e01b84526004840152016024820152856044820152858160648183600080516020611b2f8339815191525af1801561058d57906001929161057e575b5001610178565b610587906106e2565b38610577565b6040513d88823e3d90fd5b634e487b7160e01b87526011600452602487fd5b6020809293503d83116105d4575b6105c48185610710565b8101031261049c57513880610173565b503d6105ba565b634e487b7160e01b87526041600452602487fd5b9092506020813d602011610623575b8161060b60209383610710565b8101031261049c5761061c90610747565b9138610104565b3d91506105fe565b6040513d86823e3d90fd5b60405162461bcd60e51b815260206004820152600e60248201526d1a5b98dbdc9c9958dd081cdb1bdd60921b6044820152606490fd5b90506020813d602011610696575b8161068760209383610710565b8101031261049c5751386100da565b3d915061067a565b9092506020813d6020116106d2575b816106ba60209383610710565b810103126104bf576106cb90610733565b9138610098565b3d91506106ad565b80fd5b600080fd5b6001600160401b03811161048257604052565b604081019081106001600160401b0382111761048257604052565b601f909101601f19168101906001600160401b0382119082101761048257604052565b51906001600160a01b03821682036106dd57565b519063ffffffff821682036106dd5756fe6080604052600436101561001257600080fd5b60003560e01c80630e6452951461008757806323aa2a9d146100825780633a7684631461007d57806355a58d7d1461007857806364bb9bfb1461007357806384acd1bb1461006e5763b34cd8601461006957600080fd5b61095c565b610933565b61091a565b610869565b61069a565b610452565b346100b8576100b46100a061009b366102ef565b610c27565b604051918291602083526020830190610419565b0390f35b600080fd5b634e487b7160e01b600052604160045260246000fd5b608081019081106001600160401b038211176100ee57604052565b6100bd565b6001600160401b0381116100ee57604052565b606081019081106001600160401b038211176100ee57604052565b604081019081106001600160401b038211176100ee57604052565b90601f801991011681019081106001600160401b038211176100ee57604052565b6040519061016082018281106001600160401b038211176100ee57604052565b60ff8116036100b857565b35906101938261017d565b565b63ffffffff8116036100b857565b359061019382610195565b61ffff8116036100b857565b3590610193826101ae565b35906001600160401b03821682036100b857565b81601f820112156100b8578035906001600160401b0382116100ee576040519261020d601f8401601f19166020018561013c565b828452602083830101116100b857816000926020809301838601378301015290565b6001600160401b0381116100ee5760051b60200190565b9080601f830112156100b85781359160206102608461022f565b93604093610271604051968761013c565b818652828087019260071b850101938185116100b8578301915b84831061029b5750505050505090565b6080838303126100b8578360809187516102b4816100d3565b853581528286013583820152888601356102cd8161017d565b89820152606080870135906102e18261017d565b82015281520192019161028b565b600319906020818301126100b8576004356001600160401b03928382116100b8576101609082840301126100b85761032561015d565b9261033282600401610188565b8452610340602483016101a3565b6020850152610351604483016101a3565b6040850152610362606483016101ba565b60608501526084820135608085015261037d60a483016101c5565b60a085015261038e60c48301610188565b60c085015260e48201358181116100b8578360046103ae928501016101d9565b60e08501526103c061010483016101a3565b6101008501526101248201359081116100b8576101449260046103e592840101610246565b610120840152013561014082015290565b60005b8381106104095750506000910152565b81810151838201526020016103f9565b90602091610432815180928185528580860191016103f6565b601f01601f1916010190565b90602061044f928181520190610419565b90565b346100b8576020806003193601126100b85760008054909190610485906001600160a01b03165b6001600160a01b031690565b60408051634d4502c960e11b8152928084600481865afa93841561060c576104f0946104fe918791610672575b50835163436f7265848201908152600360f81b602082015260f09290921b6001600160f01b0319166021830152600435602383015295869160430190565b03601f19810186528561013c565b815163fbe3c2cd60e01b8152908082600481875afa91821561060c578692610643575b5082516358b9591160e11b8152918183600481885afa95861561060c5787966105bc948891610616575b50610586610557610a7e565b9361057561056361015d565b60018152964263ffffffff1690880152565b8588018a905261ffff166060860152565b60808401528660a084015261059e60c0840160c89052565b60e08301528561010083015261012082015284610140820152610c27565b91803b156106115783926105e4925194858094819363f42bc64160e01b83526004830161043e565b03925af1801561060c576105f6575080f35b80610603610609926100f3565b8061068f565b80f35b610b21565b505050fd5b6106369150843d861161063c575b61062e818361013c565b810190610e32565b3861054b565b503d610624565b816106649293503d841161066b575b61065c818361013c565b810190610e1d565b9038610521565b503d610652565b6106899150833d851161066b5761065c818361013c565b386104b2565b60009103126100b857565b346100b85760003660031901126100b8576020604051737109709ecfa91a80626ff3989d68f67f5b1dd12d8152f35b35906001600160a01b03821682036100b857565b9190916060818403126100b857604051906106f782610106565b81938135906001600160401b03918281116100b85783019281601f850112156100b85783356020946107288261022f565b91610736604051938461013c565b808352868084019160051b830101918583116100b85787809101915b83831061078c57505050508552838101359283116100b85760409361077d85936107879584016101d9565b90860152016106c9565b910152565b8235815291810191889101610752565b6020808201908083528351809252604092604081018260408560051b8401019601946000906000935b8685106107d757505050505050505090565b9091929394959697603f198282030185528689516060928584820183519583528551809152846080840196019089905b80821061084c5750505090829161082b600196868096015184820387860152610419565b9281878060a01b03910151169101529a0195019501939695949291906107c5565b82518852968601968d968a94509290920191600190910190610807565b346100b8576020806003193601126100b8576001600160401b03906004358281116100b857366023820112156100b857602460048201356108a98161022f565b946108b7604051968761013c565b8186526024602087019260051b850101933685116100b85760248101925b8584106108f4576100b46108e889610ee2565b6040519182918261079c565b83358381116100b857879161090f83928836918701016106dd565b8152019301926108d5565b346100b8576100b46100a061092e366102ef565b610fdb565b346100b85760003660031901126100b8576000546040516001600160a01b039091168152602090f35b346100b85760403660031901126100b8576004356001600160401b0381116100b857610a726109926100b49236906004016106dd565b61009b6024356109a1816101ae565b6109a9611086565b50610a5760206109b7611086565b946109c28151610b43565b516080870152016109e66109d68251611168565b6001600160401b031660a0870152565b610a006109f382516111b4565b63ffffffff166040870152565b610a17610a0d8251611200565b60ff1660c0870152565b610a4e610a3c610a27835161124b565b610a32818551611315565b60e0890152610e5d565b610a4881845151611110565b90610e6b565b9051511461111d565b600183524263ffffffff16602084015261ffff166060830152565b6040519182918261043e565b604051602081018181106001600160401b038211176100ee576040526000815290565b60409060405191610ab183610121565b60018352829160005b602080821015610af557835160209291610ad3826100d3565b6000825260008183015260008683015260006060830152828801015201610aba565b505091925050565b908160609103126100b8578051610b138161017d565b916040602083015192015190565b6040513d6000823e3d90fd5b634e487b7160e01b600052603260045260246000fd5b805160011015610b535760400190565b610b2d565b805115610b535760200190565b8051821015610b535760209160051b010190565b908160209103126100b8575161044f81610195565b634e487b7160e01b600052601160045260246000fd5b60ff601a199116019060ff8211610bb757565b610b8e565b959294919093604898979460ff60f81b96879384809360f81b168a5263ffffffff60e01b9060e01b1660018a015260f81b16600588015260f81b1660068601526007850152602784015260f81b166047820152610c2282518093602086850191016103f6565b010190565b610c3081610fdb565b90610c7c610c3d836110ec565b9161014081019283526060610c50610aa1565b60015494516040516338d07aa960e21b8152600481019690965260248601529392839081906044820190565b0381737109709ecfa91a80626ff3989d68f67f5b1dd12d5afa91821561060c57600090600090600094610dd9575b5091610ce7610cfe926004946040610cc189610b58565b510190610ccd89610b58565b5160209889610cdb8c610b58565b510152529060ff169052565b60006060610cf487610b58565b5101525160ff1690565b6000549094908390610d18906001600160a01b0316610479565b604051631cfe795160e01b815293849182905afa801561060c5761044f94610d9c93600092610daa575b50805160ff16610d5f6060610d5684610b58565b51015160ff1690565b610d6883610b58565b515191610d8e610d896040610d568b610d8089610b58565b51015197610b58565b610ba4565b946040519a8b998a01610bbc565b03601f19810183528261013c565b610dcb919250853d8711610dd2575b610dc3818361013c565b810190610b79565b9038610d42565b503d610db9565b610ce79450610cfe92506004939150610e099060603d606011610e16575b610e01818361013c565b810190610afd565b9591909294509250610caa565b503d610df7565b908160209103126100b8575161044f816101ae565b908160209103126100b8575190565b9060018201809211610bb757565b90601f8201809211610bb757565b60a001908160a011610bb757565b91908201809211610bb757565b90610e828261022f565b604090610e92604051918261013c565b8381528093610ea3601f199161022f565b019160009160005b848110610eb9575050505050565b6020908351610ec781610106565b60608082528390818301528686830152828501015201610eab565b906000805b8351811015610f48577f6eb224fb001ed210e379b335e35efe88672a8ce935d981a6896b27ffdf52a3b2610f25610f1e8387610b65565b5151610b58565b5114610f34575b600101610ee7565b90610f40600191610e41565b919050610f2c565b50610f5590929192610e78565b6000805b8351811015610fd4577f6eb224fb001ed210e379b335e35efe88672a8ce935d981a6896b27ffdf52a3b2610f90610f1e8387610b65565b5114610f9f575b600101610f59565b90610fcc600191610fb08487610b65565b51610fbb8287610b65565b52610fc68186610b65565b50610e41565b919050610f97565b5050905090565b61044f6053602083015192604081015190606081015190608081015160a08201519060e060c08401519301519360405198899663ffffffff60e01b809260e01b16602089015260e01b16602487015261ffff60f01b9060f01b166028860152602a8501526001600160401b0360c01b9060c01b16604a84015260ff60f81b9060f81b16605283015261107681518092602086860191016103f6565b810103603381018452018261013c565b6040519061016082018281106001600160401b038211176100ee57604052816101406000918281528260208201528260408201528260608201528260808201528260a08201528260c0820152606060e08201528261010082015260606101208201520152565b60208151910120604051602081019182526020815261110a81610121565b51902090565b91908203918211610bb757565b1561112457565b606460405162461bcd60e51b815260206004820152602060248201527f6661696c656420746f20706172736520776f726d686f6c65206d6573736167656044820152fd5b6020815110611178576020015190565b60405162461bcd60e51b8152602060048201526014602482015273746f55696e7436345f6f75744f66426f756e647360601b6044820152606490fd5b60408151106111c4576040015190565b60405162461bcd60e51b8152602060048201526014602482015273746f55696e7433325f6f75744f66426f756e647360601b6044820152606490fd5b6080815110611210576080015190565b60405162461bcd60e51b8152602060048201526013602482015272746f55696e74385f6f75744f66426f756e647360681b6044820152606490fd5b60a081511061125b5760a0015190565b60405162461bcd60e51b8152602060048201526015602482015274746f55696e743235365f6f75744f66426f756e647360581b6044820152606490fd5b1561129f57565b60405162461bcd60e51b815260206004820152600e60248201526d736c6963655f6f766572666c6f7760901b6044820152606490fd5b156112dc57565b60405162461bcd60e51b8152602060048201526011602482015270736c6963655f6f75744f66426f756e647360781b6044820152606490fd5b6113298261132281610e4f565b1015611298565b61133e815161133784610e5d565b11156112d5565b81611356575050604051600081526020810160405290565b60405191601f81169160a0831560051b80858701019484860193010101905b80841061138d5750508252601f01601f191660405290565b909283518152602080910193019061137556fea26469706673582212207807039abee07c8bdf126fa335b079da0e5e67a7f926a03e76b4db1ef7c559b164736f6c634300081900330000000000000000000000007109709ecfa91a80626ff3989d68f67f5b1dd12d","linkReferences":{}},"methodIdentifiers":{"encodeAndSignMessage((uint8,uint32,uint32,uint16,bytes32,uint64,uint8,bytes,uint32,(bytes32,bytes32,uint8,uint8)[],bytes32))":"0e645295","encodeObservation((uint8,uint32,uint32,uint16,bytes32,uint64,uint8,bytes,uint32,(bytes32,bytes32,uint8,uint8)[],bytes32))":"64bb9bfb","fetchSignedMessageFromLogs((bytes32[],bytes,address),uint16)":"b34cd860","fetchWormholeMessageFromLog((bytes32[],bytes,address)[])":"55a58d7d","setMessageFee(uint256)":"23aa2a9d","vm()":"3a768463","wormhole()":"84acd1bb"},"id":53}