{"abi":[{"type":"constructor","inputs":[{"name":"name","type":"string","internalType":"string"},{"name":"symbol","type":"string","internalType":"string"}],"stateMutability":"nonpayable"},{"type":"function","name":"DOMAIN_SEPARATOR","inputs":[],"outputs":[{"name":"","type":"bytes32","internalType":"bytes32"}],"stateMutability":"view"},{"type":"function","name":"allowance","inputs":[{"name":"","type":"address","internalType":"address"},{"name":"","type":"address","internalType":"address"}],"outputs":[{"name":"","type":"uint256","internalType":"uint256"}],"stateMutability":"view"},{"type":"function","name":"approve","inputs":[{"name":"spender","type":"address","internalType":"address"},{"name":"amount","type":"uint256","internalType":"uint256"}],"outputs":[{"name":"","type":"bool","internalType":"bool"}],"stateMutability":"nonpayable"},{"type":"function","name":"balanceOf","inputs":[{"name":"","type":"address","internalType":"address"}],"outputs":[{"name":"","type":"uint256","internalType":"uint256"}],"stateMutability":"view"},{"type":"function","name":"burn","inputs":[{"name":"from","type":"address","internalType":"address"},{"name":"amount","type":"uint256","internalType":"uint256"}],"outputs":[],"stateMutability":"nonpayable"},{"type":"function","name":"decimals","inputs":[],"outputs":[{"name":"","type":"uint8","internalType":"uint8"}],"stateMutability":"view"},{"type":"function","name":"mint","inputs":[{"name":"to","type":"address","internalType":"address"},{"name":"amount","type":"uint256","internalType":"uint256"}],"outputs":[],"stateMutability":"nonpayable"},{"type":"function","name":"name","inputs":[],"outputs":[{"name":"","type":"string","internalType":"string"}],"stateMutability":"view"},{"type":"function","name":"nonces","inputs":[{"name":"","type":"address","internalType":"address"}],"outputs":[{"name":"","type":"uint256","internalType":"uint256"}],"stateMutability":"view"},{"type":"function","name":"permit","inputs":[{"name":"owner","type":"address","internalType":"address"},{"name":"spender","type":"address","internalType":"address"},{"name":"value","type":"uint256","internalType":"uint256"},{"name":"deadline","type":"uint256","internalType":"uint256"},{"name":"v","type":"uint8","internalType":"uint8"},{"name":"r","type":"bytes32","internalType":"bytes32"},{"name":"s","type":"bytes32","internalType":"bytes32"}],"outputs":[],"stateMutability":"nonpayable"},{"type":"function","name":"symbol","inputs":[],"outputs":[{"name":"","type":"string","internalType":"string"}],"stateMutability":"view"},{"type":"function","name":"totalSupply","inputs":[],"outputs":[{"name":"","type":"uint256","internalType":"uint256"}],"stateMutability":"view"},{"type":"function","name":"transfer","inputs":[{"name":"to","type":"address","internalType":"address"},{"name":"amount","type":"uint256","internalType":"uint256"}],"outputs":[{"name":"","type":"bool","internalType":"bool"}],"stateMutability":"nonpayable"},{"type":"function","name":"transferFrom","inputs":[{"name":"from","type":"address","internalType":"address"},{"name":"to","type":"address","internalType":"address"},{"name":"amount","type":"uint256","internalType":"uint256"}],"outputs":[{"name":"","type":"bool","internalType":"bool"}],"stateMutability":"nonpayable"},{"type":"event","name":"Approval","inputs":[{"name":"owner","type":"address","indexed":true,"internalType":"address"},{"name":"spender","type":"address","indexed":true,"internalType":"address"},{"name":"value","type":"uint256","indexed":false,"internalType":"uint256"}],"anonymous":false},{"type":"event","name":"Transfer","inputs":[{"name":"from","type":"address","indexed":true,"internalType":"address"},{"name":"to","type":"address","indexed":true,"internalType":"address"},{"name":"value","type":"uint256","indexed":false,"internalType":"uint256"}],"anonymous":false}],"bytecode":{"object":"0x60e060405234801561001057600080fd5b50604051610fda380380610fda83398101604081905261002f916101c6565b81816012600061003f84826102b4565b50600161004c83826102b4565b5060ff81166080524660a05261006061006e565b60c052506103e99350505050565b60007f8b73c3c69bb8fe3d512ecc4cf759cc79239f7b179b0ffacaa9a75d522b39400f60006040516100a09190610373565b6040805191829003822060208301939093528101919091527fc89efdaa54c0f20c7adf612882df0950f5a951637e0307cdcb4c672f298b8bc660608201524660808201523060a082015260c00160405160208183030381529060405280519060200120905090565b634e487b7160e01b600052604160045260246000fd5b600082601f83011261012f57600080fd5b81516001600160401b038082111561014957610149610108565b604051601f8301601f19908116603f0116810190828211818310171561017157610171610108565b816040528381526020925086602085880101111561018e57600080fd5b600091505b838210156101b05785820183015181830184015290820190610193565b6000602085830101528094505050505092915050565b600080604083850312156101d957600080fd5b82516001600160401b03808211156101f057600080fd5b6101fc8683870161011e565b9350602085015191508082111561021257600080fd5b5061021f8582860161011e565b9150509250929050565b600181811c9082168061023d57607f821691505b60208210810361025d57634e487b7160e01b600052602260045260246000fd5b50919050565b601f8211156102af576000816000526020600020601f850160051c8101602086101561028c5750805b601f850160051c820191505b818110156102ab57828155600101610298565b5050505b505050565b81516001600160401b038111156102cd576102cd610108565b6102e1816102db8454610229565b84610263565b602080601f83116001811461031657600084156102fe5750858301515b600019600386901b1c1916600185901b1785556102ab565b600085815260208120601f198616915b8281101561034557888601518255948401946001909101908401610326565b50858210156103635787850151600019600388901b60f8161c191681555b5050505050600190811b01905550565b600080835461038181610229565b6001828116801561039957600181146103ae576103dd565b60ff19841687528215158302870194506103dd565b8760005260208060002060005b858110156103d45781548a8201529084019082016103bb565b50505082870194505b50929695505050505050565b60805160a05160c051610bc261041860003960006104700152600061043b0152600061015f0152610bc26000f3fe608060405234801561001057600080fd5b50600436106100ea5760003560e01c806370a082311161008c5780639dc29fac116100665780639dc29fac146101f8578063a9059cbb1461020b578063d505accf1461021e578063dd62ed3e1461023157600080fd5b806370a08231146101b05780637ecebe00146101d057806395d89b41146101f057600080fd5b806323b872dd116100c857806323b872dd14610147578063313ce5671461015a5780633644e5151461019357806340c10f191461019b57600080fd5b806306fdde03146100ef578063095ea7b31461010d57806318160ddd14610130575b600080fd5b6100f761025c565b60405161010491906108bc565b60405180910390f35b61012061011b366004610927565b6102ea565b6040519015158152602001610104565b61013960025481565b604051908152602001610104565b610120610155366004610951565b610357565b6101817f000000000000000000000000000000000000000000000000000000000000000081565b60405160ff9091168152602001610104565b610139610437565b6101ae6101a9366004610927565b610492565b005b6101396101be36600461098d565b60036020526000908152604090205481565b6101396101de36600461098d565b60056020526000908152604090205481565b6100f76104a0565b6101ae610206366004610927565b6104ad565b610120610219366004610927565b6104b7565b6101ae61022c3660046109af565b61051d565b61013961023f366004610a22565b600460209081526000928352604080842090915290825290205481565b6000805461026990610a55565b80601f016020809104026020016040519081016040528092919081815260200182805461029590610a55565b80156102e25780601f106102b7576101008083540402835291602001916102e2565b820191906000526020600020905b8154815290600101906020018083116102c557829003601f168201915b505050505081565b3360008181526004602090815260408083206001600160a01b038716808552925280832085905551919290917f8c5be1e5ebec7d5bd14f71427d1e84f3dd0314c0f7b2291e5b200ac8c7c3b925906103459086815260200190565b60405180910390a35060015b92915050565b6001600160a01b038316600090815260046020908152604080832033845290915281205460001981146103b35761038e8382610aa5565b6001600160a01b03861660009081526004602090815260408083203384529091529020555b6001600160a01b038516600090815260036020526040812080548592906103db908490610aa5565b90915550506001600160a01b0380851660008181526003602052604090819020805487019055519091871690600080516020610b6d833981519152906104249087815260200190565b60405180910390a3506001949350505050565b60007f0000000000000000000000000000000000000000000000000000000000000000461461046d57610468610766565b905090565b507f000000000000000000000000000000000000000000000000000000000000000090565b61049c8282610800565b5050565b6001805461026990610a55565b61049c828261085a565b336000908152600360205260408120805483919083906104d8908490610aa5565b90915550506001600160a01b03831660008181526003602052604090819020805485019055513390600080516020610b6d833981519152906103459086815260200190565b428410156105725760405162461bcd60e51b815260206004820152601760248201527f5045524d49545f444541444c494e455f4558504952454400000000000000000060448201526064015b60405180910390fd5b6000600161057e610437565b6001600160a01b038a811660008181526005602090815260409182902080546001810190915582517f6e71edae12b1b97f4d1f60370fef10105fa2faae0126114a169c64845d6126c98184015280840194909452938d166060840152608083018c905260a083019390935260c08083018b90528151808403909101815260e08301909152805192019190912061190160f01b6101008301526101028201929092526101228101919091526101420160408051601f198184030181528282528051602091820120600084529083018083525260ff871690820152606081018590526080810184905260a0016020604051602081039080840390855afa15801561068a573d6000803e3d6000fd5b5050604051601f1901519150506001600160a01b038116158015906106c05750876001600160a01b0316816001600160a01b0316145b6106fd5760405162461bcd60e51b815260206004820152600e60248201526d24a72b20a624a22fa9a4a3a722a960911b6044820152606401610569565b6001600160a01b0390811660009081526004602090815260408083208a8516808552908352928190208990555188815291928a16917f8c5be1e5ebec7d5bd14f71427d1e84f3dd0314c0f7b2291e5b200ac8c7c3b925910160405180910390a350505050505050565b60007f8b73c3c69bb8fe3d512ecc4cf759cc79239f7b179b0ffacaa9a75d522b39400f60006040516107989190610ab8565b6040805191829003822060208301939093528101919091527fc89efdaa54c0f20c7adf612882df0950f5a951637e0307cdcb4c672f298b8bc660608201524660808201523060a082015260c00160405160208183030381529060405280519060200120905090565b80600260008282546108129190610b59565b90915550506001600160a01b038216600081815260036020908152604080832080548601905551848152600080516020610b6d83398151915291015b60405180910390a35050565b6001600160a01b03821660009081526003602052604081208054839290610882908490610aa5565b90915550506002805482900390556040518181526000906001600160a01b03841690600080516020610b6d8339815191529060200161084e565b60006020808352835180602085015260005b818110156108ea578581018301518582016040015282016108ce565b506000604082860101526040601f19601f8301168501019250505092915050565b80356001600160a01b038116811461092257600080fd5b919050565b6000806040838503121561093a57600080fd5b6109438361090b565b946020939093013593505050565b60008060006060848603121561096657600080fd5b61096f8461090b565b925061097d6020850161090b565b9150604084013590509250925092565b60006020828403121561099f57600080fd5b6109a88261090b565b9392505050565b600080600080600080600060e0888a0312156109ca57600080fd5b6109d38861090b565b96506109e16020890161090b565b95506040880135945060608801359350608088013560ff81168114610a0557600080fd5b9699959850939692959460a0840135945060c09093013592915050565b60008060408385031215610a3557600080fd5b610a3e8361090b565b9150610a4c6020840161090b565b90509250929050565b600181811c90821680610a6957607f821691505b602082108103610a8957634e487b7160e01b600052602260045260246000fd5b50919050565b634e487b7160e01b600052601160045260246000fd5b8181038181111561035157610351610a8f565b60008083548160018260011c91506001831680610ad657607f831692505b60208084108203610af557634e487b7160e01b86526022600452602486fd5b818015610b095760018114610b1e57610b4b565b60ff1986168952841515850289019650610b4b565b60008a81526020902060005b86811015610b435781548b820152908501908301610b2a565b505084890196505b509498975050505050505050565b8082018082111561035157610351610a8f56feddf252ad1be2c89b69c2b068fc378daa952ba7f163c4a11628f55a4df523b3efa2646970667358221220a9ca2c801b71a6486a501224b452f511958d72539aeb70195e43e5e44284191564736f6c63430008190033","linkReferences":{}},"methodIdentifiers":{"DOMAIN_SEPARATOR()":"3644e515","allowance(address,address)":"dd62ed3e","approve(address,uint256)":"095ea7b3","balanceOf(address)":"70a08231","burn(address,uint256)":"9dc29fac","decimals()":"313ce567","mint(address,uint256)":"40c10f19","name()":"06fdde03","nonces(address)":"7ecebe00","permit(address,address,uint256,uint256,uint8,bytes32,bytes32)":"d505accf","symbol()":"95d89b41","totalSupply()":"18160ddd","transfer(address,uint256)":"a9059cbb","transferFrom(address,address,uint256)":"23b872dd"},"id":43}