{"abi":[{"type":"constructor","inputs":[{"name":"_wormholeRelayer","type":"address","internalType":"address"}],"stateMutability":"nonpayable"},{"type":"function","name":"_generateKey","inputs":[{"name":"proxy","type":"address","internalType":"address"},{"name":"requestHash","type":"bytes32","internalType":"bytes32"},{"name":"predictedTokenUsage","type":"uint8","internalType":"enum Controller.OperationType"},{"name":"fixedNonce","type":"uint256","internalType":"uint256"}],"outputs":[{"name":"","type":"bytes32","internalType":"bytes32"}],"stateMutability":"nonpayable"},{"type":"function","name":"authorizedRouters","inputs":[{"name":"","type":"address","internalType":"address"}],"outputs":[{"name":"","type":"bool","internalType":"bool"}],"stateMutability":"view"},{"type":"function","name":"cleanUpExpiredKeys","inputs":[{"name":"keys","type":"bytes32[]","internalType":"bytes32[]"}],"outputs":[],"stateMutability":"nonpayable"},{"type":"function","name":"expirationPeriod","inputs":[],"outputs":[{"name":"","type":"uint256","internalType":"uint256"}],"stateMutability":"view"},{"type":"function","name":"getIdempotencyData","inputs":[{"name":"key","type":"bytes32","internalType":"bytes32"}],"outputs":[{"name":"proxy","type":"address","internalType":"address"},{"name":"predictedTokenUsage","type":"uint8","internalType":"enum Controller.OperationType"},{"name":"processed","type":"bool","internalType":"bool"},{"name":"expirationTime","type":"uint256","internalType":"uint256"}],"stateMutability":"view"},{"type":"function","name":"idempotencyKeys","inputs":[{"name":"","type":"bytes32","internalType":"bytes32"}],"outputs":[{"name":"proxy","type":"address","internalType":"address"},{"name":"predictedTokenUsage","type":"uint8","internalType":"enum Controller.OperationType"},{"name":"processed","type":"bool","internalType":"bool"},{"name":"expirationTime","type":"uint256","internalType":"uint256"}],"stateMutability":"view"},{"type":"function","name":"quoteCrossChainGreeting","inputs":[{"name":"targetChain","type":"uint16","internalType":"uint16"}],"outputs":[{"name":"cost","type":"uint256","internalType":"uint256"}],"stateMutability":"view"},{"type":"function","name":"receiveWormholeMessages","inputs":[{"name":"payload","type":"bytes","internalType":"bytes"},{"name":"","type":"bytes[]","internalType":"bytes[]"},{"name":"","type":"bytes32","internalType":"bytes32"},{"name":"","type":"uint16","internalType":"uint16"},{"name":"","type":"bytes32","internalType":"bytes32"}],"outputs":[],"stateMutability":"payable"},{"type":"function","name":"registerRouter","inputs":[{"name":"router","type":"address","internalType":"address"}],"outputs":[],"stateMutability":"nonpayable"},{"type":"function","name":"requestHashToKey","inputs":[{"name":"","type":"bytes32","internalType":"bytes32"}],"outputs":[{"name":"","type":"bytes32","internalType":"bytes32"}],"stateMutability":"view"},{"type":"function","name":"sendCrossChainGreeting","inputs":[{"name":"targetChain","type":"uint16","internalType":"uint16"},{"name":"targetAddress","type":"address","internalType":"address"},{"name":"requestHash","type":"bytes32","internalType":"bytes32"},{"name":"operationType","type":"uint256","internalType":"uint256"},{"name":"fixedNonce","type":"uint256","internalType":"uint256"}],"outputs":[],"stateMutability":"payable"},{"type":"function","name":"submitReceipt","inputs":[{"name":"idempotencyKey","type":"bytes32","internalType":"bytes32"}],"outputs":[],"stateMutability":"nonpayable"},{"type":"function","name":"wormholeRelayer","inputs":[],"outputs":[{"name":"","type":"address","internalType":"contract IWormholeRelayer"}],"stateMutability":"view"}],"bytecode":{"object":"0x60a060405262015180600355348015601657600080fd5b506040516111d93803806111d9833981016040819052603391605e565b6001600160a01b031660808190526000908152602081905260409020805460ff19166001179055608c565b600060208284031215606f57600080fd5b81516001600160a01b0381168114608557600080fd5b9392505050565b60805161111d6100bc600039600081816102e2015281816104890152818161077b015261093e015261111d6000f3fe6080604052600436106100c25760003560e01c80638897cad31161007f578063a83cf62d11610059578063a83cf62d1461025c578063ceb1a55b146102b0578063da25b725146102d0578063dbd7761e1461031c57600080fd5b80638897cad3146101f35780639e6f1f6614610209578063a2b5a2ec1461024957600080fd5b80631f1aba55146100c757806322b19af7146100e957806328bd75ce146101285780632d5fa7671461015b578063399bd8231461017b578063529dca32146101e0575b600080fd5b3480156100d357600080fd5b506100e76100e2366004610b83565b610349565b005b3480156100f557600080fd5b506100e7610104366004610bb1565b6001600160a01b03166000908152602081905260409020805460ff19166001179055565b34801561013457600080fd5b50610148610143366004610bec565b61045d565b6040519081526020015b60405180910390f35b34801561016757600080fd5b50610148610176366004610c07565b610502565b34801561018757600080fd5b506101d0610196366004610b83565b600160208190526000918252604090912080549101546001600160a01b0382169160ff600160a01b8204811692600160a81b909204169084565b6040516101529493929190610c69565b6100e76101ee366004610d69565b610770565b3480156101ff57600080fd5b5061014860035481565b34801561021557600080fd5b50610239610224366004610bb1565b60006020819052908152604090205460ff1681565b6040519015158152602001610152565b6100e7610257366004610e72565b6108f2565b34801561026857600080fd5b506101d0610277366004610b83565b600090815260016020819052604090912080549101546001600160a01b0382169260ff600160a01b8404811693600160a81b9004169190565b3480156102bc57600080fd5b506100e76102cb366004610ec1565b6109d4565b3480156102dc57600080fd5b506103047f000000000000000000000000000000000000000000000000000000000000000081565b6040516001600160a01b039091168152602001610152565b34801561032857600080fd5b50610148610337366004610b83565b60026020526000908152604090205481565b3360009081526020819052604090205460ff166103a85760405162461bcd60e51b81526020600482015260186024820152772737ba1030b71030baba3437b934bd32b2103937baba32b960411b60448201526064015b60405180910390fd5b60008181526001602052604090208054600160a81b900460ff16156104075760405162461bcd60e51b815260206004820152601560248201527412d95e48185b1c9958591e481c1c9bd8d95cdcd959605a1b604482015260640161039f565b80600101544211156104495760405162461bcd60e51b815260206004820152600b60248201526a12d95e48195e1c1a5c995960aa1b604482015260640161039f565b805460ff60a81b1916600160a81b17905550565b60405163c23ee3c360e01b815261ffff821660048201526000602482018190526203d0906044830152907f00000000000000000000000000000000000000000000000000000000000000006001600160a01b03169063c23ee3c3906064016040805180830381865afa1580156104d7573d6000803e3d6000fd5b505050506040513d601f19601f820116820180604052508101906104fb9190610f36565b5092915050565b3360009081526020819052604081205460ff1661055c5760405162461bcd60e51b81526020600482015260186024820152772737ba1030b71030baba3437b934bd32b2103937baba32b960411b604482015260640161039f565b6040516bffffffffffffffffffffffff19606087901b16602082015260348101859052605481018390526000906074016040516020818303038152906040528051906020012090506105e26040518060400160405280601981526020017f47656e657261746564206964656d706f74656e63794b65793a00000000000000815250610a49565b6105eb81610a8f565b600081815260016020526040902054600160a81b900460ff16156106495760405162461bcd60e51b815260206004820152601560248201527412d95e48185b1c9958591e481c1c9bd8d95cdcd959605a1b604482015260640161039f565b6040518060800160405280876001600160a01b0316815260200185600281111561067557610675610c53565b8152602001600015158152602001600354426106919190610f5a565b90526000828152600160209081526040909120825181546001600160a01b039091166001600160a01b031982168117835592840151919283916001600160a81b03191617600160a01b8360028111156106ec576106ec610c53565b02179055506040828101518254901515600160a81b0260ff60a81b19909116178255606090920151600190910155600086815260026020908152908290208390558151808301909252601782527f4b65792073746f726564207375636365737366756c6c790000000000000000009082015261076790610a49565b95945050505050565b336001600160a01b037f000000000000000000000000000000000000000000000000000000000000000016146107df5760405162461bcd60e51b815260206004820152601460248201527313db9b1e481c995b185e595c88185b1b1bddd95960621b604482015260640161039f565b600080600080888060200190518101906107f99190610f81565b93509350935093506108326040518060400160405280601081526020016f2232b1b7b232b2103830bcb637b0b21d60811b815250610a49565b61085a60405180604001604052806006815260200165283937bc3c9d60d11b81525085610ad4565b61086383610a8f565b61089b60405180604001604052806016815260200175283932b234b1ba32b2102a37b5b2b7102ab9b0b3b29d60511b81525083610b1d565b6108c96040518060400160405280600c81526020016b2334bc32b2102737b731b29d60a11b81525082610b1d565b6108e684848460028111156108e0576108e0610c53565b84610502565b50505050505050505050565b60006108fd8661045d565b604080513060208201528082018790526060810186905260808082018690528251808303909101815260a08201928390526347f66e8160e11b9092529192507f00000000000000000000000000000000000000000000000000000000000000006001600160a01b031691638fecdd02918491610988918b918b91906000906203d0909060a401611006565b60206040518083038185885af11580156109a6573d6000803e3d6000fd5b50505050506040513d601f19601f820116820180604052508101906109cb9190611048565b50505050505050565b60005b81811015610a445760008383838181106109f3576109f3611072565b9050602002013590504260016000838152602001908152602001600020600101541015610a3b576000818152600160208190526040822080546001600160b01b031916815501555b506001016109d7565b505050565b610a8c81604051602401610a5d9190611088565b60408051601f198184030181529190526020810180516001600160e01b031663104c13eb60e21b179052610b5e565b50565b610a8c81604051602401610aa591815260200190565b60408051601f198184030181529190526020810180516001600160e01b03166327b7cf8560e01b179052610b5e565b610b198282604051602401610aea92919061109b565b60408051601f198184030181529190526020810180516001600160e01b031663319af33360e01b179052610b5e565b5050565b610b198282604051602401610b339291906110c5565b60408051601f198184030181529190526020810180516001600160e01b03166309710a9d60e41b1790525b610a8c8180516a636f6e736f6c652e6c6f67602083016000808483855afa5050505050565b600060208284031215610b9557600080fd5b5035919050565b6001600160a01b0381168114610a8c57600080fd5b600060208284031215610bc357600080fd5b8135610bce81610b9c565b9392505050565b803561ffff81168114610be757600080fd5b919050565b600060208284031215610bfe57600080fd5b610bce82610bd5565b60008060008060808587031215610c1d57600080fd5b8435610c2881610b9c565b935060208501359250604085013560038110610c4357600080fd5b9396929550929360600135925050565b634e487b7160e01b600052602160045260246000fd5b6001600160a01b03851681526080810160038510610c9757634e487b7160e01b600052602160045260246000fd5b60208201949094529115156040830152606090910152919050565b634e487b7160e01b600052604160045260246000fd5b604051601f8201601f1916810167ffffffffffffffff81118282101715610cf157610cf1610cb2565b604052919050565b600082601f830112610d0a57600080fd5b813567ffffffffffffffff811115610d2457610d24610cb2565b610d37601f8201601f1916602001610cc8565b818152846020838601011115610d4c57600080fd5b816020850160208301376000918101602001919091529392505050565b600080600080600060a08688031215610d8157600080fd5b853567ffffffffffffffff80821115610d9957600080fd5b610da589838a01610cf9565b9650602091508188013581811115610dbc57600080fd5b8801601f81018a13610dcd57600080fd5b803582811115610ddf57610ddf610cb2565b8060051b610dee858201610cc8565b918252828101850191858101908d841115610e0857600080fd5b86850192505b83831015610e4457823586811115610e265760008081fd5b610e348f8983890101610cf9565b8352509186019190860190610e0e565b809a505050505050505060408601359250610e6160608701610bd5565b949793965091946080013592915050565b600080600080600060a08688031215610e8a57600080fd5b610e9386610bd5565b94506020860135610ea381610b9c565b94979496505050506040830135926060810135926080909101359150565b60008060208385031215610ed457600080fd5b823567ffffffffffffffff80821115610eec57600080fd5b818501915085601f830112610f0057600080fd5b813581811115610f0f57600080fd5b8660208260051b8501011115610f2457600080fd5b60209290920196919550909350505050565b60008060408385031215610f4957600080fd5b505080516020909101519092909150565b80820180821115610f7b57634e487b7160e01b600052601160045260246000fd5b92915050565b60008060008060808587031215610f9757600080fd5b8451610fa281610b9c565b60208601516040870151606090970151919890975090945092505050565b6000815180845260005b81811015610fe657602081850181015186830182015201610fca565b506000602082860101526020601f19601f83011685010191505092915050565b61ffff861681526001600160a01b038516602082015260a06040820181905260009061103490830186610fc0565b606083019490945250608001529392505050565b60006020828403121561105a57600080fd5b815167ffffffffffffffff81168114610bce57600080fd5b634e487b7160e01b600052603260045260246000fd5b602081526000610bce6020830184610fc0565b6040815260006110ae6040830185610fc0565b905060018060a01b03831660208301529392505050565b6040815260006110d86040830185610fc0565b9050826020830152939250505056fea2646970667358221220626d0d794637221ed084182f026fc9b76aa1550e5d29cce7ffb2a60ab4ca50b364736f6c63430008190033","linkReferences":{}},"methodIdentifiers":{"_generateKey(address,bytes32,uint8,uint256)":"2d5fa767","authorizedRouters(address)":"9e6f1f66","cleanUpExpiredKeys(bytes32[])":"ceb1a55b","expirationPeriod()":"8897cad3","getIdempotencyData(bytes32)":"a83cf62d","idempotencyKeys(bytes32)":"399bd823","quoteCrossChainGreeting(uint16)":"28bd75ce","receiveWormholeMessages(bytes,bytes[],bytes32,uint16,bytes32)":"529dca32","registerRouter(address)":"22b19af7","requestHashToKey(bytes32)":"dbd7761e","sendCrossChainGreeting(uint16,address,bytes32,uint256,uint256)":"a2b5a2ec","submitReceipt(bytes32)":"1f1aba55","wormholeRelayer()":"da25b725"},"id":51}