{"abi":[{"type":"constructor","inputs":[{"name":"_wormholeRelayer","type":"address","internalType":"address"}],"stateMutability":"nonpayable"},{"type":"function","name":"authorizedRouters","inputs":[{"name":"","type":"address","internalType":"address"}],"outputs":[{"name":"","type":"bool","internalType":"bool"}],"stateMutability":"view"},{"type":"function","name":"cleanUpExpiredKeys","inputs":[{"name":"keys","type":"bytes32[]","internalType":"bytes32[]"}],"outputs":[],"stateMutability":"nonpayable"},{"type":"function","name":"expirationPeriod","inputs":[],"outputs":[{"name":"","type":"uint256","internalType":"uint256"}],"stateMutability":"view"},{"type":"function","name":"getIdempotencyData","inputs":[{"name":"key","type":"bytes32","internalType":"bytes32"}],"outputs":[{"name":"proxy","type":"address","internalType":"address"},{"name":"predictedTokenUsage","type":"uint8","internalType":"enum Controller.OperationType"},{"name":"processed","type":"bool","internalType":"bool"},{"name":"expirationTime","type":"uint256","internalType":"uint256"}],"stateMutability":"view"},{"type":"function","name":"idempotencyKeys","inputs":[{"name":"","type":"bytes32","internalType":"bytes32"}],"outputs":[{"name":"proxy","type":"address","internalType":"address"},{"name":"predictedTokenUsage","type":"uint8","internalType":"enum Controller.OperationType"},{"name":"processed","type":"bool","internalType":"bool"},{"name":"expirationTime","type":"uint256","internalType":"uint256"}],"stateMutability":"view"},{"type":"function","name":"receiveWormholeMessages","inputs":[{"name":"payload","type":"bytes","internalType":"bytes"},{"name":"","type":"bytes[]","internalType":"bytes[]"},{"name":"","type":"bytes32","internalType":"bytes32"},{"name":"sourceChain","type":"uint16","internalType":"uint16"},{"name":"sourceAddress","type":"bytes32","internalType":"bytes32"}],"outputs":[],"stateMutability":"payable"},{"type":"function","name":"registerRouter","inputs":[{"name":"router","type":"address","internalType":"address"}],"outputs":[],"stateMutability":"nonpayable"},{"type":"function","name":"requestHashToKey","inputs":[{"name":"","type":"bytes32","internalType":"bytes32"}],"outputs":[{"name":"","type":"bytes32","internalType":"bytes32"}],"stateMutability":"view"},{"type":"function","name":"setVault","inputs":[{"name":"_vault","type":"address","internalType":"address"}],"outputs":[],"stateMutability":"nonpayable"},{"type":"function","name":"submitReceipt","inputs":[{"name":"idempotencyKey","type":"bytes32","internalType":"bytes32"},{"name":"token","type":"address","internalType":"address"},{"name":"usedTokens","type":"uint256","internalType":"uint256"}],"outputs":[],"stateMutability":"nonpayable"},{"type":"function","name":"vault","inputs":[],"outputs":[{"name":"","type":"address","internalType":"contract ControllerVault"}],"stateMutability":"view"},{"type":"function","name":"wormholeRelayer","inputs":[],"outputs":[{"name":"","type":"address","internalType":"contract IWormholeRelayer"}],"stateMutability":"view"},{"type":"event","name":"KeyGenerated","inputs":[{"name":"idempotencyKey","type":"bytes32","indexed":true,"internalType":"bytes32"},{"name":"proxy","type":"address","indexed":false,"internalType":"address"},{"name":"sourceChain","type":"uint16","indexed":false,"internalType":"uint16"},{"name":"sourceAddress","type":"bytes32","indexed":false,"internalType":"bytes32"}],"anonymous":false},{"type":"event","name":"ReceiptSubmitted","inputs":[{"name":"idempotencyKey","type":"bytes32","indexed":true,"internalType":"bytes32"},{"name":"token","type":"address","indexed":false,"internalType":"address"},{"name":"usedTokens","type":"uint256","indexed":false,"internalType":"uint256"}],"anonymous":false}],"bytecode":{"object":"0x60a034606f57601f610acb38819003918201601f19168301916001600160401b03831184841017607457808492602094604052833981010312606f57516001600160a01b03811690819003606f5762015180600055608052604051610a40908161008b8239608051816101120152f35b600080fd5b634e487b7160e01b600052604160045260246000fdfe6040608081526004908136101561001557600080fd5b600091823560e01c90816322b19af71461086c578163399bd823146101e6578163529dca32146104db57816352edc576146103145781636817031b146102915781638897cad3146102745781639e6f1f6614610236578163a83cf62d146101e6578163ceb1a55b14610141578163da25b725146100fd578163dbd7761e146100d2575063fbfa77cf146100a757600080fd5b346100ce57816003193601126100ce5760015490516001600160a01b039091168152602090f35b5080fd5b9050346100f95760203660031901126100f957602092818392358252845220549051908152f35b8280fd5b5050346100ce57816003193601126100ce57517f00000000000000000000000000000000000000000000000000000000000000006001600160a01b03168152602090f35b919050346100f9576020806003193601126101e257823567ffffffffffffffff938482116101de57366023830112156101de578101359384116101da5760249060053660248760051b840101116101d657865b86811061019f578780f35b8084600192841b850101358952600386528887812083810190428254106101ca575b50505001610194565b829055558838806101c1565b8680fd5b8480fd5b8580fd5b8380fd5b9050346100f95760203660031901126100f957918192358152600360205220610232600182549201549251928260ff859460a81c169060ff8160a01c169060018060a01b0316856108c2565b0390f35b5050346100ce5760203660031901126100ce5760209160ff9082906001600160a01b036102616108a7565b1681526002855220541690519015158152f35b5050346100ce57816003193601126100ce57602091549051908152f35b919050346100f95760203660031901126100f9576102ad6108a7565b600154926001600160a01b03928385166102dd57505016906bffffffffffffffffffffffff60a01b161760015580f35b906020606492519162461bcd60e51b8352820152601160248201527015985d5b1d08185b1c9958591e481cd95d607a1b6044820152fd5b8383346100ce5760603660031901126100ce578235906024356001600160a01b03818116918290036101da5760015416330361049857828452602060038152828520835184810181811067ffffffffffffffff8211176104855787918291875260168152848101757375626d697474696e672072656365697074206e6f7760501b81526103e06064895180936103c98a83019663104c13eb60e21b88528b6024850152518092816044860152858501906109a3565b601f80199101168101036044810184520182610908565b51906a636f6e736f6c652e6c6f675afa5080549661040460ff8960a81c16156109c6565b6001820154421161045457507fe86805a29ea436a5ac04036d59a19f9fcd11f5c24fb23ae6943ac7e4a4d760d0949596600160a81b9060ff60a81b1916179055825191825260443590820152a280f35b845162461bcd60e51b8152908101839052600b60248201526a12d95e48195e1c1a5c995960aa1b6044820152606490fd5b634e487b7160e01b885260418952602488fd5b815162461bcd60e51b8152602081870152601d60248201527f4f6e6c79207661756c742063616e207375626d697420726563656970740000006044820152606490fd5b838360a03660031901126100ce5767ffffffffffffffff9083358281116101e257610509903690860161095c565b916024948535908282116101de57366023830112156101de57818101359183831161085a578260051b886020809588519061054683860183610908565b81520191830101913683116107ef57898101915b83831061083457505050506064359261ffff84168094036101d6573387526002835260ff8588205416156107f3578551860185878583019203126107ae57838701519660028810156107ef5786810151908382116107aa57019681603f890112156107ef57848801516105cc81610940565b986105d989519a8b610908565b818a52868a01938983830101116107eb579083896105f793016109a3565b6107b2576080878051810103126107ae57516001600160a01b03808216979192918884036107aa57878101519360608201519160038310156107a65760800151895190888201926bffffffffffffffffffffffff199060601b1683528660348301526054820152605481526080810181811086821117610794578a8d9e936106959360ff9383525190209d8e815260038b52205460a81c16156109c6565b8b54420192834211610782578951946080860190811186821017610770578a528a8552878501928352848a018d8152606086019485528c8e526003808a528b8f20965187549551949316929084101561075f57505160a09290921b60ff60a01b166001600160b01b0319909316179190911790151560a81b60ff60a81b161782555160019190910155875281528286208590558251938452830152608435908201527e6e64a2b941efe78d8b2b4b2b665167ca71edf066ebc16a49d9d00e062c75ad90606090a280f35b634e487b7160e01b8f52602189528efd5b634e487b7160e01b8e5260418852828efd5b50634e487b7160e01b8c52601186528bfd5b634e487b7160e01b8d52604188528d8dfd5b8b80fd5b8980fd5b8780fd5b855162461bcd60e51b81528084018590526014818b0152732ab739bab83837b93a32b210333ab731ba34b7b760611b6044820152606490fd5b8a80fd5b8880fd5b5060188760649386519362461bcd60e51b85528401528201527f4e6f7420616e20617574686f72697a656420726f7574657200000000000000006044820152fd5b82358781116107eb57869161084f83928e369187010161095c565b81520192019161055a565b634e487b7160e01b8752604182528787fd5b5050346100ce5760203660031901126100ce576001600160a01b0361088f6108a7565b16825260026020528120805460ff1916600117905580f35b600435906001600160a01b03821682036108bd57565b600080fd5b6001600160a01b0390911681526080810194939260038310156108f2576060926020830152151560408201520152565b634e487b7160e01b600052602160045260246000fd5b90601f8019910116810190811067ffffffffffffffff82111761092a57604052565b634e487b7160e01b600052604160045260246000fd5b67ffffffffffffffff811161092a57601f01601f191660200190565b81601f820112156108bd5780359061097382610940565b926109816040519485610908565b828452602083830101116108bd57816000926020809301838601378301015290565b60005b8381106109b65750506000910152565b81810151838201526020016109a6565b156109cd57565b60405162461bcd60e51b815260206004820152601560248201527412d95e48185b1c9958591e481c1c9bd8d95cdcd959605a1b6044820152606490fdfea2646970667358221220fe58f31889c31e03c6904640e8ac35511815b2fae4a8cebf904f649c3f69b24464736f6c63430008190033","linkReferences":{}},"methodIdentifiers":{"authorizedRouters(address)":"9e6f1f66","cleanUpExpiredKeys(bytes32[])":"ceb1a55b","expirationPeriod()":"8897cad3","getIdempotencyData(bytes32)":"a83cf62d","idempotencyKeys(bytes32)":"399bd823","receiveWormholeMessages(bytes,bytes[],bytes32,uint16,bytes32)":"529dca32","registerRouter(address)":"22b19af7","requestHashToKey(bytes32)":"dbd7761e","setVault(address)":"6817031b","submitReceipt(bytes32,address,uint256)":"52edc576","vault()":"fbfa77cf","wormholeRelayer()":"da25b725"},"id":51}