{"abi":[{"type":"constructor","inputs":[{"name":"_wormholeRelayer","type":"address","internalType":"address"},{"name":"_tokenBridge","type":"address","internalType":"address"},{"name":"_wormhole","type":"address","internalType":"address"},{"name":"_controller","type":"address","internalType":"address"},{"name":"tokenAddress","type":"address","internalType":"address"}],"stateMutability":"nonpayable"},{"type":"function","name":"_submitReceipt","inputs":[{"name":"idempotencyKey","type":"bytes32","internalType":"bytes32"},{"name":"usedTokens","type":"uint256","internalType":"uint256"}],"outputs":[],"stateMutability":"nonpayable"},{"type":"function","name":"controller","inputs":[],"outputs":[{"name":"","type":"address","internalType":"address"}],"stateMutability":"view"},{"type":"function","name":"depositToFeeTank","inputs":[{"name":"amount","type":"uint256","internalType":"uint256"}],"outputs":[],"stateMutability":"nonpayable"},{"type":"function","name":"feeTank","inputs":[{"name":"","type":"address","internalType":"address"}],"outputs":[{"name":"","type":"uint256","internalType":"uint256"}],"stateMutability":"view"},{"type":"function","name":"owner","inputs":[],"outputs":[{"name":"","type":"address","internalType":"address"}],"stateMutability":"view"},{"type":"function","name":"registerAdmin","inputs":[{"name":"admin","type":"address","internalType":"address"}],"outputs":[],"stateMutability":"nonpayable"},{"type":"function","name":"renounceOwnership","inputs":[],"outputs":[],"stateMutability":"nonpayable"},{"type":"function","name":"routerAdmins","inputs":[{"name":"","type":"address","internalType":"address"}],"outputs":[{"name":"","type":"bool","internalType":"bool"}],"stateMutability":"view"},{"type":"function","name":"tokenAddress","inputs":[],"outputs":[{"name":"","type":"address","internalType":"address"}],"stateMutability":"view"},{"type":"function","name":"transferOwnership","inputs":[{"name":"newOwner","type":"address","internalType":"address"}],"outputs":[],"stateMutability":"nonpayable"},{"type":"function","name":"withdrawFromFeeTank","inputs":[{"name":"amount","type":"uint256","internalType":"uint256"}],"outputs":[],"stateMutability":"nonpayable"},{"type":"event","name":"OwnershipTransferred","inputs":[{"name":"previousOwner","type":"address","indexed":true,"internalType":"address"},{"name":"newOwner","type":"address","indexed":true,"internalType":"address"}],"anonymous":false}],"bytecode":{"object":"0x608060405234801561001057600080fd5b50604051610a0e380380610a0e83398101604081905261002f916100e3565b848484848461003d33610077565b600180546001600160a01b039384166001600160a01b03199182161790915560028054929093169116179055506101489650505050505050565b600080546001600160a01b038381166001600160a01b0319831681178455604051919092169283917f8be0079c531659141344cd1fd0a4f28419497f9722a3daafe3b4186f6b6457e09190a35050565b80516001600160a01b03811681146100de57600080fd5b919050565b600080600080600060a086880312156100fb57600080fd5b610104866100c7565b9450610112602087016100c7565b9350610120604087016100c7565b925061012e606087016100c7565b915061013c608087016100c7565b90509295509295909350565b6108b7806101576000396000f3fe608060405234801561001057600080fd5b50600436106100a95760003560e01c80639d76ea58116100715780639d76ea5814610156578063c38c581314610169578063f2fde38b1461017c578063f77c47911461018f578063faccafe9146101a2578063ffca8357146101b557600080fd5b8063510cd61c146100ae57806352dabd0a146100e1578063715018a6146100f65780638a147a6f146100fe5780638da5cb5b14610131575b600080fd5b6100ce6100bc366004610746565b60036020526000908152604090205481565b6040519081526020015b60405180910390f35b6100f46100ef36600461076a565b6101c8565b005b6100f4610306565b61012161010c366004610746565b60046020526000908152604090205460ff1681565b60405190151581526020016100d8565b6000546001600160a01b03165b6040516001600160a01b0390911681526020016100d8565b60025461013e906001600160a01b031681565b6100f4610177366004610746565b61031a565b6100f461018a366004610746565b610346565b60015461013e906001600160a01b031681565b6100f46101b036600461076a565b6103bc565b6100f46101c3366004610783565b6104cc565b3360009081526004602052604090205460ff166102255760405162461bcd60e51b815260206004820152601660248201527513db9b1e4818591b5a5b8818d85b8819195c1bdcda5d60521b60448201526064015b60405180910390fd5b33600090815260036020526040812080548392906102449084906107bb565b90915550506002546040516323b872dd60e01b8152336004820152306024820152604481018390526001600160a01b03909116906323b872dd906064015b6020604051808303816000875af11580156102a1573d6000803e3d6000fd5b505050506040513d601f19601f820116820180604052508101906102c591906107e9565b6103035760405162461bcd60e51b815260206004820152600f60248201526e151c985b9cd9995c8819985a5b1959608a1b604482015260640161021c565b50565b61030e610687565b61031860006106e1565b565b610322610687565b6001600160a01b03166000908152600460205260409020805460ff19166001179055565b61034e610687565b6001600160a01b0381166103b35760405162461bcd60e51b815260206004820152602660248201527f4f776e61626c653a206e6577206f776e657220697320746865207a65726f206160448201526564647265737360d01b606482015260840161021c565b610303816106e1565b3360009081526004602052604090205460ff1661041b5760405162461bcd60e51b815260206004820152601760248201527f4f6e6c792061646d696e2063616e207769746864726177000000000000000000604482015260640161021c565b336000908152600360205260409020548111156104715760405162461bcd60e51b8152602060048201526014602482015273496e73756666696369656e74207265736572766560601b604482015260640161021c565b3360009081526003602052604081208054839290610490908490610804565b909155505060025460405163a9059cbb60e01b8152336004820152602481018390526001600160a01b039091169063a9059cbb90604401610282565b6104d4610687565b60015460405163399bd82360e01b8152600481018490526000916001600160a01b03169063399bd82390602401608060405180830381865afa15801561051e573d6000803e3d6000fd5b505050506040513d601f19601f820116820180604052508101906105429190610817565b505091505060008282600281111561055c5761055c61086b565b11156105a957828260028111156105755761057561086b565b61057f9190610804565b336000908152600360205260408120805492935083929091906105a39084906107bb565b90915550505b60025460015460405163a9059cbb60e01b81526001600160a01b0391821660048201526024810186905291169063a9059cbb906044016020604051808303816000875af11580156105fe573d6000803e3d6000fd5b505050506040513d601f19601f8201168201806040525081019061062291906107e9565b50600154604051631f1aba5560e01b8152600481018690526001600160a01b0390911690631f1aba5590602401600060405180830381600087803b15801561066957600080fd5b505af115801561067d573d6000803e3d6000fd5b5050505050505050565b6000546001600160a01b031633146103185760405162461bcd60e51b815260206004820181905260248201527f4f776e61626c653a2063616c6c6572206973206e6f7420746865206f776e6572604482015260640161021c565b600080546001600160a01b038381166001600160a01b0319831681178455604051919092169283917f8be0079c531659141344cd1fd0a4f28419497f9722a3daafe3b4186f6b6457e09190a35050565b6001600160a01b038116811461030357600080fd5b60006020828403121561075857600080fd5b813561076381610731565b9392505050565b60006020828403121561077c57600080fd5b5035919050565b6000806040838503121561079657600080fd5b50508035926020909101359150565b634e487b7160e01b600052601160045260246000fd5b808201808211156107ce576107ce6107a5565b92915050565b805180151581146107e457600080fd5b919050565b6000602082840312156107fb57600080fd5b610763826107d4565b818103818111156107ce576107ce6107a5565b6000806000806080858703121561082d57600080fd5b845161083881610731565b60208601519094506003811061084d57600080fd5b925061085b604086016107d4565b6060959095015193969295505050565b634e487b7160e01b600052602160045260246000fdfea2646970667358221220f13cd849ccd4dfb9ca506a7da4d03e60cb2db902fa21fdea6cb0b168269e057d64736f6c63430008190033","linkReferences":{}},"methodIdentifiers":{"_submitReceipt(bytes32,uint256)":"ffca8357","controller()":"f77c4791","depositToFeeTank(uint256)":"52dabd0a","feeTank(address)":"510cd61c","owner()":"8da5cb5b","registerAdmin(address)":"c38c5813","renounceOwnership()":"715018a6","routerAdmins(address)":"8a147a6f","tokenAddress()":"9d76ea58","transferOwnership(address)":"f2fde38b","withdrawFromFeeTank(uint256)":"faccafe9"},"id":52}