{"abi":[{"type":"constructor","inputs":[{"name":"messageTransmitter_","type":"address","internalType":"address"},{"name":"attesterPrivateKey_","type":"uint256","internalType":"uint256"}],"stateMutability":"nonpayable"},{"type":"function","name":"fetchMessageTransmitterLogsFromLogs","inputs":[{"name":"logs","type":"tuple[]","internalType":"struct VmSafe.Log[]","components":[{"name":"topics","type":"bytes32[]","internalType":"bytes32[]"},{"name":"data","type":"bytes","internalType":"bytes"},{"name":"emitter","type":"address","internalType":"address"}]}],"outputs":[{"name":"","type":"tuple[]","internalType":"struct VmSafe.Log[]","components":[{"name":"topics","type":"bytes32[]","internalType":"bytes32[]"},{"name":"data","type":"bytes","internalType":"bytes"},{"name":"emitter","type":"address","internalType":"address"}]}],"stateMutability":"pure"},{"type":"function","name":"fetchSignedMessageFromLog","inputs":[{"name":"log","type":"tuple","internalType":"struct VmSafe.Log","components":[{"name":"topics","type":"bytes32[]","internalType":"bytes32[]"},{"name":"data","type":"bytes","internalType":"bytes"},{"name":"emitter","type":"address","internalType":"address"}]}],"outputs":[{"name":"","type":"tuple","internalType":"struct CCTPMessageLib.CCTPMessage","components":[{"name":"message","type":"bytes","internalType":"bytes"},{"name":"signature","type":"bytes","internalType":"bytes"}]}],"stateMutability":"view"},{"type":"function","name":"messageTransmitter","inputs":[],"outputs":[{"name":"","type":"address","internalType":"contract IMessageTransmitter"}],"stateMutability":"view"},{"type":"function","name":"signMessage","inputs":[{"name":"message","type":"bytes","internalType":"bytes"}],"outputs":[{"name":"signedMessage","type":"bytes","internalType":"bytes"}],"stateMutability":"view"},{"type":"function","name":"valid","inputs":[],"outputs":[{"name":"","type":"bool","internalType":"bool"}],"stateMutability":"view"},{"type":"function","name":"vm","inputs":[],"outputs":[{"name":"","type":"address","internalType":"contract Vm"}],"stateMutability":"view"}],"bytecode":{"object":"0x608060405234801561001057600080fd5b50604051610f6f380380610f6f83398101604081905261002f91610329565b6000805460018390556001600160a01b0384168015156001600160a81b031990921661010090910260ff191617179081905560ff16156100f2576001546040516001625e79b760e01b031981526100f291737109709ecfa91a80626ff3989d68f67f5b1dd12d9163ffa18649916100ac9160040190815260200190565b602060405180830381865afa1580156100c9573d6000803e3d6000fd5b505050506040513d601f19601f820116820180604052508101906100ed9190610355565b6100f9565b5050610377565b60008060019054906101000a90046001600160a01b031690506000816001600160a01b0316639b0d94b76040518163ffffffff1660e01b8152600401602060405180830381865afa158015610152573d6000803e3d6000fd5b505050506040513d601f19601f820116820180604052508101906101769190610355565b60405163ca669fa760e01b81526001600160a01b0382166004820152909150737109709ecfa91a80626ff3989d68f67f5b1dd12d9063ca669fa790602401600060405180830381600087803b1580156101ce57600080fd5b505af11580156101e2573d6000803e3d6000fd5b505060405163fae3687960e01b81526001600160a01b0386811660048301528516925063fae368799150602401600060405180830381600087803b15801561022957600080fd5b505af115801561023d573d6000803e3d6000fd5b505060405163ca669fa760e01b81526001600160a01b0384166004820152737109709ecfa91a80626ff3989d68f67f5b1dd12d925063ca669fa79150602401600060405180830381600087803b15801561029657600080fd5b505af11580156102aa573d6000803e3d6000fd5b5050604051632ef794dd60e21b8152600160048201526001600160a01b038516925063bbde53749150602401600060405180830381600087803b1580156102f057600080fd5b505af1158015610304573d6000803e3d6000fd5b50505050505050565b80516001600160a01b038116811461032457600080fd5b919050565b6000806040838503121561033c57600080fd5b6103458361030d565b9150602083015190509250929050565b60006020828403121561036757600080fd5b6103708261030d565b9392505050565b610be9806103866000396000f3fe608060405234801561001057600080fd5b50600436106100625760003560e01c8063167c5222146100675780633a768463146100905780637b04c181146100c357806385a5affe146100db578063874361aa146100fb578063c19912191461011b575b600080fd5b61007a61007536600461089a565b610138565b604051610087919061091d565b60405180910390f35b6100ab737109709ecfa91a80626ff3989d68f67f5b1dd12d81565b6040516001600160a01b039091168152602001610087565b6000546100ab9061010090046001600160a01b031681565b6100ee6100e936600461095f565b61017c565b6040516100879190610994565b61010e6101093660046109ae565b610251565b6040516100879190610a5f565b6000546101289060ff1681565b6040519015158152602001610087565b6040805180820190915260608082526020820152600061015783610402565b905060405180604001604052808281526020016101738361017c565b90529392505050565b805160208201206001546040516338d07aa960e21b81526004810191909152602481018290526060919060009081908190737109709ecfa91a80626ff3989d68f67f5b1dd12d9063e341eaa490604401606060405180830381865afa1580156101e9573d6000803e3d6000fd5b505050506040513d601f19601f8201168201806040525081019061020d9190610b24565b6040805160208101939093528281019190915260f89290921b6001600160f81b03191660608201528151604181830301815260619091019091529695505050505050565b60606000805b83518110156102d4577f8c5261668696ce22758910d05bab8f186d6eb247ceac2af2e82c7dc17669b03684828151811061029357610293610b61565b6020026020010151600001516000815181106102b1576102b1610b61565b6020026020010151036102cc576102c9600183610b8d565b91505b600101610257565b5060008167ffffffffffffffff8111156102f0576102f061069f565b60405190808252806020026020018201604052801561033d57816020015b6040805160608082018352808252602082015260009181019190915281526020019060019003908161030e5790505b5090506000805b85518110156103f8577f8c5261668696ce22758910d05bab8f186d6eb247ceac2af2e82c7dc17669b03686828151811061038057610380610b61565b60200260200101516000015160008151811061039e5761039e610b61565b6020026020010151036103f0578581815181106103bd576103bd610b61565b60200260200101518383815181106103d7576103d7610b61565b60209081029190910101526103ed600183610b8d565b91505b600101610344565b5090949350505050565b60208181015160609190600090610419908361052e565b9050610426602083610b8d565b6020850151909250610439908383610592565b92506104458183610b8d565b915060208285602001515161045a9190610ba0565b106104a35760405162461bcd60e51b8152602060048201526014602482015273546f6f206d616e7920657874726120627974657360601b60448201526064015b60405180910390fd5b818460200151516104b49190610ba0565b6104be9083610b8d565b915083602001515182146105275760405162461bcd60e51b815260206004820152602a60248201527f6661696c656420746f207061727365204d6573736167655472616e736d6974746044820152696572206d65737361676560b01b606482015260840161049a565b5050919050565b600061053b826020610b8d565b835110156105835760405162461bcd60e51b8152602060048201526015602482015274746f55696e743235365f6f75744f66426f756e647360581b604482015260640161049a565b50818101602001515b92915050565b6060816105a081601f610b8d565b10156105df5760405162461bcd60e51b815260206004820152600e60248201526d736c6963655f6f766572666c6f7760901b604482015260640161049a565b6105e98284610b8d565b8451101561062d5760405162461bcd60e51b8152602060048201526011602482015270736c6963655f6f75744f66426f756e647360781b604482015260640161049a565b60608215801561064c5760405191506000825260208201604052610696565b6040519150601f8416801560200281840101858101878315602002848b0101015b8183101561068557805183526020928301920161066d565b5050858452601f01601f1916604052505b50949350505050565b634e487b7160e01b600052604160045260246000fd5b6040516060810167ffffffffffffffff811182821017156106d8576106d861069f565b60405290565b604051601f8201601f1916810167ffffffffffffffff811182821017156107075761070761069f565b604052919050565b600067ffffffffffffffff8211156107295761072961069f565b5060051b60200190565b600082601f83011261074457600080fd5b813567ffffffffffffffff81111561075e5761075e61069f565b610771601f8201601f19166020016106de565b81815284602083860101111561078657600080fd5b816020850160208301376000918101602001919091529392505050565b80356001600160a01b03811681146107ba57600080fd5b919050565b6000606082840312156107d157600080fd5b6107d96106b5565b9050813567ffffffffffffffff808211156107f357600080fd5b818401915084601f83011261080757600080fd5b8135602061081c6108178361070f565b6106de565b82815260059290921b8401810191818101908884111561083b57600080fd5b948201945b8386101561085957853582529482019490820190610840565b8652508581013593508284111561086f57600080fd5b61087b87858801610733565b818601525050505061088f604083016107a3565b604082015292915050565b6000602082840312156108ac57600080fd5b813567ffffffffffffffff8111156108c357600080fd5b6108cf848285016107bf565b949350505050565b6000815180845260005b818110156108fd576020818501810151868301820152016108e1565b506000602082860101526020601f19601f83011685010191505092915050565b60208152600082516040602084015261093960608401826108d7565b90506020840151601f1984830301604085015261095682826108d7565b95945050505050565b60006020828403121561097157600080fd5b813567ffffffffffffffff81111561098857600080fd5b6108cf84828501610733565b6020815260006109a760208301846108d7565b9392505050565b600060208083850312156109c157600080fd5b823567ffffffffffffffff808211156109d957600080fd5b818501915085601f8301126109ed57600080fd5b81356109fb6108178261070f565b81815260059190911b83018401908481019088831115610a1a57600080fd5b8585015b83811015610a5257803585811115610a365760008081fd5b610a448b89838a01016107bf565b845250918601918601610a1e565b5098975050505050505050565b600060208083018184528085518083526040925060408601915060408160051b8701018488016000805b84811015610b1557898403603f19018652825180516060808752815190870181905260808701918b019085905b80821015610ad65782518452928c0192918c019160019190910190610ab6565b505050898201518682038b880152610aee82826108d7565b928a01516001600160a01b0316968a01969096525095880195935091870191600101610a89565b50919998505050505050505050565b600080600060608486031215610b3957600080fd5b835160ff81168114610b4a57600080fd5b602085015160409095015190969495509392505050565b634e487b7160e01b600052603260045260246000fd5b634e487b7160e01b600052601160045260246000fd5b8082018082111561058c5761058c610b77565b8181038181111561058c5761058c610b7756fea26469706673582212204bc558fa87da3de89f790bad47cfff63750f1d128025f0fbd3b112f0a1c259a264736f6c63430008190033","linkReferences":{}},"methodIdentifiers":{"fetchMessageTransmitterLogsFromLogs((bytes32[],bytes,address)[])":"874361aa","fetchSignedMessageFromLog((bytes32[],bytes,address))":"167c5222","messageTransmitter()":"7b04c181","signMessage(bytes)":"85a5affe","valid()":"c1991219","vm()":"3a768463"},"id":46}