{"abi":[{"type":"constructor","inputs":[{"name":"messageTransmitter_","type":"address","internalType":"address"},{"name":"attesterPrivateKey_","type":"uint256","internalType":"uint256"}],"stateMutability":"nonpayable"},{"type":"function","name":"fetchMessageTransmitterLogsFromLogs","inputs":[{"name":"logs","type":"tuple[]","internalType":"struct VmSafe.Log[]","components":[{"name":"topics","type":"bytes32[]","internalType":"bytes32[]"},{"name":"data","type":"bytes","internalType":"bytes"},{"name":"emitter","type":"address","internalType":"address"}]}],"outputs":[{"name":"","type":"tuple[]","internalType":"struct VmSafe.Log[]","components":[{"name":"topics","type":"bytes32[]","internalType":"bytes32[]"},{"name":"data","type":"bytes","internalType":"bytes"},{"name":"emitter","type":"address","internalType":"address"}]}],"stateMutability":"pure"},{"type":"function","name":"fetchSignedMessageFromLog","inputs":[{"name":"log","type":"tuple","internalType":"struct VmSafe.Log","components":[{"name":"topics","type":"bytes32[]","internalType":"bytes32[]"},{"name":"data","type":"bytes","internalType":"bytes"},{"name":"emitter","type":"address","internalType":"address"}]}],"outputs":[{"name":"","type":"tuple","internalType":"struct CCTPMessageLib.CCTPMessage","components":[{"name":"message","type":"bytes","internalType":"bytes"},{"name":"signature","type":"bytes","internalType":"bytes"}]}],"stateMutability":"view"},{"type":"function","name":"messageTransmitter","inputs":[],"outputs":[{"name":"","type":"address","internalType":"contract IMessageTransmitter"}],"stateMutability":"view"},{"type":"function","name":"signMessage","inputs":[{"name":"message","type":"bytes","internalType":"bytes"}],"outputs":[{"name":"signedMessage","type":"bytes","internalType":"bytes"}],"stateMutability":"view"},{"type":"function","name":"valid","inputs":[],"outputs":[{"name":"","type":"bool","internalType":"bool"}],"stateMutability":"view"},{"type":"function","name":"vm","inputs":[],"outputs":[{"name":"","type":"address","internalType":"contract Vm"}],"stateMutability":"view"}],"bytecode":{"object":"0x6080604090808252346102c5576000908281610e26803803809161002382856102f3565b8339810103126102c15761003681610316565b602091820151835460018290556001600160a81b031916600883901b610100600160a81b0316176001600160a01b03928316151560ff16908117808655919290610089575b8551610afb908161032b8239f35b85519363ffa1864960e01b855260049384860152737109709ecfa91a80626ff3989d68f67f5b1dd12d928186602481875afa958615610218578796610289575b50829060081c16948751639b0d94b760e01b8152828187818a5afa92831561027f578893610247575b5050833b1561024357875163ca669fa760e01b80825292841686820181905293908881602481838a5af1801561023957610226575b50863b1561022257885163fae3687960e01b81529116858201528681602481838a5af1801561021857908791610204575b5050823b1561020057906024869283895195869485938452888401525af180156101f6579084916101e2575b5050813b156101de576001602484928387519586948593632ef794dd60e21b85528401525af180156101d4576101bd575b80808061007b565b6101c782916102ca565b6101d157806101b5565b80fd5b83513d84823e3d90fd5b8280fd5b6101eb906102ca565b6101de578238610184565b85513d86823e3d90fd5b8580fd5b61020d906102ca565b610200578538610158565b88513d89823e3d90fd5b8780fd5b610232909891986102ca565b9638610127565b8a513d8b823e3d90fd5b8680fd5b9080929350813d8311610278575b61025f81836102f3565b810103126102435761027090610316565b9038806100f2565b503d610255565b89513d8a823e3d90fd5b9095508181813d83116102ba575b6102a181836102f3565b81010312610243576102b38391610316565b95906100c9565b503d610297565b5080fd5b600080fd5b6001600160401b0381116102dd57604052565b634e487b7160e01b600052604160045260246000fd5b601f909101601f19168101906001600160401b038211908210176102dd57604052565b51906001600160a01b03821682036102c55756fe604060808152600436101561001357600080fd5b6000803560e01c918263167c52221461007c57505080633a768463146100775780637b04c1811461007257806385a5affe1461006d578063874361aa146100685763c19912191461006357600080fd5b6105fb565b610549565b61042c565b6103ff565b6103d0565b346101885760209182600319360112610185576004359067ffffffffffffffff821161018557506100b283913690600401610298565b60608284516100c0816101a2565b828152015201908151928184511061014b57610125826101479501519361011c6100f46100ee878451610a3a565b96610790565b61010a856101048386515161090e565b1061091b565b6101168184515161090e565b9061079e565b9051511461095e565b61012e83610643565b90610137610201565b9384528301525191829182610398565b0390f35b606491519062461bcd60e51b825260048201526015602482015274746f55696e743235365f6f75744f66426f756e647360581b6044820152fd5b80fd5b5080fd5b634e487b7160e01b600052604160045260246000fd5b6040810190811067ffffffffffffffff8211176101be57604052565b61018c565b6060810190811067ffffffffffffffff8211176101be57604052565b90601f8019910116810190811067ffffffffffffffff8211176101be57604052565b6040519061020e826101a2565b565b67ffffffffffffffff81116101be5760051b60200190565b81601f8201121561027f5780359067ffffffffffffffff82116101be576040519261025d601f8401601f1916602001856101df565b8284526020838301011161027f57816000926020809301838601378301015290565b600080fd5b35906001600160a01b038216820361027f57565b91909160608184031261027f57604051906102b2826101c3565b819381359067ffffffffffffffff9182811161027f5783019281601f8501121561027f5783356020946102e482610210565b916102f260405193846101df565b808352868084019160051b8301019185831161027f5787809101915b838310610348575050505085528381013592831161027f576040936103398593610343958401610228565b9086015201610284565b910152565b823581529181019188910161030e565b919082519283825260005b848110610384575050826000602080949584010152601f8019910116010190565b602081830181015184830182015201610363565b906103cd916020815260206103b883516040838501526060840190610358565b920151906040601f1982850301910152610358565b90565b3461027f57600036600319011261027f576020604051737109709ecfa91a80626ff3989d68f67f5b1dd12d8152f35b3461027f57600036600319011261027f5760005460405160089190911c6001600160a01b03168152602090f35b3461027f57602036600319011261027f5760043567ffffffffffffffff811161027f57610468610463610147923690600401610228565b610643565b604051918291602083526020830190610358565b6020808201908083528351809252604092604081018260408560051b8401019601946000906000935b8685106104b757505050505050505090565b9091929394959697603f198282030185528689516060928584820183519583528551809152846080840196019089905b80821061052c5750505090829161050b600196868096015184820387860152610358565b9281878060a01b03910151169101529a0195019501939695949291906104a5565b82518852968601968d968a945092909201916001909101906104e7565b3461027f5760208060031936011261027f5767ffffffffffffffff9060043582811161027f573660238201121561027f576024600482013561058a81610210565b9461059860405196876101df565b8186526024602087019260051b8501019336851161027f5760248101925b8584106105d5576101476105c989610815565b6040519182918261047c565b833583811161027f5787916105f08392883691870101610298565b8152019301926105b6565b3461027f57600036600319011261027f57602060ff600054166040519015158152f35b9081606091031261027f57805160ff8116810361027f57916040602083015192015190565b6020815191012060015490604051916338d07aa960e21b835260048301526024820152606081604481737109709ecfa91a80626ff3989d68f67f5b1dd12d5afa8015610711576000806000926106d4575b60408051602081019390935282019290925260f89190911b6001600160f81b031916606082015290506103cd81606181015b03601f1981018352826101df565b5050506103cd6106fe6106c69260603d60601161070a575b6106f681836101df565b81019061061e565b91935090915082610694565b503d6106ec565b6040513d6000823e3d90fd5b634e487b7160e01b600052603260045260246000fd5b8051156107405760200190565b61071d565b80518210156107405760209160051b010190565b634e487b7160e01b600052601160045260246000fd5b906001820180921161077d57565b610759565b90601f820180921161077d57565b604001908160401161077d57565b9190820180921161077d57565b906107b582610210565b6040906107c560405191826101df565b83815280936107d6601f1991610210565b019160009160005b8481106107ec575050505050565b60209083516107fa816101c3565b606080825283908183015286868301528285010152016107de565b906000805b835181101561087b577f8c5261668696ce22758910d05bab8f186d6eb247ceac2af2e82c7dc17669b0366108586108518387610745565b5151610733565b5114610867575b60010161081a565b9061087360019161076f565b91905061085f565b50610888909291926107ab565b6000805b8351811015610907577f8c5261668696ce22758910d05bab8f186d6eb247ceac2af2e82c7dc17669b0366108c36108518387610745565b51146108d2575b60010161088c565b906108ff6001916108e38487610745565b516108ee8287610745565b526108f98186610745565b5061076f565b9190506108ca565b5050905090565b9190820391821161077d57565b1561092257565b60405162461bcd60e51b8152602060048201526014602482015273546f6f206d616e7920657874726120627974657360601b6044820152606490fd5b1561096557565b60405162461bcd60e51b815260206004820152602a60248201527f6661696c656420746f207061727365204d6573736167655472616e736d6974746044820152696572206d65737361676560b01b6064820152608490fd5b156109c457565b60405162461bcd60e51b815260206004820152600e60248201526d736c6963655f6f766572666c6f7760901b6044820152606490fd5b15610a0157565b60405162461bcd60e51b8152602060048201526011602482015270736c6963655f6f75744f66426f756e647360781b6044820152606490fd5b610a4e82610a4781610782565b10156109bd565b610a638151610a5c84610790565b11156109fa565b81610a7b575050604051600081526020810160405290565b60405191601f8116916040831560051b80858701019484860193010101905b808410610ab25750508252601f01601f191660405290565b9092835181526020809101930190610a9a56fea264697066735822122043a5b5c6e5e372a6ad61a367c06c1d6f01c471bdae3527f86460f9d953ec368f64736f6c63430008190033","linkReferences":{}},"methodIdentifiers":{"fetchMessageTransmitterLogsFromLogs((bytes32[],bytes,address)[])":"874361aa","fetchSignedMessageFromLog((bytes32[],bytes,address))":"167c5222","messageTransmitter()":"7b04c181","signMessage(bytes)":"85a5affe","valid()":"c1991219","vm()":"3a768463"},"id":49}